{
  "contractName": "AdminPausable",
  "abi": [
    {
      "inputs": [
        {
          "internalType": "address",
          "name": "_admin",
          "type": "address"
        }
      ],
      "payable": false,
      "stateMutability": "nonpayable",
      "type": "constructor"
    },
    {
      "anonymous": false,
      "inputs": [
        {
          "indexed": false,
          "internalType": "address",
          "name": "claimer",
          "type": "address"
        }
      ],
      "name": "Claim",
      "type": "event"
    },
    {
      "anonymous": false,
      "inputs": [
        {
          "indexed": false,
          "internalType": "uint256",
          "name": "ndays",
          "type": "uint256"
        }
      ],
      "name": "Extend",
      "type": "event"
    },
    {
      "anonymous": false,
      "inputs": [
        {
          "indexed": false,
          "internalType": "address",
          "name": "pauser",
          "type": "address"
        }
      ],
      "name": "Paused",
      "type": "event"
    },
    {
      "anonymous": false,
      "inputs": [
        {
          "indexed": false,
          "internalType": "address",
          "name": "pauser",
          "type": "address"
        }
      ],
      "name": "Unpaused",
      "type": "event"
    },
    {
      "constant": true,
      "inputs": [],
      "name": "admin",
      "outputs": [
        {
          "internalType": "address",
          "name": "",
          "type": "address"
        }
      ],
      "payable": false,
      "stateMutability": "view",
      "type": "function"
    },
    {
      "constant": true,
      "inputs": [],
      "name": "expire",
      "outputs": [
        {
          "internalType": "uint256",
          "name": "",
          "type": "uint256"
        }
      ],
      "payable": false,
      "stateMutability": "view",
      "type": "function"
    },
    {
      "constant": true,
      "inputs": [],
      "name": "paused",
      "outputs": [
        {
          "internalType": "bool",
          "name": "",
          "type": "bool"
        }
      ],
      "payable": false,
      "stateMutability": "view",
      "type": "function"
    },
    {
      "constant": true,
      "inputs": [],
      "name": "successor",
      "outputs": [
        {
          "internalType": "address",
          "name": "",
          "type": "address"
        }
      ],
      "payable": false,
      "stateMutability": "view",
      "type": "function"
    },
    {
      "constant": false,
      "inputs": [
        {
          "internalType": "address",
          "name": "_successor",
          "type": "address"
        }
      ],
      "name": "retire",
      "outputs": [],
      "payable": false,
      "stateMutability": "nonpayable",
      "type": "function"
    },
    {
      "constant": false,
      "inputs": [],
      "name": "claim",
      "outputs": [],
      "payable": false,
      "stateMutability": "nonpayable",
      "type": "function"
    },
    {
      "constant": false,
      "inputs": [
        {
          "internalType": "uint256",
          "name": "n",
          "type": "uint256"
        }
      ],
      "name": "extend",
      "outputs": [],
      "payable": false,
      "stateMutability": "nonpayable",
      "type": "function"
    },
    {
      "constant": false,
      "inputs": [],
      "name": "pause",
      "outputs": [],
      "payable": false,
      "stateMutability": "nonpayable",
      "type": "function"
    },
    {
      "constant": false,
      "inputs": [],
      "name": "unpause",
      "outputs": [],
      "payable": false,
      "stateMutability": "nonpayable",
      "type": "function"
    }
  ],
  "bytecode": "0x608060405234801561001057600080fd5b50604051610ce9380380610ce98339818101604052602081101561003357600080fd5b8101908080519060200190929190505050806000806101000a81548173ffffffffffffffffffffffffffffffffffffffff021916908373ffffffffffffffffffffffffffffffffffffffff1602179055506000600160146101000a81548160ff0219169083151502179055506301e13380420160028190555050610c2d806100bc6000396000f3fe608060405234801561001057600080fd5b50600436106100935760003560e01c806379599f961161006657806379599f96146101185780638456cb59146101365780639714378c146101405780639e6371ba1461016e578063f851a440146101b257610093565b80633f4ba83a146100985780634e71d92d146100a25780635c975abb146100ac5780636ff968c3146100ce575b600080fd5b6100a06101fc565b005b6100aa6103c0565b005b6100b46105e2565b604051808215151515815260200191505060405180910390f35b6100d66105f5565b604051808273ffffffffffffffffffffffffffffffffffffffff1673ffffffffffffffffffffffffffffffffffffffff16815260200191505060405180910390f35b61012061061b565b6040518082815260200191505060405180910390f35b61013e610621565b005b61016c6004803603602081101561015657600080fd5b810190808035906020019092919050505061085c565b005b6101b06004803603602081101561018457600080fd5b81019080803573ffffffffffffffffffffffffffffffffffffffff169060200190929190505050610a56565b005b6101ba610bd3565b604051808273ffffffffffffffffffffffffffffffffffffffff1673ffffffffffffffffffffffffffffffffffffffff16815260200191505060405180910390f35b6000809054906101000a900473ffffffffffffffffffffffffffffffffffffffff1673ffffffffffffffffffffffffffffffffffffffff163373ffffffffffffffffffffffffffffffffffffffff16146102be576040517f08c379a00000000000000000000000000000000000000000000000000000000081526004018080602001828103825260098152602001807f6e6f742061646d696e000000000000000000000000000000000000000000000081525060200191505060405180910390fd5b600160149054906101000a900460ff16610340576040517f08c379a00000000000000000000000000000000000000000000000000000000081526004018080602001828103825260148152602001807f6e6f7420706175736564207269676874206e6f7700000000000000000000000081525060200191505060405180910390fd5b6000600160146101000a81548160ff0219169083151502179055507f5db9ee0a495bf2e6ff9c91a7834c1ba4fdd244a5e8aa4e537bd38aeae4b073aa33604051808273ffffffffffffffffffffffffffffffffffffffff1673ffffffffffffffffffffffffffffffffffffffff16815260200191505060405180910390a1565b6002544210610437576040517f08c379a00000000000000000000000000000000000000000000000000000000081526004018080602001828103825260078152602001807f657870697265640000000000000000000000000000000000000000000000000081525060200191505060405180910390fd5b600160009054906101000a900473ffffffffffffffffffffffffffffffffffffffff1673ffffffffffffffffffffffffffffffffffffffff163373ffffffffffffffffffffffffffffffffffffffff16146104fa576040517f08c379a000000000000000000000000000000000000000000000000000000000815260040180806020018281038252600c8152602001807f756e617574686f72697a6564000000000000000000000000000000000000000081525060200191505060405180910390fd5b600160009054906101000a900473ffffffffffffffffffffffffffffffffffffffff166000806101000a81548173ffffffffffffffffffffffffffffffffffffffff021916908373ffffffffffffffffffffffffffffffffffffffff1602179055507f0c7ef932d3b91976772937f18d5ef9b39a9930bef486b576c374f047c4b512dc6000809054906101000a900473ffffffffffffffffffffffffffffffffffffffff16604051808273ffffffffffffffffffffffffffffffffffffffff1673ffffffffffffffffffffffffffffffffffffffff16815260200191505060405180910390a1565b600160149054906101000a900460ff1681565b600160009054906101000a900473ffffffffffffffffffffffffffffffffffffffff1681565b60025481565b6000809054906101000a900473ffffffffffffffffffffffffffffffffffffffff1673ffffffffffffffffffffffffffffffffffffffff163373ffffffffffffffffffffffffffffffffffffffff16146106e3576040517f08c379a00000000000000000000000000000000000000000000000000000000081526004018080602001828103825260098152602001807f6e6f742061646d696e000000000000000000000000000000000000000000000081525060200191505060405180910390fd5b600160149054906101000a900460ff1615610766576040517f08c379a00000000000000000000000000000000000000000000000000000000081526004018080602001828103825260108152602001807f706175736564207269676874206e6f770000000000000000000000000000000081525060200191505060405180910390fd5b60025442106107dd576040517f08c379a00000000000000000000000000000000000000000000000000000000081526004018080602001828103825260078152602001807f657870697265640000000000000000000000000000000000000000000000000081525060200191505060405180910390fd5b60018060146101000a81548160ff0219169083151502179055507f62e78cea01bee320cd4e420270b5ea74000d11b0c9f74754ebdbfc544b05a25833604051808273ffffffffffffffffffffffffffffffffffffffff1673ffffffffffffffffffffffffffffffffffffffff16815260200191505060405180910390a1565b6000809054906101000a900473ffffffffffffffffffffffffffffffffffffffff1673ffffffffffffffffffffffffffffffffffffffff163373ffffffffffffffffffffffffffffffffffffffff161461091e576040517f08c379a00000000000000000000000000000000000000000000000000000000081526004018080602001828103825260098152602001807f6e6f742061646d696e000000000000000000000000000000000000000000000081525060200191505060405180910390fd5b6002544210610995576040517f08c379a00000000000000000000000000000000000000000000000000000000081526004018080602001828103825260078152602001807f657870697265640000000000000000000000000000000000000000000000000081525060200191505060405180910390fd5b61016e8110610a0c576040517f08c379a000000000000000000000000000000000000000000000000000000000815260040180806020018281038252601a8152602001807f63616e6e6f7420657874656e6420666f7220746f6f206c6f6e6700000000000081525060200191505060405180910390fd5b620151808102600254016002819055507f02ef6561d311451dadc920679eb21192a61d96ee8ead94241b8ff073029ca6e8816040518082815260200191505060405180910390a150565b6000809054906101000a900473ffffffffffffffffffffffffffffffffffffffff1673ffffffffffffffffffffffffffffffffffffffff163373ffffffffffffffffffffffffffffffffffffffff1614610b18576040517f08c379a00000000000000000000000000000000000000000000000000000000081526004018080602001828103825260098152602001807f6e6f742061646d696e000000000000000000000000000000000000000000000081525060200191505060405180910390fd5b6002544210610b8f576040517f08c379a00000000000000000000000000000000000000000000000000000000081526004018080602001828103825260078152602001807f657870697265640000000000000000000000000000000000000000000000000081525060200191505060405180910390fd5b80600160006101000a81548173ffffffffffffffffffffffffffffffffffffffff021916908373ffffffffffffffffffffffffffffffffffffffff16021790555050565b6000809054906101000a900473ffffffffffffffffffffffffffffffffffffffff168156fea265627a7a72315820d3b48542f2f515ecd656c498d6c4bc72ca9efe5ba4f7191336c889e0f1ecf33c64736f6c63430005100032",
  "source": "pragma solidity ^0.5.12;\n\ncontract AdminPausable {\n    address public admin;\n    address public successor;\n    bool public paused;\n    uint public expire;\n\n    constructor(address _admin) public {\n        admin = _admin;\n        paused = false;\n        expire = block.timestamp + 365 * 1 days;\n    }\n\n    event Paused(address pauser);\n    event Unpaused(address pauser);\n    event Extend(uint ndays);\n    event Claim(address claimer);\n\n    modifier onlyAdmin() {\n        require(msg.sender == admin, \"not admin\");\n        _;\n    }\n\n    modifier isPaused() {\n        require(paused, \"not paused right now\");\n        _;\n    }\n\n    modifier isNotPaused() {\n        require(!paused, \"paused right now\");\n        _;\n    }\n\n    modifier isNotExpired() {\n        require(block.timestamp < expire, \"expired\");\n        _;\n    }\n\n    function retire(address _successor) public onlyAdmin isNotExpired {\n        successor = _successor;\n    }\n\n    function claim() public isNotExpired {\n        require(msg.sender == successor, \"unauthorized\");\n        admin = successor;\n        emit Claim(admin);\n    }\n\n    function extend(uint n) public onlyAdmin isNotExpired {\n        require(n < 366, \"cannot extend for too long\"); // To prevent overflow\n        expire = expire + n * 1 days;\n        emit Extend(n);\n    }\n\n    function pause() public onlyAdmin isNotPaused isNotExpired {\n        paused = true;\n        emit Paused(msg.sender);\n    }\n\n    function unpause() public onlyAdmin isPaused {\n        paused = false;\n        emit Unpaused(msg.sender);\n    }\n}\n",
  "sourcePath": "/Users/mac/coding/go/src/github.com/kien-incognito/0x-interaction/contracts/pause.sol",
  "compiler": {
    "name": "solc",
    "version": "0.5.16+commit.9c3226ce.Emscripten.clang"
  },
  "schemaVersion": "3.0.23",
  "updatedAt": "2020-02-27T06:07:50.500Z",
  "devdoc": {
    "methods": {}
  },
  "userdoc": {
    "methods": {}
  }
}