{
  "contractName": "Compound",
  "abi": [
    {
      "inputs": [
        {
          "internalType": "address payable",
          "name": "_incognitoSmartContract",
          "type": "address"
        },
        {
          "internalType": "contract Comptroller",
          "name": "_comptroller",
          "type": "address"
        },
        {
          "internalType": "contract CEther",
          "name": "_cEther",
          "type": "address"
        }
      ],
      "payable": false,
      "stateMutability": "nonpayable",
      "type": "constructor"
    },
    {
      "payable": true,
      "stateMutability": "payable",
      "type": "fallback"
    },
    {
      "constant": true,
      "inputs": [],
      "name": "ETH_CONTRACT_ADDRESS",
      "outputs": [
        {
          "internalType": "contract ERC20",
          "name": "",
          "type": "address"
        }
      ],
      "payable": false,
      "stateMutability": "view",
      "type": "function"
    },
    {
      "constant": true,
      "inputs": [
        {
          "internalType": "address",
          "name": "",
          "type": "address"
        },
        {
          "internalType": "address",
          "name": "",
          "type": "address"
        }
      ],
      "name": "borrowers",
      "outputs": [
        {
          "internalType": "uint256",
          "name": "collateralAmount",
          "type": "uint256"
        },
        {
          "internalType": "uint256",
          "name": "borrowedAmount",
          "type": "uint256"
        },
        {
          "internalType": "address",
          "name": "collateralToken",
          "type": "address"
        }
      ],
      "payable": false,
      "stateMutability": "view",
      "type": "function"
    },
    {
      "constant": true,
      "inputs": [
        {
          "internalType": "address",
          "name": "",
          "type": "address"
        },
        {
          "internalType": "address",
          "name": "",
          "type": "address"
        }
      ],
      "name": "hasBorrowed",
      "outputs": [
        {
          "internalType": "bool",
          "name": "",
          "type": "bool"
        }
      ],
      "payable": false,
      "stateMutability": "view",
      "type": "function"
    },
    {
      "constant": true,
      "inputs": [],
      "name": "incognitoSmartContract",
      "outputs": [
        {
          "internalType": "address payable",
          "name": "",
          "type": "address"
        }
      ],
      "payable": false,
      "stateMutability": "view",
      "type": "function"
    },
    {
      "constant": true,
      "inputs": [
        {
          "internalType": "address",
          "name": "",
          "type": "address"
        },
        {
          "internalType": "address",
          "name": "",
          "type": "address"
        }
      ],
      "name": "investors",
      "outputs": [
        {
          "internalType": "uint256",
          "name": "",
          "type": "uint256"
        }
      ],
      "payable": false,
      "stateMutability": "view",
      "type": "function"
    },
    {
      "constant": false,
      "inputs": [
        {
          "internalType": "address",
          "name": "borrower",
          "type": "address"
        },
        {
          "internalType": "address",
          "name": "collateralToken",
          "type": "address"
        },
        {
          "internalType": "uint256",
          "name": "srcAmount",
          "type": "uint256"
        },
        {
          "internalType": "address",
          "name": "borrowedToken",
          "type": "address"
        },
        {
          "internalType": "uint256",
          "name": "borrowedAmount",
          "type": "uint256"
        }
      ],
      "name": "borrow",
      "outputs": [
        {
          "internalType": "address",
          "name": "",
          "type": "address"
        },
        {
          "internalType": "uint256",
          "name": "",
          "type": "uint256"
        }
      ],
      "payable": true,
      "stateMutability": "payable",
      "type": "function"
    },
    {
      "constant": false,
      "inputs": [
        {
          "internalType": "address",
          "name": "borrower",
          "type": "address"
        },
        {
          "internalType": "address",
          "name": "cToken",
          "type": "address"
        }
      ],
      "name": "payback",
      "outputs": [
        {
          "internalType": "address",
          "name": "",
          "type": "address"
        },
        {
          "internalType": "uint256",
          "name": "",
          "type": "uint256"
        }
      ],
      "payable": true,
      "stateMutability": "payable",
      "type": "function"
    },
    {
      "constant": false,
      "inputs": [
        {
          "internalType": "address",
          "name": "investor",
          "type": "address"
        },
        {
          "internalType": "address",
          "name": "investedToken",
          "type": "address"
        },
        {
          "internalType": "uint256",
          "name": "investedAmount",
          "type": "uint256"
        }
      ],
      "name": "invest",
      "outputs": [
        {
          "internalType": "address",
          "name": "",
          "type": "address"
        },
        {
          "internalType": "uint256",
          "name": "",
          "type": "uint256"
        }
      ],
      "payable": true,
      "stateMutability": "payable",
      "type": "function"
    },
    {
      "constant": false,
      "inputs": [
        {
          "internalType": "address",
          "name": "investor",
          "type": "address"
        },
        {
          "internalType": "address",
          "name": "investedToken",
          "type": "address"
        },
        {
          "internalType": "uint256",
          "name": "redeemedAmount",
          "type": "uint256"
        }
      ],
      "name": "redeem",
      "outputs": [
        {
          "internalType": "address",
          "name": "",
          "type": "address"
        },
        {
          "internalType": "uint256",
          "name": "",
          "type": "uint256"
        }
      ],
      "payable": false,
      "stateMutability": "nonpayable",
      "type": "function"
    },
    {
      "constant": true,
      "inputs": [
        {
          "internalType": "address",
          "name": "cToken",
          "type": "address"
        }
      ],
      "name": "balanceOfCToken",
      "outputs": [
        {
          "internalType": "uint256",
          "name": "",
          "type": "uint256"
        }
      ],
      "payable": false,
      "stateMutability": "view",
      "type": "function"
    }
  ],
  "bytecode": "0x608060405234801561001057600080fd5b50604051612ae0380380612ae08339818101604052606081101561003357600080fd5b81019080805190602001909291908051906020019092919080519060200190929190505050826000806101000a81548173ffffffffffffffffffffffffffffffffffffffff021916908373ffffffffffffffffffffffffffffffffffffffff16021790555081600160006101000a81548173ffffffffffffffffffffffffffffffffffffffff021916908373ffffffffffffffffffffffffffffffffffffffff16021790555080600260006101000a81548173ffffffffffffffffffffffffffffffffffffffff021916908373ffffffffffffffffffffffffffffffffffffffff1602179055505050506129b48061012c6000396000f3fe6080604052600436106100915760003560e01c806372e94bf61161005957806372e94bf6146103f95780637aeec947146104505780638283e3e2146104b5578063b42a644b1461053e578063ca89346a1461059557610091565b80630e6dfcd5146100935780633fa744ad14610155578063574b895c146102005780635e9bef43146102bf578063653ac42214610344575b005b34801561009f57600080fd5b5061010c600480360360608110156100b657600080fd5b81019080803573ffffffffffffffffffffffffffffffffffffffff169060200190929190803573ffffffffffffffffffffffffffffffffffffffff16906020019092919080359060200190929190505050610674565b604051808373ffffffffffffffffffffffffffffffffffffffff1673ffffffffffffffffffffffffffffffffffffffff1681526020018281526020019250505060405180910390f35b6101b76004803603604081101561016b57600080fd5b81019080803573ffffffffffffffffffffffffffffffffffffffff169060200190929190803573ffffffffffffffffffffffffffffffffffffffff1690602001909291905050506107fc565b604051808373ffffffffffffffffffffffffffffffffffffffff1673ffffffffffffffffffffffffffffffffffffffff1681526020018281526020019250505060405180910390f35b34801561020c57600080fd5b5061026f6004803603604081101561022357600080fd5b81019080803573ffffffffffffffffffffffffffffffffffffffff169060200190929190803573ffffffffffffffffffffffffffffffffffffffff169060200190929190505050610f5e565b604051808481526020018381526020018273ffffffffffffffffffffffffffffffffffffffff1673ffffffffffffffffffffffffffffffffffffffff168152602001935050505060405180910390f35b3480156102cb57600080fd5b5061032e600480360360408110156102e257600080fd5b81019080803573ffffffffffffffffffffffffffffffffffffffff169060200190929190803573ffffffffffffffffffffffffffffffffffffffff169060200190929190505050610fb5565b6040518082815260200191505060405180910390f35b6103b06004803603606081101561035a57600080fd5b81019080803573ffffffffffffffffffffffffffffffffffffffff169060200190929190803573ffffffffffffffffffffffffffffffffffffffff16906020019092919080359060200190929190505050610fda565b604051808373ffffffffffffffffffffffffffffffffffffffff1673ffffffffffffffffffffffffffffffffffffffff1681526020018281526020019250505060405180910390f35b34801561040557600080fd5b5061040e6112d6565b604051808273ffffffffffffffffffffffffffffffffffffffff1673ffffffffffffffffffffffffffffffffffffffff16815260200191505060405180910390f35b34801561045c57600080fd5b5061049f6004803603602081101561047357600080fd5b81019080803573ffffffffffffffffffffffffffffffffffffffff1690602001909291905050506112db565b6040518082815260200191505060405180910390f35b3480156104c157600080fd5b50610524600480360360408110156104d857600080fd5b81019080803573ffffffffffffffffffffffffffffffffffffffff169060200190929190803573ffffffffffffffffffffffffffffffffffffffff1690602001909291905050506114b2565b604051808215151515815260200191505060405180910390f35b34801561054a57600080fd5b506105536114e1565b604051808273ffffffffffffffffffffffffffffffffffffffff1673ffffffffffffffffffffffffffffffffffffffff16815260200191505060405180910390f35b61062b600480360360a08110156105ab57600080fd5b81019080803573ffffffffffffffffffffffffffffffffffffffff169060200190929190803573ffffffffffffffffffffffffffffffffffffffff16906020019092919080359060200190929190803573ffffffffffffffffffffffffffffffffffffffff16906020019092919080359060200190929190505050611506565b604051808373ffffffffffffffffffffffffffffffffffffffff1673ffffffffffffffffffffffffffffffffffffffff1681526020018281526020019250505060405180910390f35b6000806000809054906101000a900473ffffffffffffffffffffffffffffffffffffffff1673ffffffffffffffffffffffffffffffffffffffff163373ffffffffffffffffffffffffffffffffffffffff16146106d057600080fd5b82600560008773ffffffffffffffffffffffffffffffffffffffff1673ffffffffffffffffffffffffffffffffffffffff16815260200190815260200160002060008673ffffffffffffffffffffffffffffffffffffffff1673ffffffffffffffffffffffffffffffffffffffff16815260200190815260200160002054101561075957600080fd5b82600560008773ffffffffffffffffffffffffffffffffffffffff1673ffffffffffffffffffffffffffffffffffffffff16815260200190815260200160002060008673ffffffffffffffffffffffffffffffffffffffff1673ffffffffffffffffffffffffffffffffffffffff168152602001908152602001600020600082825403925050819055506107f08460648503611cb9565b91509150935093915050565b6000806000809054906101000a900473ffffffffffffffffffffffffffffffffffffffff1673ffffffffffffffffffffffffffffffffffffffff163373ffffffffffffffffffffffffffffffffffffffff161461085857600080fd5b600460008573ffffffffffffffffffffffffffffffffffffffff1673ffffffffffffffffffffffffffffffffffffffff16815260200190815260200160002060008473ffffffffffffffffffffffffffffffffffffffff1673ffffffffffffffffffffffffffffffffffffffff16815260200190815260200160002060009054906101000a900460ff166108eb57600080fd5b6000600360008673ffffffffffffffffffffffffffffffffffffffff1673ffffffffffffffffffffffffffffffffffffffff16815260200190815260200160002060008573ffffffffffffffffffffffffffffffffffffffff1673ffffffffffffffffffffffffffffffffffffffff16815260200190815260200160002060020160009054906101000a900473ffffffffffffffffffffffffffffffffffffffff1690506000600360008773ffffffffffffffffffffffffffffffffffffffff1673ffffffffffffffffffffffffffffffffffffffff16815260200190815260200160002060008673ffffffffffffffffffffffffffffffffffffffff1673ffffffffffffffffffffffffffffffffffffffff16815260200190815260200160002060010154905060008111610a2057600080fd5b600073ffffffffffffffffffffffffffffffffffffffff168573ffffffffffffffffffffffffffffffffffffffff1614610cc657610add8573ffffffffffffffffffffffffffffffffffffffff16636f307dc36040518163ffffffff1660e01b815260040160206040518083038186803b158015610a9d57600080fd5b505afa158015610ab1573d6000803e3d6000fd5b505050506040513d6020811015610ac757600080fd5b8101908080519060200190929190505050612097565b811115610ae957600080fd5b60008573ffffffffffffffffffffffffffffffffffffffff16636f307dc36040518163ffffffff1660e01b815260040160206040518083038186803b158015610b3157600080fd5b505afa158015610b45573d6000803e3d6000fd5b505050506040513d6020811015610b5b57600080fd5b810190808051906020019092919050505090508073ffffffffffffffffffffffffffffffffffffffff1663095ea7b387846040518363ffffffff1660e01b8152600401808373ffffffffffffffffffffffffffffffffffffffff1673ffffffffffffffffffffffffffffffffffffffff16815260200182815260200192505050602060405180830381600087803b158015610bf557600080fd5b505af1158015610c09573d6000803e3d6000fd5b505050506040513d6020811015610c1f57600080fd5b8101908080519060200190929190505050508573ffffffffffffffffffffffffffffffffffffffff16630e752702836040518263ffffffff1660e01b815260040180828152602001915050602060405180830381600087803b158015610c8457600080fd5b505af1158015610c98573d6000803e3d6000fd5b505050506040513d6020811015610cae57600080fd5b81019080805190602001909291905050505050610d63565b803414610cd257600080fd5b47811115610cdf57600080fd5b600260009054906101000a900473ffffffffffffffffffffffffffffffffffffffff1673ffffffffffffffffffffffffffffffffffffffff16634e4d9fea826040518263ffffffff1660e01b81526004016000604051808303818588803b158015610d4957600080fd5b505af1158015610d5d573d6000803e3d6000fd5b50505050505b6000610d6e836112db565b9050610d7d8360648303611cb9565b50506000600360008973ffffffffffffffffffffffffffffffffffffffff1673ffffffffffffffffffffffffffffffffffffffff16815260200190815260200160002060008873ffffffffffffffffffffffffffffffffffffffff1673ffffffffffffffffffffffffffffffffffffffff168152602001908152602001600020600101819055506000600360008973ffffffffffffffffffffffffffffffffffffffff1673ffffffffffffffffffffffffffffffffffffffff16815260200190815260200160002060008873ffffffffffffffffffffffffffffffffffffffff1673ffffffffffffffffffffffffffffffffffffffff16815260200190815260200160002060000181905550600073ffffffffffffffffffffffffffffffffffffffff168673ffffffffffffffffffffffffffffffffffffffff161415610ecd5760008294509450505050610f57565b8573ffffffffffffffffffffffffffffffffffffffff16636f307dc36040518163ffffffff1660e01b815260040160206040518083038186803b158015610f1357600080fd5b505afa158015610f27573d6000803e3d6000fd5b505050506040513d6020811015610f3d57600080fd5b810190808051906020019092919050505082945094505050505b9250929050565b6003602052816000526040600020602052806000526040600020600091509150508060000154908060010154908060020160009054906101000a900473ffffffffffffffffffffffffffffffffffffffff16905083565b6005602052816000526040600020602052806000526040600020600091509150505481565b6000806000809054906101000a900473ffffffffffffffffffffffffffffffffffffffff1673ffffffffffffffffffffffffffffffffffffffff163373ffffffffffffffffffffffffffffffffffffffff161461103657600080fd5b600073ffffffffffffffffffffffffffffffffffffffff168473ffffffffffffffffffffffffffffffffffffffff16141561111a57600034101561107957600080fd5b611081612195565b34600560008773ffffffffffffffffffffffffffffffffffffffff1673ffffffffffffffffffffffffffffffffffffffff16815260200190815260200160002060008673ffffffffffffffffffffffffffffffffffffffff1673ffffffffffffffffffffffffffffffffffffffff16815260200190815260200160002060008282540192505081905550600080809050915091506112ce565b826111a48573ffffffffffffffffffffffffffffffffffffffff16636f307dc36040518163ffffffff1660e01b815260040160206040518083038186803b15801561116457600080fd5b505afa158015611178573d6000803e3d6000fd5b505050506040513d602081101561118e57600080fd5b8101908080519060200190929190505050612097565b10156111af57600080fd5b6111b98484612245565b82600560008773ffffffffffffffffffffffffffffffffffffffff1673ffffffffffffffffffffffffffffffffffffffff16815260200190815260200160002060008673ffffffffffffffffffffffffffffffffffffffff1673ffffffffffffffffffffffffffffffffffffffff168152602001908152602001600020600082825401925050819055508373ffffffffffffffffffffffffffffffffffffffff16636f307dc36040518163ffffffff1660e01b815260040160206040518083038186803b15801561128957600080fd5b505afa15801561129d573d6000803e3d6000fd5b505050506040513d60208110156112b357600080fd5b81019080805190602001909291905050506000809050915091505b935093915050565b600081565b60008073ffffffffffffffffffffffffffffffffffffffff168273ffffffffffffffffffffffffffffffffffffffff1614156113f257600260009054906101000a900473ffffffffffffffffffffffffffffffffffffffff1673ffffffffffffffffffffffffffffffffffffffff166370a08231306040518263ffffffff1660e01b8152600401808273ffffffffffffffffffffffffffffffffffffffff1673ffffffffffffffffffffffffffffffffffffffff16815260200191505060206040518083038186803b1580156113b057600080fd5b505afa1580156113c4573d6000803e3d6000fd5b505050506040513d60208110156113da57600080fd5b810190808051906020019092919050505090506114ad565b8173ffffffffffffffffffffffffffffffffffffffff166370a08231306040518263ffffffff1660e01b8152600401808273ffffffffffffffffffffffffffffffffffffffff1673ffffffffffffffffffffffffffffffffffffffff16815260200191505060206040518083038186803b15801561146f57600080fd5b505afa158015611483573d6000803e3d6000fd5b505050506040513d602081101561149957600080fd5b810190808051906020019092919050505090505b919050565b60046020528160005260406000206020528060005260406000206000915091509054906101000a900460ff1681565b6000809054906101000a900473ffffffffffffffffffffffffffffffffffffffff1681565b6000806000809054906101000a900473ffffffffffffffffffffffffffffffffffffffff1673ffffffffffffffffffffffffffffffffffffffff163373ffffffffffffffffffffffffffffffffffffffff161461156257600080fd5b600073ffffffffffffffffffffffffffffffffffffffff168673ffffffffffffffffffffffffffffffffffffffff1614156115a45761159f612195565b6115c4565b846115ae87612097565b10156115b957600080fd5b6115c38686612245565b5b6115ce848461240c565b60006116598573ffffffffffffffffffffffffffffffffffffffff16636f307dc36040518163ffffffff1660e01b815260040160206040518083038186803b15801561161957600080fd5b505afa15801561162d573d6000803e3d6000fd5b505050506040513d602081101561164357600080fd5b8101908080519060200190929190505050612097565b9050600460008973ffffffffffffffffffffffffffffffffffffffff1673ffffffffffffffffffffffffffffffffffffffff16815260200190815260200160002060008673ffffffffffffffffffffffffffffffffffffffff1673ffffffffffffffffffffffffffffffffffffffff16815260200190815260200160002060009054906101000a900460ff16156118e0578673ffffffffffffffffffffffffffffffffffffffff16600360008a73ffffffffffffffffffffffffffffffffffffffff1673ffffffffffffffffffffffffffffffffffffffff16815260200190815260200160002060008773ffffffffffffffffffffffffffffffffffffffff1673ffffffffffffffffffffffffffffffffffffffff16815260200190815260200160002060020160009054906101000a900473ffffffffffffffffffffffffffffffffffffffff1673ffffffffffffffffffffffffffffffffffffffff16146117c157600080fd5b80600360008a73ffffffffffffffffffffffffffffffffffffffff1673ffffffffffffffffffffffffffffffffffffffff16815260200190815260200160002060008773ffffffffffffffffffffffffffffffffffffffff1673ffffffffffffffffffffffffffffffffffffffff1681526020019081526020016000206001016000828254019250508190555085600360008a73ffffffffffffffffffffffffffffffffffffffff1673ffffffffffffffffffffffffffffffffffffffff16815260200190815260200160002060008773ffffffffffffffffffffffffffffffffffffffff1673ffffffffffffffffffffffffffffffffffffffff16815260200190815260200160002060000160008282540192505081905550611a81565b60405180606001604052808781526020018281526020018873ffffffffffffffffffffffffffffffffffffffff16815250600360008a73ffffffffffffffffffffffffffffffffffffffff1673ffffffffffffffffffffffffffffffffffffffff16815260200190815260200160002060008773ffffffffffffffffffffffffffffffffffffffff1673ffffffffffffffffffffffffffffffffffffffff168152602001908152602001600020600082015181600001556020820151816001015560408201518160020160006101000a81548173ffffffffffffffffffffffffffffffffffffffff021916908373ffffffffffffffffffffffffffffffffffffffff1602179055509050506001600460008a73ffffffffffffffffffffffffffffffffffffffff1673ffffffffffffffffffffffffffffffffffffffff16815260200190815260200160002060008773ffffffffffffffffffffffffffffffffffffffff1673ffffffffffffffffffffffffffffffffffffffff16815260200190815260200160002060006101000a81548160ff0219169083151502179055505b8473ffffffffffffffffffffffffffffffffffffffff16636f307dc36040518163ffffffff1660e01b815260040160206040518083038186803b158015611ac757600080fd5b505afa158015611adb573d6000803e3d6000fd5b505050506040513d6020811015611af157600080fd5b810190808051906020019092919050505073ffffffffffffffffffffffffffffffffffffffff1663a9059cbb6000809054906101000a900473ffffffffffffffffffffffffffffffffffffffff16836040518363ffffffff1660e01b8152600401808373ffffffffffffffffffffffffffffffffffffffff1673ffffffffffffffffffffffffffffffffffffffff16815260200182815260200192505050602060405180830381600087803b158015611ba957600080fd5b505af1158015611bbd573d6000803e3d6000fd5b505050506040513d6020811015611bd357600080fd5b810190808051906020019092919050505050600073ffffffffffffffffffffffffffffffffffffffff168573ffffffffffffffffffffffffffffffffffffffff161415611c27576000849250925050611caf565b8473ffffffffffffffffffffffffffffffffffffffff16636f307dc36040518163ffffffff1660e01b815260040160206040518083038186803b158015611c6d57600080fd5b505afa158015611c81573d6000803e3d6000fd5b505050506040513d6020811015611c9757600080fd5b81019080805190602001909291905050508492509250505b9550959350505050565b600080600073ffffffffffffffffffffffffffffffffffffffff168473ffffffffffffffffffffffffffffffffffffffff161415611e1657600260009054906101000a900473ffffffffffffffffffffffffffffffffffffffff1673ffffffffffffffffffffffffffffffffffffffff1663db006a75846040518263ffffffff1660e01b815260040180828152602001915050602060405180830381600087803b158015611d6657600080fd5b505af1158015611d7a573d6000803e3d6000fd5b505050506040513d6020811015611d9057600080fd5b8101908080519060200190929190505050506000809054906101000a900473ffffffffffffffffffffffffffffffffffffffff1673ffffffffffffffffffffffffffffffffffffffff166108fc849081150290604051600060405180830381858888f19350505050158015611e09573d6000803e3d6000fd5b5060008391509150612090565b8373ffffffffffffffffffffffffffffffffffffffff1663db006a75846040518263ffffffff1660e01b815260040180828152602001915050602060405180830381600087803b158015611e6957600080fd5b505af1158015611e7d573d6000803e3d6000fd5b505050506040513d6020811015611e9357600080fd5b8101908080519060200190929190505050508373ffffffffffffffffffffffffffffffffffffffff16636f307dc36040518163ffffffff1660e01b815260040160206040518083038186803b158015611eeb57600080fd5b505afa158015611eff573d6000803e3d6000fd5b505050506040513d6020811015611f1557600080fd5b810190808051906020019092919050505073ffffffffffffffffffffffffffffffffffffffff1663a9059cbb6000809054906101000a900473ffffffffffffffffffffffffffffffffffffffff16856040518363ffffffff1660e01b8152600401808373ffffffffffffffffffffffffffffffffffffffff1673ffffffffffffffffffffffffffffffffffffffff16815260200182815260200192505050602060405180830381600087803b158015611fcd57600080fd5b505af1158015611fe1573d6000803e3d6000fd5b505050506040513d6020811015611ff757600080fd5b8101908080519060200190929190505050508373ffffffffffffffffffffffffffffffffffffffff16636f307dc36040518163ffffffff1660e01b815260040160206040518083038186803b15801561204f57600080fd5b505afa158015612063573d6000803e3d6000fd5b505050506040513d602081101561207957600080fd5b810190808051906020019092919050505083915091505b9250929050565b60008073ffffffffffffffffffffffffffffffffffffffff168273ffffffffffffffffffffffffffffffffffffffff1614156120d557479050612190565b8173ffffffffffffffffffffffffffffffffffffffff166370a08231306040518263ffffffff1660e01b8152600401808273ffffffffffffffffffffffffffffffffffffffff1673ffffffffffffffffffffffffffffffffffffffff16815260200191505060206040518083038186803b15801561215257600080fd5b505afa158015612166573d6000803e3d6000fd5b505050506040513d602081101561217c57600080fd5b810190808051906020019092919050505090505b919050565b600260009054906101000a900473ffffffffffffffffffffffffffffffffffffffff1673ffffffffffffffffffffffffffffffffffffffff16631249c58b346040518263ffffffff1660e01b81526004016000604051808303818588803b1580156121ff57600080fd5b505af1158015612213573d6000803e3d6000fd5b5050505050612243600260009054906101000a900473ffffffffffffffffffffffffffffffffffffffff166125a1565b565b806122cf8373ffffffffffffffffffffffffffffffffffffffff16636f307dc36040518163ffffffff1660e01b815260040160206040518083038186803b15801561228f57600080fd5b505afa1580156122a3573d6000803e3d6000fd5b505050506040513d60208110156122b957600080fd5b8101908080519060200190929190505050612097565b10156122da57600080fd5b6123658273ffffffffffffffffffffffffffffffffffffffff16636f307dc36040518163ffffffff1660e01b815260040160206040518083038186803b15801561232357600080fd5b505afa158015612337573d6000803e3d6000fd5b505050506040513d602081101561234d57600080fd5b810190808051906020019092919050505083836127ae565b61236e826125a1565b60008273ffffffffffffffffffffffffffffffffffffffff1663a0712d68836040518263ffffffff1660e01b815260040180828152602001915050602060405180830381600087803b1580156123c357600080fd5b505af11580156123d7573d6000803e3d6000fd5b505050506040513d60208110156123ed57600080fd5b81019080805190602001909291905050501461240857600080fd5b5050565b600073ffffffffffffffffffffffffffffffffffffffff168273ffffffffffffffffffffffffffffffffffffffff161415612502576000600260009054906101000a900473ffffffffffffffffffffffffffffffffffffffff1673ffffffffffffffffffffffffffffffffffffffff1663c5ebeaec836040518263ffffffff1660e01b815260040180828152602001915050602060405180830381600087803b1580156124b857600080fd5b505af11580156124cc573d6000803e3d6000fd5b505050506040513d60208110156124e257600080fd5b8101908080519060200190929190505050146124fd57600080fd5b61259d565b60008273ffffffffffffffffffffffffffffffffffffffff1663c5ebeaec836040518263ffffffff1660e01b815260040180828152602001915050602060405180830381600087803b15801561255757600080fd5b505af115801561256b573d6000803e3d6000fd5b505050506040513d602081101561258157600080fd5b81019080805190602001909291905050501461259c57600080fd5b5b5050565b606060016040519080825280602002602001820160405280156125d35781602001602082028038833980820191505090505b50905081816000815181106125e457fe5b602002602001019073ffffffffffffffffffffffffffffffffffffffff16908173ffffffffffffffffffffffffffffffffffffffff1681525050600160009054906101000a900473ffffffffffffffffffffffffffffffffffffffff1673ffffffffffffffffffffffffffffffffffffffff1663c2998238826040518263ffffffff1660e01b81526004018080602001828103825283818151815260200191508051906020019060200280838360005b838110156126af578082015181840152602081019050612694565b5050505090500192505050600060405180830381600087803b1580156126d457600080fd5b505af11580156126e8573d6000803e3d6000fd5b505050506040513d6000823e3d601f19601f82011682018060405250602081101561271257600080fd5b810190808051604051939291908464010000000082111561273257600080fd5b8382019150602082018581111561274857600080fd5b825186602082028301116401000000008211171561276557600080fd5b8083526020830192505050908051906020019060200280838360005b8381101561279c578082015181840152602081019050612781565b50505050905001604052505050505050565b600073ffffffffffffffffffffffffffffffffffffffff168373ffffffffffffffffffffffffffffffffffffffff161461297a578273ffffffffffffffffffffffffffffffffffffffff1663095ea7b38360006040518363ffffffff1660e01b8152600401808373ffffffffffffffffffffffffffffffffffffffff1673ffffffffffffffffffffffffffffffffffffffff16815260200182815260200192505050602060405180830381600087803b15801561286a57600080fd5b505af115801561287e573d6000803e3d6000fd5b505050506040513d602081101561289457600080fd5b81019080805190602001909291905050506128ae57600080fd5b8273ffffffffffffffffffffffffffffffffffffffff1663095ea7b383836040518363ffffffff1660e01b8152600401808373ffffffffffffffffffffffffffffffffffffffff1673ffffffffffffffffffffffffffffffffffffffff16815260200182815260200192505050602060405180830381600087803b15801561293557600080fd5b505af1158015612949573d6000803e3d6000fd5b505050506040513d602081101561295f57600080fd5b810190808051906020019092919050505061297957600080fd5b5b50505056fea265627a7a723158203c9153b6553997bb1ec7472199874d4e1769026394e46bd047686b901ddd611964736f6c63430005100032",
  "source": "pragma solidity >= 0.5.2 <= 0.6.2;\n\nimport './utils.sol';\nimport './IERC20.sol';\n\ncontract CTokenInterface {\n    \n    uint public totalReserves;\n    \n    function transfer(address dst, uint amount) external returns (bool);\n    function transferFrom(address src, address dst, uint amount) external returns (bool);\n    function approve(address spender, uint amount) external returns (bool);\n    function allowance(address owner, address spender) external view returns (uint);\n    function balanceOf(address owner) external view returns (uint);\n    function balanceOfUnderlying(address owner) external returns (uint);\n    function getAccountSnapshot(address account) external view returns (uint, uint, uint, uint);\n    function borrowRatePerBlock() external view returns (uint);\n    function supplyRatePerBlock() external view returns (uint);\n    function totalBorrowsCurrent() external view returns (uint);\n    function borrowBalanceCurrent(address account) external returns (uint);\n    function borrowBalanceStored(address account) public view returns (uint);\n    function exchangeRateCurrent() public returns (uint);\n    function exchangeRateStored() public view returns (uint);\n    function getCash() external view returns (uint);\n    function accrueInterest() public returns (uint);\n    function seize(address liquidator, address borrower, uint seizeTokens) external returns (uint);\n}\n\ncontract CEther is CTokenInterface {\n\tfunction mint() public payable;\n\tfunction redeem(uint redeemTokens) external returns (uint);\n\tfunction borrow(uint borrowAmount) external returns (uint);\n\tfunction repayBorrow() external payable;\n}\n\ncontract CErc20 is CTokenInterface {\n\taddress public underlying;\n\tfunction mint(uint mintAmount) external returns (uint);\n    function redeem(uint redeemTokens) external returns (uint);\n    function redeemUnderlying(uint redeemAmount) external returns (uint);\n    function borrow(uint borrowAmount) external returns (uint);\n    function repayBorrow(uint repayAmount) external returns (uint);\n    function repayBorrowBehalf(address borrower, uint repayAmount) external returns (uint);\n    function liquidateBorrow(address borrower, uint repayAmount, CTokenInterface cTokenCollateral) external returns (uint);\n}\n\ncontract Comptroller {\n\tfunction enterMarkets(address[] memory cTokens) public returns (uint[] memory);\n\tfunction exitMarket(address cTokenAddress) external returns (uint);\n\tfunction getAccountLiquidity(address account) public view returns (uint, uint, uint);\n\tfunction borrowAllowed(address cToken, address borrower, uint borrowAmount) external returns (uint);\n}\n\ncontract Compound is TradeUtils {\n\n\tComptroller comptroller;\n\tCEther cEther;\n\n\tconstructor(address payable _incognitoSmartContract, Comptroller _comptroller, CEther _cEther) public {\n\t\tincognitoSmartContract = _incognitoSmartContract;\n\t\tcomptroller = _comptroller;\n\t\tcEther = _cEther;\n\t}\n\t\n\tstruct BorrowInfo {\n\t    uint collateralAmount;\n\t    uint borrowedAmount;\n\t    address collateralToken;\n\t}\n\t\n\tmapping(address=>mapping(address=>BorrowInfo)) public borrowers;\n\tmapping(address=>mapping(address=>bool)) public hasBorrowed;\n\t\n\tmapping(address=>mapping(address=>uint)) public investors;\n\n\t// fallback function which allows transfer eth.\n    function() external payable {}\n\n    function enterMarket(address cToken) internal {\n    \taddress[] memory tokens = new address[](1);\n    \ttokens[0] = cToken;\n    \tcomptroller.enterMarkets(tokens);\n    }\n\n\t/**\n\t * @dev mint ethereum into compound smart contract\n\t */\n\tfunction mint() internal {\n\t\tcEther.mint.value(msg.value)();\n\t\tenterMarket(address(cEther));\n\t}\n\n\t/**\n\t * @dev mint a token into compound smart contract\n\t * @param cToken: cToken address which represents to token in compound.\n\t * @param mintAmount: minted token amount.\n\t */\n\tfunction mint(CErc20 cToken, uint mintAmount) internal {\n\t\trequire(balanceOf(ERC20(cToken.underlying())) >= mintAmount);\n\t\tapprove(ERC20(cToken.underlying()), address(cToken), mintAmount);\n\t\tenterMarket(address(cToken));\n\t\trequire(cToken.mint(mintAmount) == 0);\n\t}\n\t\n\t/**\n\t * @dev this function is used to borrow token.\n\t * @param borrower: address of borrower\n\t * @param collateralToken: token address which is used to get collateral amount.\n\t * @param srcAmount: amount is used to get in collateralToken.\n\t * @param borrowedToken: token address that borrower wants to borrow.\n\t * @param borrowedAmount: token's amount that borrower wants to borrow.\n\t */\n\tfunction borrow(address borrower, address collateralToken, uint srcAmount, address borrowedToken, uint borrowedAmount) external payable isIncognitoSmartContract returns (address, uint) {\n\t    if (ERC20(collateralToken) == ETH_CONTRACT_ADDRESS) {\n\t        // mint eth \n\t        mint();\n\t    } else {\n    \t    // check balance of collateralToken\n    \t    require(balanceOf(ERC20(collateralToken)) >= srcAmount);\n    \t    \n    \t    // mint token\n    \t    mint(CErc20(collateralToken), srcAmount);\n\t    }\n\t    // start borrow\n\t    borrowInternal(borrowedToken, borrowedAmount);\n\t    uint amount = balanceOf(ERC20(CErc20(borrowedToken).underlying()));\n\t    \n\t    // store borrower address\n\t    if (hasBorrowed[borrower][borrowedToken]) {\n\t        require(borrowers[borrower][borrowedToken].collateralToken == collateralToken);\n\t        borrowers[borrower][borrowedToken].borrowedAmount += amount;\n\t        borrowers[borrower][borrowedToken].collateralAmount += srcAmount;\n\t    } else {\n\t        borrowers[borrower][borrowedToken] = BorrowInfo(srcAmount, amount, collateralToken);\n\t        hasBorrowed[borrower][borrowedToken] = true;\n\t    }\n\t    \n\t    // transfer token to incognito smart contract\n\t\tERC20(CErc20(borrowedToken).underlying()).transfer(incognitoSmartContract, amount);\n\n\t\tif (ERC20(borrowedToken) == ETH_CONTRACT_ADDRESS) {\n\t\t\treturn (address(ETH_CONTRACT_ADDRESS), borrowedAmount);\n\t\t}\n\t    return (CErc20(borrowedToken).underlying(), borrowedAmount);\n\t}\n\t\n\tfunction borrowInternal(address cToken, uint borrowedAmount) internal {\n\t    if (ERC20(cToken) == ETH_CONTRACT_ADDRESS) {\n\t        require(cEther.borrow(borrowedAmount) == 0);\n\t    } else {\n\t        require(CErc20(cToken).borrow(borrowedAmount) == 0);\n\t    }\n\t}\n\t\n\t/**\n\t * @dev user payback borrowed token\n\t * @param borrower: address of borrower\n\t * @param cToken: address of cToken that user borrows\n\t */\n\tfunction payback(address borrower, address cToken) external payable isIncognitoSmartContract returns (address, uint) {\n\t    require(hasBorrowed[borrower][cToken]);\n\n\t    address collateralToken = borrowers[borrower][cToken].collateralToken;\n\t    uint repaidAmount = borrowers[borrower][cToken].borrowedAmount;\n\t    require(repaidAmount > 0);\n\t    \n\t    // aprove cToken to transfer token to contract.\n\t    if (ERC20(cToken) != ETH_CONTRACT_ADDRESS) {\n\t        require(repaidAmount <= balanceOf(ERC20(CErc20(cToken).underlying())));\n\t        address underlying = CErc20(cToken).underlying();\n\t        ERC20(underlying).approve(cToken, repaidAmount);\n\t        \n\t        // call repayBorrow\n\t        CErc20(cToken).repayBorrow(repaidAmount);\n\t    } else { \n\t        // compare msg.value with repaidAmount\n\t        require(msg.value == repaidAmount);\n\t        require(repaidAmount <= address(this).balance);\n\t        \n\t        // call repayBorrow\n\t        cEther.repayBorrow.value(repaidAmount)();\n\t    }\n\t    \n\t    // redeem collateralToken\n\t    uint collateralBalance = balanceOfCToken(collateralToken);\n\t    redeemInternal(collateralToken, collateralBalance-100); // TODO: specify how to calculate the fee instead of hard code 100 wei.\n\t    \n\t    borrowers[borrower][cToken].borrowedAmount = 0;\n\t    borrowers[borrower][cToken].collateralAmount = 0;\n\n\t    if (ERC20(cToken) == ETH_CONTRACT_ADDRESS) {\n\t    \treturn (address(ETH_CONTRACT_ADDRESS), repaidAmount);\n\t    }\n\t    return (CErc20(cToken).underlying(), repaidAmount);\n\t}\n\t\n\t/**\n\t * @dev user invests to a token\n\t * @param investor: address of investor\n\t * @param investedToken: token that is going to be invested\n\t * @param investedAmount: amount of token that is invested\n\t */\n\tfunction invest(address investor, address investedToken, uint investedAmount) external payable isIncognitoSmartContract returns (address, uint) {\n\t    if (ERC20(investedToken) == ETH_CONTRACT_ADDRESS) {\n\t        require(msg.value >= 0);\n\t        mint();\n\t        investors[investor][investedToken] += msg.value;\n\t        return (address(ETH_CONTRACT_ADDRESS), 0);\n\t    } \n        require(balanceOf(ERC20(CErc20(investedToken).underlying())) >= investedAmount);\n        mint(CErc20(investedToken), investedAmount);\n        investors[investor][investedToken] += investedAmount;\n        return (CErc20(investedToken).underlying(), 0);\n\t}\n\t\n\t/**\n\t * @dev user redeems invested token\n\t * @param investor: address of investor\n\t * @param investedToken: token that is going to be redeemed\n\t * @param redeemedAmount: amount of token that is redeemed\n\t */\n\tfunction redeem(address investor, address investedToken, uint redeemedAmount) external isIncognitoSmartContract returns (address, uint) {\n\t    require(investors[investor][investedToken] >= redeemedAmount);\n\t    investors[investor][investedToken] -= redeemedAmount;\n\t    return redeemInternal(investedToken, redeemedAmount-100);\n\t}\n\n\tfunction redeemInternal(address cToken, uint amount) internal returns (address, uint) {\n\t    if (ERC20(cToken) == ETH_CONTRACT_ADDRESS) {\n\t        cEther.redeem(amount);\n\t        incognitoSmartContract.transfer(amount);\n\t        return (address(ETH_CONTRACT_ADDRESS), amount);\n\t    }\n        CErc20(cToken).redeem(amount);\n        ERC20(CErc20(cToken).underlying()).transfer(incognitoSmartContract, amount);\n        return (CErc20(cToken).underlying(), amount);\n\t}\n\t\n\t/**\n\t * @dev return balance of current smart contract in cToken\n\t * @param cToken: cToken address\n\t * @return balance of smart contract in cToken\n\t */\n\tfunction balanceOfCToken(address cToken) public view returns (uint) {\n\t\tif (ERC20(cToken) == ETH_CONTRACT_ADDRESS) {\n\t\t\treturn cEther.balanceOf(address(this));\n\t\t} \n\t\treturn CErc20(cToken).balanceOf(address(this));\n\t}\n}\n",
  "sourcePath": "/Users/mac/coding/go/src/github.com/kien-incognito/0x-interaction/contracts/Compound.sol",
  "compiler": {
    "name": "solc",
    "version": "0.5.16+commit.9c3226ce.Emscripten.clang"
  },
  "schemaVersion": "3.0.23",
  "updatedAt": "2020-02-27T06:07:50.320Z",
  "devdoc": {
    "methods": {
      "balanceOfCToken(address)": {
        "details": "return balance of current smart contract in cToken",
        "params": {
          "cToken": ": cToken address"
        },
        "return": "balance of smart contract in cToken"
      },
      "borrow(address,address,uint256,address,uint256)": {
        "details": "this function is used to borrow token.",
        "params": {
          "borrowedAmount": ": token's amount that borrower wants to borrow.",
          "borrowedToken": ": token address that borrower wants to borrow.",
          "borrower": ": address of borrower",
          "collateralToken": ": token address which is used to get collateral amount.",
          "srcAmount": ": amount is used to get in collateralToken."
        }
      },
      "invest(address,address,uint256)": {
        "details": "user invests to a token",
        "params": {
          "investedAmount": ": amount of token that is invested",
          "investedToken": ": token that is going to be invested",
          "investor": ": address of investor"
        }
      },
      "payback(address,address)": {
        "details": "user payback borrowed token",
        "params": {
          "borrower": ": address of borrower",
          "cToken": ": address of cToken that user borrows"
        }
      },
      "redeem(address,address,uint256)": {
        "details": "user redeems invested token",
        "params": {
          "investedToken": ": token that is going to be redeemed",
          "investor": ": address of investor",
          "redeemedAmount": ": amount of token that is redeemed"
        }
      }
    }
  },
  "userdoc": {
    "methods": {}
  }
}