{
  "contractName": "Executor",
  "abi": [
    {
      "anonymous": false,
      "inputs": [
        {
          "indexed": false,
          "internalType": "string",
          "name": "name",
          "type": "string"
        },
        {
          "indexed": false,
          "internalType": "address",
          "name": "addr",
          "type": "address"
        }
      ],
      "name": "AddressLog",
      "type": "event"
    },
    {
      "anonymous": false,
      "inputs": [
        {
          "indexed": false,
          "internalType": "string",
          "name": "name",
          "type": "string"
        },
        {
          "indexed": false,
          "internalType": "bool",
          "name": "result",
          "type": "bool"
        }
      ],
      "name": "BoolLog",
      "type": "event"
    },
    {
      "constant": false,
      "inputs": [
        {
          "internalType": "address payable",
          "name": "target",
          "type": "address"
        },
        {
          "internalType": "bytes",
          "name": "code",
          "type": "bytes"
        }
      ],
      "name": "executeFunction",
      "outputs": [
        {
          "internalType": "bool",
          "name": "success",
          "type": "bool"
        },
        {
          "internalType": "bytes",
          "name": "result",
          "type": "bytes"
        }
      ],
      "payable": true,
      "stateMutability": "payable",
      "type": "function"
    }
  ],
  "bytecode": "0x608060405234801561001057600080fd5b50610394806100206000396000f3fe60806040526004361061001e5760003560e01c8063f3eca33b14610023575b600080fd5b6100fc6004803603604081101561003957600080fd5b81019080803573ffffffffffffffffffffffffffffffffffffffff1690602001909291908035906020019064010000000081111561007657600080fd5b82018360208201111561008857600080fd5b803590602001918460018302840111640100000000831117156100aa57600080fd5b91908080601f016020809104026020016040519081016040528093929190818152602001838380828437600081840152601f19601f820116905080830192505050505050509192919290505050610182565b604051808315151515815260200180602001828103825283818151815260200191508051906020019080838360005b8381101561014657808201518184015260208101905061012b565b50505050905090810190601f1680156101735780820380516001836020036101000a031916815260200191505b50935050505060405180910390f35b600060607f7aa23523ed0bacfd947d7d96afe44aa0e42a17cac0f44259abb4fbef3dab5a158460405180806020018373ffffffffffffffffffffffffffffffffffffffff1673ffffffffffffffffffffffffffffffffffffffff168152602001828103825260188152602001807f737461727420657865637574696e672066756e6374696f6e00000000000000008152506020019250505060405180910390a18373ffffffffffffffffffffffffffffffffffffffff1634846040518082805190602001908083835b6020831061026e578051825260208201915060208101905060208303925061024b565b6001836020036101000a03801982511681845116808217855250505050505090500191505060006040518083038185875af1925050503d80600081146102d0576040519150601f19603f3d011682016040523d82523d6000602084013e6102d5565b606091505b5080925081935050507fe11d6a92456c87f6906aff454ec2d4d593dcbff164ab48b12feb484f02666e86826040518080602001831515151581526020018281038252600b8152602001807f66696e6973682063616c6c0000000000000000000000000000000000000000008152506020019250505060405180910390a1818191509150925092905056fea265627a7a72315820b1736f8a9464298b448fbe39924d6e87477e0be5784e61fcb97751660f7d44ec64736f6c63430005100032",
  "source": "pragma solidity >=0.5.0 <0.7.0;\n\ncontract Executor {\n\n    event BoolLog(string name, bool result);\n    event AddressLog(string name, address addr);\n    \n    /**\n     * executeFunction is used to execute function provided in bytes code from a given address.\n     * @param target is target's address that is used to call function.\n     * @param code is encoded from function and its params.\n     * @return result of call process.\n     * @notice this is a payable function in case users want to trigger a payable function in target.\n     */\n    function executeFunction(address payable target, bytes memory code) public payable returns (bool success, bytes memory result) {\n        emit AddressLog(\"start executing function\", target);\n        (success, result) = target.call.value(msg.value)(code);\n\n        emit BoolLog(\"finish call\", success);\n        return (success, result);\n    }\n}\n",
  "sourcePath": "/Users/mac/coding/0x-interaction/contracts/Executor.sol",
  "compiler": {
    "name": "solc",
    "version": "0.5.16+commit.9c3226ce.Emscripten.clang"
  },
  "schemaVersion": "3.0.23",
  "updatedAt": "2020-02-14T06:58:46.239Z",
  "devdoc": {
    "methods": {
      "executeFunction(address,bytes)": {
        "params": {
          "code": "is encoded from function and its params.",
          "target": "is target's address that is used to call function."
        },
        "return": "result of call process."
      }
    }
  },
  "userdoc": {
    "methods": {
      "executeFunction(address,bytes)": {
        "notice": "executeFunction is used to execute function provided in bytes code from a given address.this is a payable function in case users want to trigger a payable function in target."
      }
    }
  }
}