{
  "contractName": "IncognitoMode",
  "abi": [
    {
      "inputs": [
        {
          "internalType": "address",
          "name": "admin",
          "type": "address"
        },
        {
          "internalType": "address",
          "name": "incognitoProxyAddress",
          "type": "address"
        },
        {
          "internalType": "address",
          "name": "_prevVault",
          "type": "address"
        }
      ],
      "payable": false,
      "stateMutability": "nonpayable",
      "type": "constructor"
    },
    {
      "anonymous": false,
      "inputs": [
        {
          "indexed": false,
          "internalType": "address",
          "name": "claimer",
          "type": "address"
        }
      ],
      "name": "Claim",
      "type": "event"
    },
    {
      "anonymous": false,
      "inputs": [
        {
          "indexed": false,
          "internalType": "address",
          "name": "token",
          "type": "address"
        },
        {
          "indexed": false,
          "internalType": "string",
          "name": "incognitoAddress",
          "type": "string"
        },
        {
          "indexed": false,
          "internalType": "uint256",
          "name": "amount",
          "type": "uint256"
        }
      ],
      "name": "Deposit",
      "type": "event"
    },
    {
      "anonymous": false,
      "inputs": [
        {
          "indexed": false,
          "internalType": "uint256",
          "name": "ndays",
          "type": "uint256"
        }
      ],
      "name": "Extend",
      "type": "event"
    },
    {
      "anonymous": false,
      "inputs": [
        {
          "indexed": false,
          "internalType": "address",
          "name": "newVault",
          "type": "address"
        }
      ],
      "name": "Migrate",
      "type": "event"
    },
    {
      "anonymous": false,
      "inputs": [
        {
          "indexed": false,
          "internalType": "address[]",
          "name": "assets",
          "type": "address[]"
        }
      ],
      "name": "MoveAssets",
      "type": "event"
    },
    {
      "anonymous": false,
      "inputs": [
        {
          "indexed": false,
          "internalType": "address",
          "name": "pauser",
          "type": "address"
        }
      ],
      "name": "Paused",
      "type": "event"
    },
    {
      "anonymous": false,
      "inputs": [
        {
          "indexed": false,
          "internalType": "string",
          "name": "incognitoAddress",
          "type": "string"
        },
        {
          "indexed": false,
          "internalType": "address",
          "name": "token",
          "type": "address"
        },
        {
          "indexed": false,
          "internalType": "uint256",
          "name": "amount",
          "type": "uint256"
        }
      ],
      "name": "Trade",
      "type": "event"
    },
    {
      "anonymous": false,
      "inputs": [
        {
          "indexed": false,
          "internalType": "address",
          "name": "pauser",
          "type": "address"
        }
      ],
      "name": "Unpaused",
      "type": "event"
    },
    {
      "anonymous": false,
      "inputs": [
        {
          "indexed": false,
          "internalType": "address",
          "name": "newIncognitoProxy",
          "type": "address"
        }
      ],
      "name": "UpdateIncognitoProxy",
      "type": "event"
    },
    {
      "anonymous": false,
      "inputs": [
        {
          "indexed": false,
          "internalType": "address",
          "name": "token",
          "type": "address"
        },
        {
          "indexed": false,
          "internalType": "address",
          "name": "to",
          "type": "address"
        },
        {
          "indexed": false,
          "internalType": "uint256",
          "name": "amount",
          "type": "uint256"
        }
      ],
      "name": "Withdraw",
      "type": "event"
    },
    {
      "anonymous": false,
      "inputs": [
        {
          "indexed": false,
          "internalType": "address",
          "name": "token",
          "type": "address"
        },
        {
          "indexed": false,
          "internalType": "string",
          "name": "incognitoAddress",
          "type": "string"
        },
        {
          "indexed": false,
          "internalType": "uint256",
          "name": "amount",
          "type": "uint256"
        }
      ],
      "name": "WithdrawRequest",
      "type": "event"
    },
    {
      "payable": true,
      "stateMutability": "payable",
      "type": "fallback"
    },
    {
      "constant": true,
      "inputs": [],
      "name": "ETH_TOKEN",
      "outputs": [
        {
          "internalType": "address",
          "name": "",
          "type": "address"
        }
      ],
      "payable": false,
      "stateMutability": "view",
      "type": "function"
    },
    {
      "constant": true,
      "inputs": [],
      "name": "admin",
      "outputs": [
        {
          "internalType": "address",
          "name": "",
          "type": "address"
        }
      ],
      "payable": false,
      "stateMutability": "view",
      "type": "function"
    },
    {
      "constant": false,
      "inputs": [],
      "name": "claim",
      "outputs": [],
      "payable": false,
      "stateMutability": "nonpayable",
      "type": "function"
    },
    {
      "constant": true,
      "inputs": [],
      "name": "expire",
      "outputs": [
        {
          "internalType": "uint256",
          "name": "",
          "type": "uint256"
        }
      ],
      "payable": false,
      "stateMutability": "view",
      "type": "function"
    },
    {
      "constant": false,
      "inputs": [
        {
          "internalType": "uint256",
          "name": "n",
          "type": "uint256"
        }
      ],
      "name": "extend",
      "outputs": [],
      "payable": false,
      "stateMutability": "nonpayable",
      "type": "function"
    },
    {
      "constant": true,
      "inputs": [],
      "name": "incognito",
      "outputs": [
        {
          "internalType": "contract Incognito",
          "name": "",
          "type": "address"
        }
      ],
      "payable": false,
      "stateMutability": "view",
      "type": "function"
    },
    {
      "constant": true,
      "inputs": [],
      "name": "newVault",
      "outputs": [
        {
          "internalType": "address payable",
          "name": "",
          "type": "address"
        }
      ],
      "payable": false,
      "stateMutability": "view",
      "type": "function"
    },
    {
      "constant": false,
      "inputs": [],
      "name": "pause",
      "outputs": [],
      "payable": false,
      "stateMutability": "nonpayable",
      "type": "function"
    },
    {
      "constant": true,
      "inputs": [],
      "name": "paused",
      "outputs": [
        {
          "internalType": "bool",
          "name": "",
          "type": "bool"
        }
      ],
      "payable": false,
      "stateMutability": "view",
      "type": "function"
    },
    {
      "constant": true,
      "inputs": [],
      "name": "prevVault",
      "outputs": [
        {
          "internalType": "contract Withdrawable",
          "name": "",
          "type": "address"
        }
      ],
      "payable": false,
      "stateMutability": "view",
      "type": "function"
    },
    {
      "constant": false,
      "inputs": [
        {
          "internalType": "address",
          "name": "_successor",
          "type": "address"
        }
      ],
      "name": "retire",
      "outputs": [],
      "payable": false,
      "stateMutability": "nonpayable",
      "type": "function"
    },
    {
      "constant": true,
      "inputs": [],
      "name": "successor",
      "outputs": [
        {
          "internalType": "address",
          "name": "",
          "type": "address"
        }
      ],
      "payable": false,
      "stateMutability": "view",
      "type": "function"
    },
    {
      "constant": false,
      "inputs": [],
      "name": "unpause",
      "outputs": [],
      "payable": false,
      "stateMutability": "nonpayable",
      "type": "function"
    },
    {
      "constant": true,
      "inputs": [
        {
          "internalType": "address",
          "name": "",
          "type": "address"
        },
        {
          "internalType": "address",
          "name": "",
          "type": "address"
        }
      ],
      "name": "withdrawRequests",
      "outputs": [
        {
          "internalType": "uint256",
          "name": "",
          "type": "uint256"
        }
      ],
      "payable": false,
      "stateMutability": "view",
      "type": "function"
    },
    {
      "constant": true,
      "inputs": [
        {
          "internalType": "bytes32",
          "name": "",
          "type": "bytes32"
        }
      ],
      "name": "withdrawed",
      "outputs": [
        {
          "internalType": "bool",
          "name": "",
          "type": "bool"
        }
      ],
      "payable": false,
      "stateMutability": "view",
      "type": "function"
    },
    {
      "constant": false,
      "inputs": [
        {
          "internalType": "string",
          "name": "incognitoAddress",
          "type": "string"
        }
      ],
      "name": "deposit",
      "outputs": [],
      "payable": true,
      "stateMutability": "payable",
      "type": "function"
    },
    {
      "constant": false,
      "inputs": [
        {
          "internalType": "address",
          "name": "token",
          "type": "address"
        },
        {
          "internalType": "uint256",
          "name": "amount",
          "type": "uint256"
        },
        {
          "internalType": "string",
          "name": "incognitoAddress",
          "type": "string"
        }
      ],
      "name": "depositERC20",
      "outputs": [],
      "payable": true,
      "stateMutability": "payable",
      "type": "function"
    },
    {
      "constant": true,
      "inputs": [
        {
          "internalType": "bytes32",
          "name": "hash",
          "type": "bytes32"
        }
      ],
      "name": "isWithdrawed",
      "outputs": [
        {
          "internalType": "bool",
          "name": "",
          "type": "bool"
        }
      ],
      "payable": false,
      "stateMutability": "view",
      "type": "function"
    },
    {
      "constant": true,
      "inputs": [
        {
          "internalType": "bytes",
          "name": "inst",
          "type": "bytes"
        }
      ],
      "name": "parseBurnInst",
      "outputs": [
        {
          "internalType": "uint8",
          "name": "",
          "type": "uint8"
        },
        {
          "internalType": "uint8",
          "name": "",
          "type": "uint8"
        },
        {
          "internalType": "uint8",
          "name": "",
          "type": "uint8"
        },
        {
          "internalType": "address",
          "name": "",
          "type": "address"
        },
        {
          "internalType": "address payable",
          "name": "",
          "type": "address"
        },
        {
          "internalType": "uint256",
          "name": "",
          "type": "uint256"
        }
      ],
      "payable": false,
      "stateMutability": "pure",
      "type": "function"
    },
    {
      "constant": false,
      "inputs": [
        {
          "internalType": "bytes",
          "name": "inst",
          "type": "bytes"
        },
        {
          "internalType": "uint256[2]",
          "name": "heights",
          "type": "uint256[2]"
        },
        {
          "internalType": "bytes32[][2]",
          "name": "instPaths",
          "type": "bytes32[][2]"
        },
        {
          "internalType": "bool[][2]",
          "name": "instPathIsLefts",
          "type": "bool[][2]"
        },
        {
          "internalType": "bytes32[2]",
          "name": "instRoots",
          "type": "bytes32[2]"
        },
        {
          "internalType": "bytes32[2]",
          "name": "blkData",
          "type": "bytes32[2]"
        },
        {
          "internalType": "uint256[][2]",
          "name": "sigIdxs",
          "type": "uint256[][2]"
        },
        {
          "internalType": "uint8[][2]",
          "name": "sigVs",
          "type": "uint8[][2]"
        },
        {
          "internalType": "bytes32[][2]",
          "name": "sigRs",
          "type": "bytes32[][2]"
        },
        {
          "internalType": "bytes32[][2]",
          "name": "sigSs",
          "type": "bytes32[][2]"
        }
      ],
      "name": "withdraw",
      "outputs": [],
      "payable": false,
      "stateMutability": "nonpayable",
      "type": "function"
    },
    {
      "constant": false,
      "inputs": [
        {
          "internalType": "bytes",
          "name": "inst",
          "type": "bytes"
        },
        {
          "internalType": "uint256[2]",
          "name": "heights",
          "type": "uint256[2]"
        },
        {
          "internalType": "bytes32[][2]",
          "name": "instPaths",
          "type": "bytes32[][2]"
        },
        {
          "internalType": "bool[][2]",
          "name": "instPathIsLefts",
          "type": "bool[][2]"
        },
        {
          "internalType": "bytes32[2]",
          "name": "instRoots",
          "type": "bytes32[2]"
        },
        {
          "internalType": "bytes32[2]",
          "name": "blkData",
          "type": "bytes32[2]"
        },
        {
          "internalType": "uint256[][2]",
          "name": "sigIdxs",
          "type": "uint256[][2]"
        },
        {
          "internalType": "uint8[][2]",
          "name": "sigVs",
          "type": "uint8[][2]"
        },
        {
          "internalType": "bytes32[][2]",
          "name": "sigRs",
          "type": "bytes32[][2]"
        },
        {
          "internalType": "bytes32[][2]",
          "name": "sigSs",
          "type": "bytes32[][2]"
        }
      ],
      "name": "submitBurnProof",
      "outputs": [],
      "payable": false,
      "stateMutability": "nonpayable",
      "type": "function"
    },
    {
      "constant": true,
      "inputs": [
        {
          "internalType": "bytes",
          "name": "signData",
          "type": "bytes"
        },
        {
          "internalType": "bytes32",
          "name": "hash",
          "type": "bytes32"
        }
      ],
      "name": "sigToAddress",
      "outputs": [
        {
          "internalType": "address",
          "name": "",
          "type": "address"
        }
      ],
      "payable": false,
      "stateMutability": "pure",
      "type": "function"
    },
    {
      "constant": false,
      "inputs": [
        {
          "internalType": "string",
          "name": "incognitoAddress",
          "type": "string"
        },
        {
          "internalType": "address",
          "name": "token",
          "type": "address"
        },
        {
          "internalType": "uint256",
          "name": "amount",
          "type": "uint256"
        },
        {
          "internalType": "bytes",
          "name": "signData",
          "type": "bytes"
        },
        {
          "internalType": "bytes32",
          "name": "hash",
          "type": "bytes32"
        }
      ],
      "name": "requestWithdraw",
      "outputs": [],
      "payable": false,
      "stateMutability": "nonpayable",
      "type": "function"
    },
    {
      "constant": false,
      "inputs": [
        {
          "internalType": "address",
          "name": "token",
          "type": "address"
        },
        {
          "internalType": "uint256",
          "name": "amount",
          "type": "uint256"
        },
        {
          "internalType": "address",
          "name": "recipientToken",
          "type": "address"
        },
        {
          "internalType": "address",
          "name": "exchangeAddress",
          "type": "address"
        },
        {
          "internalType": "bytes",
          "name": "callData",
          "type": "bytes"
        },
        {
          "internalType": "bytes32",
          "name": "hash",
          "type": "bytes32"
        },
        {
          "internalType": "bytes",
          "name": "signData",
          "type": "bytes"
        }
      ],
      "name": "execute",
      "outputs": [],
      "payable": true,
      "stateMutability": "payable",
      "type": "function"
    },
    {
      "constant": false,
      "inputs": [
        {
          "internalType": "address",
          "name": "verifier",
          "type": "address"
        },
        {
          "internalType": "address",
          "name": "sellToken",
          "type": "address"
        },
        {
          "internalType": "uint256",
          "name": "amount",
          "type": "uint256"
        }
      ],
      "name": "setAmount",
      "outputs": [],
      "payable": false,
      "stateMutability": "nonpayable",
      "type": "function"
    },
    {
      "constant": false,
      "inputs": [
        {
          "internalType": "address payable",
          "name": "_newVault",
          "type": "address"
        }
      ],
      "name": "migrate",
      "outputs": [],
      "payable": false,
      "stateMutability": "nonpayable",
      "type": "function"
    },
    {
      "constant": false,
      "inputs": [
        {
          "internalType": "address[]",
          "name": "assets",
          "type": "address[]"
        }
      ],
      "name": "moveAssets",
      "outputs": [],
      "payable": false,
      "stateMutability": "nonpayable",
      "type": "function"
    },
    {
      "constant": false,
      "inputs": [
        {
          "internalType": "address",
          "name": "newIncognitoProxy",
          "type": "address"
        }
      ],
      "name": "updateIncognitoProxy",
      "outputs": [],
      "payable": false,
      "stateMutability": "nonpayable",
      "type": "function"
    },
    {
      "constant": true,
      "inputs": [
        {
          "internalType": "address",
          "name": "token",
          "type": "address"
        }
      ],
      "name": "getDecimals",
      "outputs": [
        {
          "internalType": "uint8",
          "name": "",
          "type": "uint8"
        }
      ],
      "payable": false,
      "stateMutability": "view",
      "type": "function"
    },
    {
      "constant": true,
      "inputs": [
        {
          "internalType": "address",
          "name": "token",
          "type": "address"
        }
      ],
      "name": "balanceOf",
      "outputs": [
        {
          "internalType": "uint256",
          "name": "",
          "type": "uint256"
        }
      ],
      "payable": false,
      "stateMutability": "view",
      "type": "function"
    }
  ],
  "bytecode": "0x60806040523480156200001157600080fd5b5060405162004bd638038062004bd6833981810160405262000037919081019062000185565b82806000806101000a81548173ffffffffffffffffffffffffffffffffffffffff021916908373ffffffffffffffffffffffffffffffffffffffff1602179055506000600160146101000a81548160ff0219169083151502179055506301e1338042016002819055505081600560006101000a81548173ffffffffffffffffffffffffffffffffffffffff021916908373ffffffffffffffffffffffffffffffffffffffff16021790555080600660006101000a81548173ffffffffffffffffffffffffffffffffffffffff021916908373ffffffffffffffffffffffffffffffffffffffff1602179055506000600760006101000a81548173ffffffffffffffffffffffffffffffffffffffff021916908373ffffffffffffffffffffffffffffffffffffffff16021790555050505062000229565b6000815190506200017f816200020f565b92915050565b6000806000606084860312156200019b57600080fd5b6000620001ab868287016200016e565b9350506020620001be868287016200016e565b9250506040620001d1868287016200016e565b9150509250925092565b6000620001e882620001ef565b9050919050565b600073ffffffffffffffffffffffffffffffffffffffff82169050919050565b6200021a81620001db565b81146200022657600080fd5b50565b61499d80620002396000396000f3fe6080604052600436106101cd5760003560e01c80637e16e6e1116100f7578063a26e118611610095578063f851a44011610064578063f851a44014610639578063f8b3974514610664578063fa84702e1461068d578063faf7f494146106b8576101cd565b8063a26e11861461057a578063ce5494bb14610596578063cf54aaa0146105bf578063dca40d9e146105fc576101cd565b80638a984538116100d15780638a984538146104e15780639714378c1461050c5780639e6371ba14610535578063a0c0f9b81461055e576101cd565b80637e16e6e11461045d5780638456cb591461049f57806388aaf0c8146104b6576101cd565b806358bc83371161016f5780636ff968c31161013e5780636ff968c31461038d57806370a08231146103b8578063749c5f86146103f557806379599f9614610432576101cd565b806358bc8337146102de5780635a67cb87146103095780635c975abb1461032557806365b5a00f14610350576101cd565b80633f4ba83a116101ab5780633f4ba83a1461024a5780633fec6b40146102615780634e71d92d1461029e5780635654b6c8146102b5576101cd565b80630c4f5039146101cf5780633a51913d146101f85780633cb4b58a14610221575b005b3480156101db57600080fd5b506101f660048036036101f19190810190613687565b6106e1565b005b34801561020457600080fd5b5061021f600480360361021a9190810190613439565b610aa8565b005b34801561022d57600080fd5b506102486004803603610243919081019061375b565b610c3b565b005b34801561025657600080fd5b5061025f610e9f565b005b34801561026d57600080fd5b50610288600480360361028391908101906138e0565b610fd1565b6040516102959190613fce565b60405180910390f35b3480156102aa57600080fd5b506102b361105f565b005b3480156102c157600080fd5b506102dc60048036036102d79190810190613975565b6111ef565b005b3480156102ea57600080fd5b506102f3611353565b6040516103009190613fce565b60405180910390f35b610323600480360361031e9190810190613620565b611358565b005b34801561033157600080fd5b5061033a6115a7565b604051610347919061413f565b60405180910390f35b34801561035c57600080fd5b50610377600480360361037291908101906134c7565b6115ba565b6040516103849190614385565b60405180910390f35b34801561039957600080fd5b506103a26115df565b6040516103af9190613fce565b60405180910390f35b3480156103c457600080fd5b506103df60048036036103da9190810190613439565b611605565b6040516103ec9190614385565b60405180910390f35b34801561040157600080fd5b5061041c600480360361041791908101906136f1565b6116d4565b604051610429919061413f565b60405180910390f35b34801561043e57600080fd5b50610447611818565b6040516104549190614385565b60405180910390f35b34801561046957600080fd5b50610484600480360361047f919081019061371a565b61181e565b604051610496969594939291906143bb565b60405180910390f35b3480156104ab57600080fd5b506104b46118bf565b005b3480156104c257600080fd5b506104cb611a35565b6040516104d89190614004565b60405180910390f35b3480156104ed57600080fd5b506104f6611a5b565b604051610503919061428f565b60405180910390f35b34801561051857600080fd5b50610533600480360361052e9190810190613a1c565b611a81565b005b34801561054157600080fd5b5061055c60048036036105579190810190613439565b611be2565b005b61057860048036036105739190810190613552565b611cf9565b005b610594600480360361058f9190810190613934565b612064565b005b3480156105a257600080fd5b506105bd60048036036105b89190810190613462565b61210c565b005b3480156105cb57600080fd5b506105e660048036036105e19190810190613439565b61229f565b6040516105f391906143a0565b60405180910390f35b34801561060857600080fd5b50610623600480360361061e91908101906136f1565b612363565b604051610630919061413f565b60405180910390f35b34801561064557600080fd5b5061064e612383565b60405161065b9190613fce565b60405180910390f35b34801561067057600080fd5b5061068b6004803603610686919081019061375b565b6123a8565b005b34801561069957600080fd5b506106a26126f6565b6040516106af91906142aa565b60405180910390f35b3480156106c457600080fd5b506106df60048036036106da9190810190613503565b61271c565b005b6000809054906101000a900473ffffffffffffffffffffffffffffffffffffffff1673ffffffffffffffffffffffffffffffffffffffff163373ffffffffffffffffffffffffffffffffffffffff1614610770576040517f08c379a000000000000000000000000000000000000000000000000000000000815260040161076790614365565b60405180910390fd5b600160149054906101000a900460ff166107bf576040517f08c379a00000000000000000000000000000000000000000000000000000000081526004016107b6906142c5565b60405180910390fd5b600073ffffffffffffffffffffffffffffffffffffffff16600760009054906101000a900473ffffffffffffffffffffffffffffffffffffffff1673ffffffffffffffffffffffffffffffffffffffff16141561081b57600080fd5b60008090505b8151811015610a6d57600073ffffffffffffffffffffffffffffffffffffffff1682828151811061084e57fe5b602002602001015173ffffffffffffffffffffffffffffffffffffffff1614156108e057600760009054906101000a900473ffffffffffffffffffffffffffffffffffffffff1673ffffffffffffffffffffffffffffffffffffffff166108fc479081150290604051600060405180830381858888f193505050501580156108da573d6000803e3d6000fd5b50610a60565b60008282815181106108ee57fe5b602002602001015173ffffffffffffffffffffffffffffffffffffffff166370a08231306040518263ffffffff1660e01b815260040161092e9190613fe9565b60206040518083038186803b15801561094657600080fd5b505afa15801561095a573d6000803e3d6000fd5b505050506040513d601f19601f8201168201806040525061097e9190810190613a45565b90506000811115610a5e5782828151811061099557fe5b602002602001015173ffffffffffffffffffffffffffffffffffffffff1663a9059cbb600760009054906101000a900473ffffffffffffffffffffffffffffffffffffffff16836040518363ffffffff1660e01b81526004016109f9929190614056565b602060405180830381600087803b158015610a1357600080fd5b505af1158015610a27573d6000803e3d6000fd5b505050506040513d601f19601f82011682018060405250610a4b91908101906136c8565b50610a546127a2565b610a5d57600080fd5b5b505b8080600101915050610821565b507f492fc8b292f2a2a9b328a366b83745f30c024056d12aa118a15966d26a8ce65881604051610a9d919061411d565b60405180910390a150565b6000809054906101000a900473ffffffffffffffffffffffffffffffffffffffff1673ffffffffffffffffffffffffffffffffffffffff163373ffffffffffffffffffffffffffffffffffffffff1614610b37576040517f08c379a0000000000000000000000000000000000000000000000000000000008152600401610b2e90614365565b60405180910390fd5b600160149054906101000a900460ff16610b86576040517f08c379a0000000000000000000000000000000000000000000000000000000008152600401610b7d906142c5565b60405180910390fd5b600073ffffffffffffffffffffffffffffffffffffffff168173ffffffffffffffffffffffffffffffffffffffff161415610bc057600080fd5b80600560006101000a81548173ffffffffffffffffffffffffffffffffffffffff021916908373ffffffffffffffffffffffffffffffffffffffff1602179055507f204252dfe190ad6ef63db40a490f048b39f661de74628408f13cd0bb2d4c344681604051610c309190613fce565b60405180910390a150565b600160149054906101000a900460ff1615610c8b576040517f08c379a0000000000000000000000000000000000000000000000000000000008152600401610c8290614345565b60405180910390fd5b610c93612d5e565b610c9c8b6127e0565b90506048816020015160ff16148015610cbc57506001816040015160ff16145b610cc557600080fd5b600073ffffffffffffffffffffffffffffffffffffffff16816060015173ffffffffffffffffffffffffffffffffffffffff161415610d14578060a00151471015610d0f57600080fd5b610dea565b6000610d23826060015161229f565b905060098160ff161115610d4b5760098160ff1603600a0a8260a00151028260a00181815250505b8160a00151826060015173ffffffffffffffffffffffffffffffffffffffff166370a08231306040518263ffffffff1660e01b8152600401610d8d9190613fe9565b60206040518083038186803b158015610da557600080fd5b505afa158015610db9573d6000803e3d6000fd5b505050506040513d601f19601f82011682018060405250610ddd9190810190613a45565b1015610de857600080fd5b505b610dfc8b8b8b8b8b8b8b8b8b8b612881565b8060a0015160046000836080015173ffffffffffffffffffffffffffffffffffffffff1673ffffffffffffffffffffffffffffffffffffffff1681526020019081526020016000206000836060015173ffffffffffffffffffffffffffffffffffffffff1673ffffffffffffffffffffffffffffffffffffffff168152602001908152602001600020600082825401925050819055505050505050505050505050565b6000809054906101000a900473ffffffffffffffffffffffffffffffffffffffff1673ffffffffffffffffffffffffffffffffffffffff163373ffffffffffffffffffffffffffffffffffffffff1614610f2e576040517f08c379a0000000000000000000000000000000000000000000000000000000008152600401610f2590614365565b60405180910390fd5b600160149054906101000a900460ff16610f7d576040517f08c379a0000000000000000000000000000000000000000000000000000000008152600401610f74906142c5565b60405180910390fd5b6000600160146101000a81548160ff0219169083151502179055507f5db9ee0a495bf2e6ff9c91a7834c1ba4fdd244a5e8aa4e537bd38aeae4b073aa33604051610fc79190613fe9565b60405180910390a1565b6000806000806020860151915060408601519250601b86604081518110610ff457fe5b602001015160f81c60f81b60f81c01905060018582848660405160008152602001604052604051611028949392919061424a565b6020604051602081039080840390855afa15801561104a573d6000803e3d6000fd5b50505060206040510351935050505092915050565b60025442106110a3576040517f08c379a000000000000000000000000000000000000000000000000000000000815260040161109a906142e5565b60405180910390fd5b600160009054906101000a900473ffffffffffffffffffffffffffffffffffffffff1673ffffffffffffffffffffffffffffffffffffffff163373ffffffffffffffffffffffffffffffffffffffff1614611133576040517f08c379a000000000000000000000000000000000000000000000000000000000815260040161112a90614325565b60405180910390fd5b600160009054906101000a900473ffffffffffffffffffffffffffffffffffffffff166000806101000a81548173ffffffffffffffffffffffffffffffffffffffff021916908373ffffffffffffffffffffffffffffffffffffffff1602179055507f0c7ef932d3b91976772937f18d5ef9b39a9930bef486b576c374f047c4b512dc6000809054906101000a900473ffffffffffffffffffffffffffffffffffffffff166040516111e59190613fce565b60405180910390a1565b60006111fb8383610fd1565b905083600460008373ffffffffffffffffffffffffffffffffffffffff1673ffffffffffffffffffffffffffffffffffffffff16815260200190815260200160002060008773ffffffffffffffffffffffffffffffffffffffff1673ffffffffffffffffffffffffffffffffffffffff16815260200190815260200160002054101561128657600080fd5b83600460008373ffffffffffffffffffffffffffffffffffffffff1673ffffffffffffffffffffffffffffffffffffffff16815260200190815260200160002060008773ffffffffffffffffffffffffffffffffffffffff1673ffffffffffffffffffffffffffffffffffffffff168152602001908152602001600020600082825403925050819055507f2d4b597935f3cd67fb2eebf1db4debc934cee5c7baa7153f980fdbeb2e74084e858786604051611343939291906140b6565b60405180910390a1505050505050565b600081565b600160149054906101000a900460ff16156113a8576040517f08c379a000000000000000000000000000000000000000000000000000000000815260040161139f90614345565b60405180910390fd5b600083905060006113b88561229f565b905060008273ffffffffffffffffffffffffffffffffffffffff166370a08231306040518263ffffffff1660e01b81526004016113f59190613fe9565b60206040518083038186803b15801561140d57600080fd5b505afa158015611421573d6000803e3d6000fd5b505050506040513d601f19601f820116820180604052506114459190810190613a45565b9050600085905060098360ff1611156114835760098360ff1603600a0a818161146a57fe5b04905060098360ff1603600a0a828161147f57fe5b0491505b670de0b6b3a764000081111580156114a35750670de0b6b3a76400008211155b80156114b95750670de0b6b3a764000082820111155b6114c257600080fd5b8373ffffffffffffffffffffffffffffffffffffffff166323b872dd3330896040518463ffffffff1660e01b81526004016114ff9392919061401f565b602060405180830381600087803b15801561151957600080fd5b505af115801561152d573d6000803e3d6000fd5b505050506040513d601f19601f8201168201806040525061155191908101906136c8565b5061155a6127a2565b61156357600080fd5b7f2d4b597935f3cd67fb2eebf1db4debc934cee5c7baa7153f980fdbeb2e74084e878683604051611596939291906140b6565b60405180910390a150505050505050565b600160149054906101000a900460ff1681565b6004602052816000526040600020602052806000526040600020600091509150505481565b600160009054906101000a900473ffffffffffffffffffffffffffffffffffffffff1681565b60008073ffffffffffffffffffffffffffffffffffffffff168273ffffffffffffffffffffffffffffffffffffffff161415611643574790506116cf565b8173ffffffffffffffffffffffffffffffffffffffff166370a08231306040518263ffffffff1660e01b815260040161167c9190613fe9565b60206040518083038186803b15801561169457600080fd5b505afa1580156116a8573d6000803e3d6000fd5b505050506040513d601f19601f820116820180604052506116cc9190810190613a45565b90505b919050565b60006003600083815260200190815260200160002060009054906101000a900460ff16156117055760019050611813565b600073ffffffffffffffffffffffffffffffffffffffff16600660009054906101000a900473ffffffffffffffffffffffffffffffffffffffff1673ffffffffffffffffffffffffffffffffffffffff1614156117655760009050611813565b600660009054906101000a900473ffffffffffffffffffffffffffffffffffffffff1673ffffffffffffffffffffffffffffffffffffffff1663749c5f86836040518263ffffffff1660e01b81526004016117c0919061422f565b60206040518083038186803b1580156117d857600080fd5b505afa1580156117ec573d6000803e3d6000fd5b505050506040513d601f19601f8201168201806040525061181091908101906136c8565b90505b919050565b60025481565b60008060008060008060008760008151811061183657fe5b602001015160f81c60f81b60f81c905060008860018151811061185557fe5b602001015160f81c60f81b60f81c905060008960028151811061187457fe5b602001015160f81c60f81b60f81c9050600080600060238d0151925060438d0151915060638d015190508585858585859b509b509b509b509b509b5050505050505091939550919395565b6000809054906101000a900473ffffffffffffffffffffffffffffffffffffffff1673ffffffffffffffffffffffffffffffffffffffff163373ffffffffffffffffffffffffffffffffffffffff161461194e576040517f08c379a000000000000000000000000000000000000000000000000000000000815260040161194590614365565b60405180910390fd5b600160149054906101000a900460ff161561199e576040517f08c379a000000000000000000000000000000000000000000000000000000000815260040161199590614345565b60405180910390fd5b60025442106119e2576040517f08c379a00000000000000000000000000000000000000000000000000000000081526004016119d9906142e5565b60405180910390fd5b60018060146101000a81548160ff0219169083151502179055507f62e78cea01bee320cd4e420270b5ea74000d11b0c9f74754ebdbfc544b05a25833604051611a2b9190613fe9565b60405180910390a1565b600760009054906101000a900473ffffffffffffffffffffffffffffffffffffffff1681565b600560009054906101000a900473ffffffffffffffffffffffffffffffffffffffff1681565b6000809054906101000a900473ffffffffffffffffffffffffffffffffffffffff1673ffffffffffffffffffffffffffffffffffffffff163373ffffffffffffffffffffffffffffffffffffffff1614611b10576040517f08c379a0000000000000000000000000000000000000000000000000000000008152600401611b0790614365565b60405180910390fd5b6002544210611b54576040517f08c379a0000000000000000000000000000000000000000000000000000000008152600401611b4b906142e5565b60405180910390fd5b61016e8110611b98576040517f08c379a0000000000000000000000000000000000000000000000000000000008152600401611b8f90614305565b60405180910390fd5b620151808102600254016002819055507f02ef6561d311451dadc920679eb21192a61d96ee8ead94241b8ff073029ca6e881604051611bd79190614385565b60405180910390a150565b6000809054906101000a900473ffffffffffffffffffffffffffffffffffffffff1673ffffffffffffffffffffffffffffffffffffffff163373ffffffffffffffffffffffffffffffffffffffff1614611c71576040517f08c379a0000000000000000000000000000000000000000000000000000000008152600401611c6890614365565b60405180910390fd5b6002544210611cb5576040517f08c379a0000000000000000000000000000000000000000000000000000000008152600401611cac906142e5565b60405180910390fd5b80600160006101000a81548173ffffffffffffffffffffffffffffffffffffffff021916908373ffffffffffffffffffffffffffffffffffffffff16021790555050565b6000611d058284610fd1565b905086600460008373ffffffffffffffffffffffffffffffffffffffff1673ffffffffffffffffffffffffffffffffffffffff16815260200190815260200160002060008a73ffffffffffffffffffffffffffffffffffffffff1673ffffffffffffffffffffffffffffffffffffffff168152602001908152602001600020541015611d9057600080fd5b8573ffffffffffffffffffffffffffffffffffffffff168873ffffffffffffffffffffffffffffffffffffffff161415611dc957600080fd5b6000349050600073ffffffffffffffffffffffffffffffffffffffff168973ffffffffffffffffffffffffffffffffffffffff161415611e0d578781019050611f39565b878973ffffffffffffffffffffffffffffffffffffffff166370a08231306040518263ffffffff1660e01b8152600401611e479190613fe9565b60206040518083038186803b158015611e5f57600080fd5b505afa158015611e73573d6000803e3d6000fd5b505050506040513d601f19601f82011682018060405250611e979190810190613a45565b1015611ea257600080fd5b8873ffffffffffffffffffffffffffffffffffffffff1663a9059cbb878a6040518363ffffffff1660e01b8152600401611edd9291906140f4565b602060405180830381600087803b158015611ef757600080fd5b505af1158015611f0b573d6000803e3d6000fd5b505050506040513d601f19601f82011682018060405250611f2f91908101906136c8565b611f3857600080fd5b5b611f4587828789612c1b565b87600460008473ffffffffffffffffffffffffffffffffffffffff1673ffffffffffffffffffffffffffffffffffffffff16815260200190815260200160002060008b73ffffffffffffffffffffffffffffffffffffffff1673ffffffffffffffffffffffffffffffffffffffff1681526020019081526020016000206000828254039250508190555087600460008473ffffffffffffffffffffffffffffffffffffffff1673ffffffffffffffffffffffffffffffffffffffff16815260200190815260200160002060008973ffffffffffffffffffffffffffffffffffffffff1673ffffffffffffffffffffffffffffffffffffffff16815260200190815260200160002060008282540192505081905550505050505050505050565b600160149054906101000a900460ff16156120b4576040517f08c379a00000000000000000000000000000000000000000000000000000000081526004016120ab90614345565b60405180910390fd5b6b033b2e3c9fd0803ce80000004711156120cd57600080fd5b7f2d4b597935f3cd67fb2eebf1db4debc934cee5c7baa7153f980fdbeb2e74084e60008234604051612101939291906140b6565b60405180910390a150565b6000809054906101000a900473ffffffffffffffffffffffffffffffffffffffff1673ffffffffffffffffffffffffffffffffffffffff163373ffffffffffffffffffffffffffffffffffffffff161461219b576040517f08c379a000000000000000000000000000000000000000000000000000000000815260040161219290614365565b60405180910390fd5b600160149054906101000a900460ff166121ea576040517f08c379a00000000000000000000000000000000000000000000000000000000081526004016121e1906142c5565b60405180910390fd5b600073ffffffffffffffffffffffffffffffffffffffff168173ffffffffffffffffffffffffffffffffffffffff16141561222457600080fd5b80600760006101000a81548173ffffffffffffffffffffffffffffffffffffffff021916908373ffffffffffffffffffffffffffffffffffffffff1602179055507fd58a618a39de682696ea37dd9a6bf9c793afa426fa1438e75c3966e3b541e45a816040516122949190613fe9565b60405180910390a150565b60008082905060008090508173ffffffffffffffffffffffffffffffffffffffff1663313ce5676040518163ffffffff1660e01b815260040160206040518083038186803b1580156122f057600080fd5b505afa158015612304573d6000803e3d6000fd5b505050506040513d601f19601f820116820180604052506123289190810190613a45565b503d60008114612343576020811461234c5760009150612358565b60009150612358565b60206000803e60005191505b508092505050919050565b60036020528060005260406000206000915054906101000a900460ff1681565b6000809054906101000a900473ffffffffffffffffffffffffffffffffffffffff1681565b600160149054906101000a900460ff16156123f8576040517f08c379a00000000000000000000000000000000000000000000000000000000081526004016123ef90614345565b60405180910390fd5b612400612d5e565b6124098b6127e0565b90506048816020015160ff1614801561242957506001816040015160ff16145b61243257600080fd5b600073ffffffffffffffffffffffffffffffffffffffff16816060015173ffffffffffffffffffffffffffffffffffffffff161415612481578060a0015147101561247c57600080fd5b612557565b6000612490826060015161229f565b905060098160ff1611156124b85760098160ff1603600a0a8260a00151028260a00181815250505b8160a00151826060015173ffffffffffffffffffffffffffffffffffffffff166370a08231306040518263ffffffff1660e01b81526004016124fa9190613fe9565b60206040518083038186803b15801561251257600080fd5b505afa158015612526573d6000803e3d6000fd5b505050506040513d601f19601f8201168201806040525061254a9190810190613a45565b101561255557600080fd5b505b6125698b8b8b8b8b8b8b8b8b8b612881565b600073ffffffffffffffffffffffffffffffffffffffff16816060015173ffffffffffffffffffffffffffffffffffffffff1614156125f657806080015173ffffffffffffffffffffffffffffffffffffffff166108fc8260a001519081150290604051600060405180830381858888f193505050501580156125f0573d6000803e3d6000fd5b506126a2565b806060015173ffffffffffffffffffffffffffffffffffffffff1663a9059cbb82608001518360a001516040518363ffffffff1660e01b815260040161263d929190614056565b602060405180830381600087803b15801561265757600080fd5b505af115801561266b573d6000803e3d6000fd5b505050506040513d601f19601f8201168201806040525061268f91908101906136c8565b506126986127a2565b6126a157600080fd5b5b7f9b1bfa7fa9ee420a16e124f794c35ac9f90472acc99140eb2f6447c714cad8eb816060015182608001518360a001516040516126e19392919061407f565b60405180910390a15050505050505050505050565b600660009054906101000a900473ffffffffffffffffffffffffffffffffffffffff1681565b80600460008573ffffffffffffffffffffffffffffffffffffffff1673ffffffffffffffffffffffffffffffffffffffff16815260200190815260200160002060008473ffffffffffffffffffffffffffffffffffffffff1673ffffffffffffffffffffffffffffffffffffffff16815260200190815260200160002081905550505050565b600080600090503d600081146127bf57602081146127c8576127d4565b600191506127d4565b60206000803e60005191505b50600081141591505090565b6127e8612d5e565b6000806000806000806127fa8861181e565b95509550955095509550955061280e612d5e565b6040518060c001604052808860ff1681526020018760ff1681526020018660ff1681526020018573ffffffffffffffffffffffffffffffffffffffff1681526020018473ffffffffffffffffffffffffffffffffffffffff16815260200183815250905080975050505050505050919050565b60008a80519060200120905060008b8b60006002811061289d57fe5b60200201516040516020016128b3929190613fa6565b60405160208183030381529060405280519060200120905060008c8c6001600281106128db57fe5b60200201516040516020016128f1929190613fa6565b604051602081830303815290604052805190602001209050612912836116d4565b1561291c57600080fd5b600560009054906101000a900473ffffffffffffffffffffffffffffffffffffffff1673ffffffffffffffffffffffffffffffffffffffff1663f65d21166001848f60006002811061296a57fe5b60200201518f60006002811061297c57fe5b60200201518f60006002811061298e57fe5b60200201518f6000600281106129a057fe5b60200201518f6000600281106129b257fe5b60200201518f6000600281106129c457fe5b60200201518f6000600281106129d657fe5b60200201518f6000600281106129e857fe5b60200201518f6000600281106129fa57fe5b60200201516040518c63ffffffff1660e01b8152600401612a259b9a9998979695949392919061415a565b60206040518083038186803b158015612a3d57600080fd5b505afa158015612a51573d6000803e3d6000fd5b505050506040513d601f19601f82011682018060405250612a7591908101906136c8565b612a7e57600080fd5b600560009054906101000a900473ffffffffffffffffffffffffffffffffffffffff1673ffffffffffffffffffffffffffffffffffffffff1663f65d21166000838f600160028110612acc57fe5b60200201518f600160028110612ade57fe5b60200201518f600160028110612af057fe5b60200201518f600160028110612b0257fe5b60200201518f600160028110612b1457fe5b60200201518f600160028110612b2657fe5b60200201518f600160028110612b3857fe5b60200201518f600160028110612b4a57fe5b60200201518f600160028110612b5c57fe5b60200201516040518c63ffffffff1660e01b8152600401612b879b9a9998979695949392919061415a565b60206040518083038186803b158015612b9f57600080fd5b505afa158015612bb3573d6000803e3d6000fd5b505050506040513d601f19601f82011682018060405250612bd791908101906136c8565b612be057600080fd5b60016003600085815260200190815260200160002060006101000a81548160ff02191690831515021790555050505050505050505050505050565b6000612c2685611605565b9050600073ffffffffffffffffffffffffffffffffffffffff168573ffffffffffffffffffffffffffffffffffffffff161415612c635734810390505b83471015612c7057600080fd5b600060608373ffffffffffffffffffffffffffffffffffffffff168686604051612c9a9190613f8f565b60006040518083038185875af1925050503d8060008114612cd7576040519150601f19603f3d011682016040523d82523d6000602084013e612cdc565b606091505b509150915081612ceb57600080fd5b60008082806020019051612d02919081019061348b565b915091508873ffffffffffffffffffffffffffffffffffffffff168273ffffffffffffffffffffffffffffffffffffffff16148015612d4a57508085612d478b611605565b03145b612d5357600080fd5b505050505050505050565b6040518060c00160405280600060ff168152602001600060ff168152602001600060ff168152602001600073ffffffffffffffffffffffffffffffffffffffff168152602001600073ffffffffffffffffffffffffffffffffffffffff168152602001600081525090565b600081359050612dd8816148d0565b92915050565b600081359050612ded816148e7565b92915050565b600081519050612e02816148e7565b92915050565b600082601f830112612e1957600080fd5b8135612e2c612e2782614449565b61441c565b91508181835260208401935060208101905083856020840282011115612e5157600080fd5b60005b83811015612e815781612e678882612dc9565b845260208401935060208301925050600181019050612e54565b5050505092915050565b600082601f830112612e9c57600080fd5b6002612eaf612eaa82614471565b61441c565b9150818360005b83811015612ee65781358601612ecc888261301f565b845260208401935060208301925050600181019050612eb6565b5050505092915050565b600082601f830112612f0157600080fd5b6002612f14612f0f82614493565b61441c565b9150818360005b83811015612f4b5781358601612f318882613116565b845260208401935060208301925050600181019050612f1b565b5050505092915050565b600082601f830112612f6657600080fd5b6002612f79612f74826144b5565b61441c565b9150818360005b83811015612fb05781358601612f96888261320d565b845260208401935060208301925050600181019050612f80565b5050505092915050565b600082601f830112612fcb57600080fd5b6002612fde612fd9826144d7565b61441c565b9150818360005b838110156130155781358601612ffb8882613290565b845260208401935060208301925050600181019050612fe5565b5050505092915050565b600082601f83011261303057600080fd5b813561304361303e826144f9565b61441c565b9150818183526020840193506020810190508385602084028201111561306857600080fd5b60005b83811015613098578161307e8882613313565b84526020840193506020830192505060018101905061306b565b5050505092915050565b600082601f8301126130b357600080fd5b60026130c66130c182614521565b61441c565b915081838560208402820111156130dc57600080fd5b60005b8381101561310c57816130f2888261333d565b8452602084019350602083019250506001810190506130df565b5050505092915050565b600082601f83011261312757600080fd5b813561313a61313582614543565b61441c565b9150818183526020840193506020810190508385602084028201111561315f57600080fd5b60005b8381101561318f5781613175888261333d565b845260208401935060208301925050600181019050613162565b5050505092915050565b600082601f8301126131aa57600080fd5b60026131bd6131b88261456b565b61441c565b915081838560208402820111156131d357600080fd5b60005b8381101561320357816131e988826133fa565b8452602084019350602083019250506001810190506131d6565b5050505092915050565b600082601f83011261321e57600080fd5b813561323161322c8261458d565b61441c565b9150818183526020840193506020810190508385602084028201111561325657600080fd5b60005b83811015613286578161326c88826133fa565b845260208401935060208301925050600181019050613259565b5050505092915050565b600082601f8301126132a157600080fd5b81356132b46132af826145b5565b61441c565b915081818352602084019350602081019050838560208402820111156132d957600080fd5b60005b8381101561330957816132ef8882613424565b8452602084019350602083019250506001810190506132dc565b5050505092915050565b600081359050613322816148fe565b92915050565b600081519050613337816148fe565b92915050565b60008135905061334c81614915565b92915050565b600082601f83011261336357600080fd5b8135613376613371826145dd565b61441c565b9150808252602083016020830185838301111561339257600080fd5b61339d838284614873565b50505092915050565b600082601f8301126133b757600080fd5b81356133ca6133c582614609565b61441c565b915080825260208301602083018583830111156133e657600080fd5b6133f1838284614873565b50505092915050565b6000813590506134098161492c565b92915050565b60008151905061341e8161492c565b92915050565b60008135905061343381614943565b92915050565b60006020828403121561344b57600080fd5b600061345984828501612dc9565b91505092915050565b60006020828403121561347457600080fd5b600061348284828501612dde565b91505092915050565b6000806040838503121561349e57600080fd5b60006134ac85828601612df3565b92505060206134bd8582860161340f565b9150509250929050565b600080604083850312156134da57600080fd5b60006134e885828601612dc9565b92505060206134f985828601612dc9565b9150509250929050565b60008060006060848603121561351857600080fd5b600061352686828701612dc9565b935050602061353786828701612dc9565b9250506040613548868287016133fa565b9150509250925092565b600080600080600080600060e0888a03121561356d57600080fd5b600061357b8a828b01612dc9565b975050602061358c8a828b016133fa565b965050604061359d8a828b01612dc9565b95505060606135ae8a828b01612dc9565b945050608088013567ffffffffffffffff8111156135cb57600080fd5b6135d78a828b01613352565b93505060a06135e88a828b0161333d565b92505060c088013567ffffffffffffffff81111561360557600080fd5b6136118a828b01613352565b91505092959891949750929550565b60008060006060848603121561363557600080fd5b600061364386828701612dc9565b9350506020613654868287016133fa565b925050604084013567ffffffffffffffff81111561367157600080fd5b61367d868287016133a6565b9150509250925092565b60006020828403121561369957600080fd5b600082013567ffffffffffffffff8111156136b357600080fd5b6136bf84828501612e08565b91505092915050565b6000602082840312156136da57600080fd5b60006136e884828501613328565b91505092915050565b60006020828403121561370357600080fd5b60006137118482850161333d565b91505092915050565b60006020828403121561372c57600080fd5b600082013567ffffffffffffffff81111561374657600080fd5b61375284828501613352565b91505092915050565b6000806000806000806000806000806101a08b8d03121561377b57600080fd5b60008b013567ffffffffffffffff81111561379557600080fd5b6137a18d828e01613352565b9a505060206137b28d828e01613199565b99505060608b013567ffffffffffffffff8111156137cf57600080fd5b6137db8d828e01612ef0565b98505060808b013567ffffffffffffffff8111156137f857600080fd5b6138048d828e01612e8b565b97505060a06138158d828e016130a2565b96505060e06138268d828e016130a2565b9550506101208b013567ffffffffffffffff81111561384457600080fd5b6138508d828e01612f55565b9450506101408b013567ffffffffffffffff81111561386e57600080fd5b61387a8d828e01612fba565b9350506101608b013567ffffffffffffffff81111561389857600080fd5b6138a48d828e01612ef0565b9250506101808b013567ffffffffffffffff8111156138c257600080fd5b6138ce8d828e01612ef0565b9150509295989b9194979a5092959850565b600080604083850312156138f357600080fd5b600083013567ffffffffffffffff81111561390d57600080fd5b61391985828601613352565b925050602061392a8582860161333d565b9150509250929050565b60006020828403121561394657600080fd5b600082013567ffffffffffffffff81111561396057600080fd5b61396c848285016133a6565b91505092915050565b600080600080600060a0868803121561398d57600080fd5b600086013567ffffffffffffffff8111156139a757600080fd5b6139b3888289016133a6565b95505060206139c488828901612dc9565b94505060406139d5888289016133fa565b935050606086013567ffffffffffffffff8111156139f257600080fd5b6139fe88828901613352565b9250506080613a0f8882890161333d565b9150509295509295909350565b600060208284031215613a2e57600080fd5b6000613a3c848285016133fa565b91505092915050565b600060208284031215613a5757600080fd5b6000613a658482850161340f565b91505092915050565b6000613a7a8383613b04565b60208301905092915050565b6000613a928383613cf8565b60208301905092915050565b6000613aaa8383613d16565b60208301905092915050565b6000613ac28383613f3c565b60208301905092915050565b6000613ada8383613f71565b60208301905092915050565b613aef816147f5565b82525050565b613afe81614796565b82525050565b613b0d81614784565b82525050565b613b1c81614784565b82525050565b6000613b2d82614685565b613b378185614713565b9350613b4283614635565b8060005b83811015613b73578151613b5a8882613a6e565b9750613b65836146d2565b925050600181019050613b46565b5085935050505092915050565b6000613b8b82614690565b613b958185614724565b9350613ba083614645565b8060005b83811015613bd1578151613bb88882613a86565b9750613bc3836146df565b925050600181019050613ba4565b5085935050505092915050565b6000613be98261469b565b613bf38185614735565b9350613bfe83614655565b8060005b83811015613c2f578151613c168882613a9e565b9750613c21836146ec565b925050600181019050613c02565b5085935050505092915050565b6000613c47826146a6565b613c518185614746565b9350613c5c83614665565b8060005b83811015613c8d578151613c748882613ab6565b9750613c7f836146f9565b925050600181019050613c60565b5085935050505092915050565b6000613ca5826146b1565b613caf8185614757565b9350613cba83614675565b8060005b83811015613ceb578151613cd28882613ace565b9750613cdd83614706565b925050600181019050613cbe565b5085935050505092915050565b613d01816147a8565b82525050565b613d10816147a8565b82525050565b613d1f816147b4565b82525050565b613d2e816147b4565b82525050565b6000613d3f826146bc565b613d498185614768565b9350613d59818560208601614882565b80840191505092915050565b613d6e81614807565b82525050565b613d7d8161482b565b82525050565b6000613d8e826146c7565b613d988185614773565b9350613da8818560208601614882565b613db1816148bf565b840191505092915050565b6000613dc9601483614773565b91507f6e6f7420706175736564207269676874206e6f770000000000000000000000006000830152602082019050919050565b6000613e09600783614773565b91507f65787069726564000000000000000000000000000000000000000000000000006000830152602082019050919050565b6000613e49601a83614773565b91507f63616e6e6f7420657874656e6420666f7220746f6f206c6f6e670000000000006000830152602082019050919050565b6000613e89600c83614773565b91507f756e617574686f72697a656400000000000000000000000000000000000000006000830152602082019050919050565b6000613ec9601083614773565b91507f706175736564207269676874206e6f77000000000000000000000000000000006000830152602082019050919050565b6000613f09600983614773565b91507f6e6f742061646d696e00000000000000000000000000000000000000000000006000830152602082019050919050565b613f45816147de565b82525050565b613f54816147de565b82525050565b613f6b613f66826147de565b6148b5565b82525050565b613f7a816147e8565b82525050565b613f89816147e8565b82525050565b6000613f9b8284613d34565b915081905092915050565b6000613fb28285613d34565b9150613fbe8284613f5a565b6020820191508190509392505050565b6000602082019050613fe36000830184613b13565b92915050565b6000602082019050613ffe6000830184613ae6565b92915050565b60006020820190506140196000830184613af5565b92915050565b60006060820190506140346000830186613ae6565b6140416020830185613ae6565b61404e6040830184613f4b565b949350505050565b600060408201905061406b6000830185613ae6565b6140786020830184613f4b565b9392505050565b60006060820190506140946000830186613b13565b6140a16020830185613ae6565b6140ae6040830184613f4b565b949350505050565b60006060820190506140cb6000830186613b13565b81810360208301526140dd8185613d83565b90506140ec6040830184613f4b565b949350505050565b60006040820190506141096000830185613b13565b6141166020830184613f4b565b9392505050565b600060208201905081810360008301526141378184613b22565b905092915050565b60006020820190506141546000830184613d07565b92915050565b600061016082019050614170600083018e613d07565b61417d602083018d613d25565b61418a604083018c613f4b565b818103606083015261419c818b613bde565b905081810360808301526141b0818a613b80565b90506141bf60a0830189613d25565b6141cc60c0830188613d25565b81810360e08301526141de8187613c3c565b90508181036101008301526141f38186613c9a565b90508181036101208301526142088185613bde565b905081810361014083015261421d8184613bde565b90509c9b505050505050505050505050565b60006020820190506142446000830184613d25565b92915050565b600060808201905061425f6000830187613d25565b61426c6020830186613f80565b6142796040830185613d25565b6142866060830184613d25565b95945050505050565b60006020820190506142a46000830184613d65565b92915050565b60006020820190506142bf6000830184613d74565b92915050565b600060208201905081810360008301526142de81613dbc565b9050919050565b600060208201905081810360008301526142fe81613dfc565b9050919050565b6000602082019050818103600083015261431e81613e3c565b9050919050565b6000602082019050818103600083015261433e81613e7c565b9050919050565b6000602082019050818103600083015261435e81613ebc565b9050919050565b6000602082019050818103600083015261437e81613efc565b9050919050565b600060208201905061439a6000830184613f4b565b92915050565b60006020820190506143b56000830184613f80565b92915050565b600060c0820190506143d06000830189613f80565b6143dd6020830188613f80565b6143ea6040830187613f80565b6143f76060830186613b13565b6144046080830185613af5565b61441160a0830184613f4b565b979650505050505050565b6000604051905081810181811067ffffffffffffffff8211171561443f57600080fd5b8060405250919050565b600067ffffffffffffffff82111561446057600080fd5b602082029050602081019050919050565b600067ffffffffffffffff82111561448857600080fd5b602082029050919050565b600067ffffffffffffffff8211156144aa57600080fd5b602082029050919050565b600067ffffffffffffffff8211156144cc57600080fd5b602082029050919050565b600067ffffffffffffffff8211156144ee57600080fd5b602082029050919050565b600067ffffffffffffffff82111561451057600080fd5b602082029050602081019050919050565b600067ffffffffffffffff82111561453857600080fd5b602082029050919050565b600067ffffffffffffffff82111561455a57600080fd5b602082029050602081019050919050565b600067ffffffffffffffff82111561458257600080fd5b602082029050919050565b600067ffffffffffffffff8211156145a457600080fd5b602082029050602081019050919050565b600067ffffffffffffffff8211156145cc57600080fd5b602082029050602081019050919050565b600067ffffffffffffffff8211156145f457600080fd5b601f19601f8301169050602081019050919050565b600067ffffffffffffffff82111561462057600080fd5b601f19601f8301169050602081019050919050565b6000819050602082019050919050565b6000819050602082019050919050565b6000819050602082019050919050565b6000819050602082019050919050565b6000819050602082019050919050565b600081519050919050565b600081519050919050565b600081519050919050565b600081519050919050565b600081519050919050565b600081519050919050565b600081519050919050565b6000602082019050919050565b6000602082019050919050565b6000602082019050919050565b6000602082019050919050565b6000602082019050919050565b600082825260208201905092915050565b600082825260208201905092915050565b600082825260208201905092915050565b600082825260208201905092915050565b600082825260208201905092915050565b600081905092915050565b600082825260208201905092915050565b600061478f826147be565b9050919050565b60006147a1826147be565b9050919050565b60008115159050919050565b6000819050919050565b600073ffffffffffffffffffffffffffffffffffffffff82169050919050565b6000819050919050565b600060ff82169050919050565b60006148008261484f565b9050919050565b600061481282614819565b9050919050565b6000614824826147be565b9050919050565b60006148368261483d565b9050919050565b6000614848826147be565b9050919050565b600061485a82614861565b9050919050565b600061486c826147be565b9050919050565b82818337600083830152505050565b60005b838110156148a0578082015181840152602081019050614885565b838111156148af576000848401525b50505050565b6000819050919050565b6000601f19601f8301169050919050565b6148d981614784565b81146148e457600080fd5b50565b6148f081614796565b81146148fb57600080fd5b50565b614907816147a8565b811461491257600080fd5b50565b61491e816147b4565b811461492957600080fd5b50565b614935816147de565b811461494057600080fd5b50565b61494c816147e8565b811461495757600080fd5b5056fea365627a7a723158200a87e5f336a642721edca69d5e2094c8ec210fd84c5d05673e34a9ef31e931d26c6578706572696d656e74616cf564736f6c63430005100040",
  "source": "pragma solidity ^0.5.12;\npragma experimental ABIEncoderV2;\n\nimport \"./IERC20.sol\";\nimport \"./pause.sol\";\n\n/**\n * @dev Interface of the contract capable of checking if an instruction is\n * confirmed over at Incognito Chain\n */\ncontract Incognito {\n    function instructionApproved(\n        bool,\n        bytes32,\n        uint,\n        bytes32[] memory,\n        bool[] memory,\n        bytes32,\n        bytes32,\n        uint[] memory,\n        uint8[] memory,\n        bytes32[] memory,\n        bytes32[] memory\n    ) public view returns (bool);\n}\n\n/**\n * @dev Interface of the previous Vault contract to query burn proof status\n */\ncontract Withdrawable {\n    function isWithdrawed(bytes32) public view returns (bool);\n}\n\n/**\n * @dev Responsible for holding the assets and issue minting instruction to\n * Incognito Chain. Also, when presented with a burn proof created over at\n * Incognito Chain, releases the tokens back to user\n */\ncontract IncognitoMode is AdminPausable {\n    address constant public ETH_TOKEN = 0x0000000000000000000000000000000000000000;\n    mapping(bytes32 => bool) public withdrawed;\n\n    // withdrawRequests store pending withdrawn requests which specify how many token amount that an address can withdraw.\n    mapping(address => mapping(address => uint)) public withdrawRequests;\n\n    Incognito public incognito;\n    Withdrawable public prevVault;\n    address payable public newVault;\n\n    event Deposit(address token, string incognitoAddress, uint amount);\n    event Withdraw(address token, address to, uint amount);\n    event WithdrawRequest(address token, string incognitoAddress, uint amount);\n    event Migrate(address newVault);\n    event MoveAssets(address[] assets);\n    event UpdateIncognitoProxy(address newIncognitoProxy);\n    event Trade(string incognitoAddress, address token, uint amount);\n    \n    struct BurnInst {\n        uint8 flag;\n        uint8 meta;\n        uint8 shard;\n        address token;\n        address payable to;\n        uint burned;\n    }\n\n    /**\n     * @dev Creates new Vault to hold assets for Incognito Chain\n     * @param admin: authorized address to Pause and migrate contract\n     * @param incognitoProxyAddress: contract containing Incognito's committees\n     * @param _prevVault: previous version of the Vault to refer back if necessary\n     * After migrating all assets to a new Vault, we still need to refer\n     * back to previous Vault to make sure old withdrawals aren't being reused\n     */\n    constructor(address admin, address incognitoProxyAddress, address _prevVault) public AdminPausable(admin) {\n        incognito = Incognito(incognitoProxyAddress);\n        prevVault = Withdrawable(_prevVault);\n        newVault = address(0);\n    }\n\n    /**\n     * @dev Makes a ETH deposit to the vault to mint pETH over at Incognito Chain\n     * @notice This only works when the contract is not Paused\n     * @notice The maximum amount to deposit is capped since Incognito balance is stored as uint64\n     * @param incognitoAddress: Incognito Address to receive pETH\n     */\n    function deposit(string memory incognitoAddress) public payable isNotPaused {\n        // require((msg.value + address(this).balance) <= 10 ** 27, \"Balance of this contract has been reaching to its uint's maximum.\");\n        require(address(this).balance <= 10 ** 27);\n        emit Deposit(ETH_TOKEN, incognitoAddress, msg.value);\n    }\n\n    /**\n     * @dev Makes a ERC20 deposit to the vault to mint pERC20 over at Incognito Chain\n     * @notice This only works when the contract is not Paused\n     * @notice The maximum amount to deposit is capped since Incognito balance is stored as uint64\n     * @notice Before calling this function, enough ERC20 must be allowed to\n     * tranfer from msg.sender to this contract\n     * @param token: address of the ERC20 token\n     * @param amount: to deposit to the vault and mint on Incognito Chain\n     * @param incognitoAddress: Incognito Address to receive pERC20\n     */\n    function depositERC20(address token, uint amount, string memory incognitoAddress) public payable isNotPaused {\n        ERC20 erc20Interface = ERC20(token);\n        uint8 decimals = getDecimals(address(token));\n        uint tokenBalance = erc20Interface.balanceOf(address(this));\n        uint emitAmount = amount;\n        if (decimals > 9) {\n            emitAmount = emitAmount / (10 ** (uint(decimals) - 9));\n            tokenBalance = tokenBalance / (10 ** (uint(decimals) - 9));\n        }\n        require(emitAmount <= 10 ** 18 && tokenBalance <= 10 ** 18 && emitAmount + tokenBalance <= 10 ** 18);\n\n        erc20Interface.transferFrom(msg.sender, address(this), amount);\n        require(checkSuccess());\n        emit Deposit(token, incognitoAddress, emitAmount);\n    }\n\n    /**\n     * @dev Checks if a burn proof has been used before\n     * @notice First, we check inside the storage of this contract itself. If the\n     * hash has been used before, we return the result. Otherwise, we query\n     * previous vault recursively until the first Vault (prevVault address is 0x0)\n     * @param hash: of the burn proof\n     * @return bool: whether the proof has been used or not\n     */\n    function isWithdrawed(bytes32 hash) public view returns(bool) {\n        if (withdrawed[hash]) {\n            return true;\n        } else if (address(prevVault) == address(0)) {\n            return false;\n        }\n        return prevVault.isWithdrawed(hash);\n    }\n\n    /**\n     * @dev Parses a burn instruction and returns individual components\n     * @param inst: the full instruction, containing both metadata and body\n     * @return flag: \n     * @return meta: type of the instruction, 72 for burning instruction\n     * @return shard: ID of the Incognito shard containing the instruction, must be 1\n     * @return token: ETH address of the token contract (0x0 for ETH)\n     * @return to: ETH address of the receiver of the token\n     * @return amount: of tokens to return\n     */\n    function parseBurnInst(bytes memory inst) public pure returns (uint8, uint8, uint8, address, address payable, uint) {\n        uint8 flag = uint8(inst[0]);\n        uint8 meta = uint8(inst[1]);\n        uint8 shard = uint8(inst[2]);\n        address token;\n        address payable to;\n        uint amount;\n        assembly {\n            // skip first 0x20 bytes (stored length of inst)\n            token := mload(add(inst, 0x23)) // [3:35]\n            to := mload(add(inst, 0x43)) // [35:67]\n            amount := mload(add(inst, 0x63)) // [67:99]\n        }\n        return (flag, meta, shard, token, to, amount);\n    }\n    \n    /**\n     * @dev returns BurnInst object.\n     * @param inst: the full instruction, containing both metadata and body\n     */\n    function getBurnInst(bytes memory inst) internal pure returns (BurnInst memory) {\n        (uint8 flag, uint8 meta, uint8 shard, address token, address payable to, uint burned) = parseBurnInst(inst);\n        BurnInst memory burnInst = BurnInst({flag: flag, meta: meta, shard: shard, token: token, to: to, burned: burned});\n        return burnInst;\n    }\n\n    /**\n     * @dev Verifies that a burn instruction is valid\n     * @notice All params except inst are the list of 2 elements corresponding to\n     * the proof on beacon and bridge\n     * @notice All params are the same as in `withdraw`\n     */\n    function verifyInst(\n        bytes memory inst,\n        uint[2] memory heights,\n        bytes32[][2] memory instPaths,\n        bool[][2] memory instPathIsLefts,\n        bytes32[2] memory instRoots,\n        bytes32[2] memory blkData,\n        uint[][2] memory sigIdxs,\n        uint8[][2] memory sigVs,\n        bytes32[][2] memory sigRs,\n        bytes32[][2] memory sigSs\n    ) internal {\n        // Each instruction can only by redeemed once\n        bytes32 instHash = keccak256(inst);\n        bytes32 beaconInstHash = keccak256(abi.encodePacked(inst, heights[0]));\n        bytes32 bridgeInstHash = keccak256(abi.encodePacked(inst, heights[1]));\n        require(!isWithdrawed(instHash));\n\n        // Verify instruction on beacon\n        require(incognito.instructionApproved(\n            true,\n            beaconInstHash,\n            heights[0],\n            instPaths[0],\n            instPathIsLefts[0],\n            instRoots[0],\n            blkData[0],\n            sigIdxs[0],\n            sigVs[0],\n            sigRs[0],\n            sigSs[0]\n        ));\n\n        // Verify instruction on bridge\n        require(incognito.instructionApproved(\n            false,\n            bridgeInstHash,\n            heights[1],\n            instPaths[1],\n            instPathIsLefts[1],\n            instRoots[1],\n            blkData[1],\n            sigIdxs[1],\n            sigVs[1],\n            sigRs[1],\n            sigSs[1]\n        ));\n        withdrawed[instHash] = true;\n    }\n\n    /**\n     * @dev Withdraws pETH/pERC20 by providing a burn proof over at Incognito Chain\n     * @notice This function takes a burn instruction on Incognito Chain, checks\n     * for its validity and returns the token back to ETH chain\n     * @notice This only works when the contract is not Paused\n     * @notice All params except inst are the list of 2 elements corresponding to\n     * the proof on beacon and bridge\n     * @param inst: the decoded instruction as a list of bytes\n     * @param heights: the blocks containing the instruction\n     * @param instPaths: merkle path of the instruction\n     * @param instPathIsLefts: whether each node on the path is the left or right child\n     * @param instRoots: root of the merkle tree contains all instructions\n     * @param blkData: merkle has of the block body\n     * @param sigIdxs: indices of the validators who signed this block\n     * @param sigVs: part of the signatures of the validators\n     * @param sigRs: part of the signatures of the validators\n     * @param sigSs: part of the signatures of the validators\n     */\n    function withdraw(\n        bytes memory inst,\n        uint[2] memory heights,\n        bytes32[][2] memory instPaths,\n        bool[][2] memory instPathIsLefts,\n        bytes32[2] memory instRoots,\n        bytes32[2] memory blkData,\n        uint[][2] memory sigIdxs,\n        uint8[][2] memory sigVs,\n        bytes32[][2] memory sigRs,\n        bytes32[][2] memory sigSs\n    ) public isNotPaused {\n        BurnInst memory burnInst = getBurnInst(inst);\n        require(burnInst.meta == 72 && burnInst.shard == 1); // Check instruction type\n\n        // Check if balance is enough\n        if (burnInst.token == ETH_TOKEN) {\n            require(address(this).balance >= burnInst.burned);\n        } else {\n            uint8 decimals = getDecimals(burnInst.token);\n            if (decimals > 9) {\n                burnInst.burned = burnInst.burned * (10 ** (uint(decimals) - 9));\n            }\n            require(ERC20(burnInst.token).balanceOf(address(this)) >= burnInst.burned);\n        }\n\n        verifyInst(\n            inst,\n            heights,\n            instPaths,\n            instPathIsLefts,\n            instRoots,\n            blkData,\n            sigIdxs,\n            sigVs,\n            sigRs,\n            sigSs\n        );\n\n        // Send and notify\n        if (burnInst.token == ETH_TOKEN) {\n            burnInst.to.transfer(burnInst.burned);\n        } else {\n            ERC20(burnInst.token).transfer(burnInst.to, burnInst.burned);\n            require(checkSuccess());\n        }\n        emit Withdraw(burnInst.token, burnInst.to, burnInst.burned);\n    }\n\n    /**\n     * @dev Burnt Proof is submited to store burnt amount of p-token/p-ETH and receiver's address\n     * Receiver then can call withdrawRequest to withdraw these token to he/she incognito address.\n     * @notice This function takes a burn instruction on Incognito Chain, checks\n     * for its validity and returns the token back to ETH chain\n     * @notice This only works when the contract is not Paused\n     * @notice All params except inst are the list of 2 elements corresponding to\n     * the proof on beacon and bridge\n     * @param inst: the decoded instruction as a list of bytes\n     * @param heights: the blocks containing the instruction\n     * @param instPaths: merkle path of the instruction\n     * @param instPathIsLefts: whether each node on the path is the left or right child\n     * @param instRoots: root of the merkle tree contains all instructions\n     * @param blkData: merkle has of the block body\n     * @param sigIdxs: indices of the validators who signed this block\n     * @param sigVs: part of the signatures of the validators\n     * @param sigRs: part of the signatures of the validators\n     * @param sigSs: part of the signatures of the validators\n     */\n    function submitBurnProof(\n        bytes memory inst,\n        uint[2] memory heights,\n        bytes32[][2] memory instPaths,\n        bool[][2] memory instPathIsLefts,\n        bytes32[2] memory instRoots,\n        bytes32[2] memory blkData,\n        uint[][2] memory sigIdxs,\n        uint8[][2] memory sigVs,\n        bytes32[][2] memory sigRs,\n        bytes32[][2] memory sigSs\n    ) public isNotPaused {\n        BurnInst memory burnInst = getBurnInst(inst);\n        require(burnInst.meta == 72 && burnInst.shard == 1); // Check instruction type\n        // Check if balance is enough\n        if (burnInst.token == ETH_TOKEN) {\n            require(address(this).balance >= burnInst.burned);\n        } else {\n            uint8 decimals = getDecimals(burnInst.token);\n            if (decimals > 9) {\n                burnInst.burned = burnInst.burned * (10 ** (uint(decimals) - 9));\n            }\n            require(ERC20(burnInst.token).balanceOf(address(this)) >= burnInst.burned);\n        }\n\n        verifyInst(\n            inst,\n            heights,\n            instPaths,\n            instPathIsLefts,\n            instRoots,\n            blkData,\n            sigIdxs,\n            sigVs,\n            sigRs,\n            sigSs\n        );\n\n        withdrawRequests[burnInst.to][burnInst.token] += burnInst.burned;\n    }\n    \n    /**\n     * @dev generate address from signature data and hash.\n     */\n    function sigToAddress(bytes memory signData, bytes32 hash) public pure returns (address) {\n        bytes32 s;\n        bytes32 r;\n        uint8 v;\n        assembly {\n            r := mload(add(signData, 0x20))\n            s := mload(add(signData, 0x40))\n        }\n        v = uint8(signData[64]) + 27;\n        return ecrecover(hash, v, r, s);\n    }\n\n    /**\n     * @dev User requests withdraw token contains in withdrawRequests.\n     * WithdrawRequest event will be emitted to let incognito recognize and mint new p-tokens for the user.\n     * @param incognitoAddress: incognito's address that will receive minted p-tokens.\n     */\n    function requestWithdraw(string memory incognitoAddress, address token, uint amount, bytes memory signData, bytes32 hash) public {\n        address verifier = sigToAddress(signData, hash);\n        require(withdrawRequests[verifier][token] >= amount);\n        withdrawRequests[verifier][token] -= amount;\n        emit Deposit(token, incognitoAddress, amount);\n    }\n\n    /**\n     * @dev execute is used when users want to trade their tokens to other tokens.\n     * @param recipientToken: received token address.\n     * @param exchangeAddress: exchange address that execute trade process.\n     * @param callData: encoded with signature and params of trade function.\n     * @param hash:\n     * @param signData:\n     */\n    function execute(\n        address token,\n        uint amount,\n        address recipientToken,\n        address exchangeAddress,\n        bytes memory callData,\n        bytes32 hash,\n        bytes memory signData\n    ) public payable {\n        address verifier = sigToAddress(signData, hash);\n        \n        require(withdrawRequests[verifier][token] >= amount);\n        require(token != recipientToken);\n\n        // define number of eth spent for forwarder.\n        uint ethAmount = msg.value;\n        if (token == ETH_TOKEN) {\n            ethAmount += amount;\n        } else {\n            // transfer token to exchangeAddress.\n            require(ERC20(token).balanceOf(address(this)) >= amount);\n            require(ERC20(token).transfer(exchangeAddress, amount));\n        }\n\n        trade(recipientToken, ethAmount, callData, exchangeAddress);\n\n        // update withdrawRequests\n        withdrawRequests[verifier][token] -= amount;\n        withdrawRequests[verifier][recipientToken] += amount;\n    }\n    \n    function trade(address recipientToken, uint ethAmount, bytes memory callData, address exchangeAddress) internal {\n         // get balance of recipient token before trade to compare after trade.\n        uint balanceBeforeTrade = balanceOf(recipientToken);\n        if (recipientToken == ETH_TOKEN) {\n            balanceBeforeTrade -= msg.value;\n        }\n        require(address(this).balance >= ethAmount);\n        (bool success, bytes memory result) = exchangeAddress.call.value(ethAmount)(callData);\n\n        require(success);\n        (address returnedTokenAddress, uint returnedAmount) = abi.decode(result, (address, uint));\n\n        require(returnedTokenAddress == recipientToken && balanceOf(recipientToken) - balanceBeforeTrade == returnedAmount);\n    }\n\n    /**\n     * NOTE: This function is used for testing purpose only, remove/comment this function after used.\n     */\n    function setAmount(address verifier, address sellToken, uint amount) public {\n        withdrawRequests[verifier][sellToken] = amount;\n    }\n\n    /**\n     * @dev Saves the address of the new Vault to migrate assets to\n     * @notice In case of emergency, Admin will Pause the contract, shutting down\n     * all incoming transactions. After a new contract with the fix is deployed,\n     * they will migrate assets to it and allow normal operations to resume\n     * @notice This only works when the contract is Paused\n     * @notice This can only be called by Admin\n     * @param _newVault: address to save\n     */\n    function migrate(address payable _newVault) public onlyAdmin isPaused {\n        require(_newVault != address(0));\n        newVault = _newVault;\n        emit Migrate(_newVault);\n    }\n\n    /**\n     * @dev Move some assets to newVault\n     * @notice This only works when the contract is Paused\n     * @notice This can only be called by Admin\n     * @param assets: address of the ERC20 tokens to move, 0x0 for ETH\n     */\n    function moveAssets(address[] memory assets) public onlyAdmin isPaused {\n        require(newVault != address(0));\n        for (uint i = 0; i < assets.length; i++) {\n            if (assets[i] == ETH_TOKEN) {\n                newVault.transfer(address(this).balance);\n            } else {\n                uint bal = ERC20(assets[i]).balanceOf(address(this));\n                if (bal > 0) {\n                    ERC20(assets[i]).transfer(newVault, bal);\n                    require(checkSuccess());\n                }\n            }\n        }\n        emit MoveAssets(assets);\n    }\n\n    /**\n     * @dev Changes the IncognitoProxy to use\n     * @notice If the IncognitoProxy contract malfunctioned, Admin could config\n     * the Vault to use a new fixed IncognitoProxy contract\n     * @notice This only works when the contract is Paused\n     * @notice This can only be called by Admin\n     * @param newIncognitoProxy: address of the new contract\n     */\n    function updateIncognitoProxy(address newIncognitoProxy) public onlyAdmin isPaused {\n        require(newIncognitoProxy != address(0));\n        incognito = Incognito(newIncognitoProxy);\n        emit UpdateIncognitoProxy(newIncognitoProxy);\n    }\n\n    /**\n     * @dev Payable Fallback function to receive Ether from oldVault when migrating\n     */\n    function () external payable {}\n\n    /**\n     * @dev Check if transfer() and transferFrom() of ERC20 succeeded or not\n     * This check is needed to fix https://github.com/ethereum/solidity/issues/4116\n     * This function is copied from https://github.com/AdExNetwork/adex-protocol-eth/blob/master/contracts/libs/SafeERC20.sol\n     */\n    function checkSuccess() private pure returns (bool) {\n        uint256 returnValue = 0;\n\n        assembly {\n            // check number of bytes returned from last function call\n            switch returndatasize\n\n            // no bytes returned: assume success\n            case 0x0 {\n                returnValue := 1\n            }\n\n            // 32 bytes returned: check if non-zero\n            case 0x20 {\n                // copy 32 bytes into scratch space\n                returndatacopy(0x0, 0x0, 0x20)\n\n                // load those bytes into returnValue\n                returnValue := mload(0x0)\n            }\n\n            // not sure what was returned: don't mark as success\n            default { }\n        }\n        return returnValue != 0;\n    }\n\n    /**\n     * @dev Get the decimals of an ERC20 token, return 0 if it isn't defined\n     * We check the returndatasize to covert both cases that the token has\n     * and doesn't have the function decimals()\n     */\n    function getDecimals(address token) public view returns (uint8) {\n        ERC20 erc20 = ERC20(token);\n        uint256 returnValue = 0;\n        erc20.decimals();\n\n        assembly {\n            // check number of bytes returned from last function call\n            switch returndatasize\n\n            // no bytes returned: zero decimals\n            case 0x0 {\n                returnValue := 0\n            }\n\n            // For uint8, the returndatasize is still 32 bytes\n            // 32 bytes returned: check if non-zero\n            case 0x20 {\n                // copy 32 bytes into scratch space\n                returndatacopy(0x0, 0x0, 0x20)\n\n                // load those bytes into returnValue\n                returnValue := mload(0x0)\n            }\n\n            // not sure what was returned: don't mark as success\n            default {\n                returnValue := 0\n            }\n        }\n        return uint8(returnValue);\n    }\n\n    function balanceOf(address token) public view returns (uint) {\n        if (token == ETH_TOKEN) {\n            return address(this).balance;\n        }\n        return ERC20(token).balanceOf(address(this));\n    }\n}\n",
  "sourcePath": "/Users/mac/coding/0x-interaction/contracts/IncognitoMode.sol",
  "compiler": {
    "name": "solc",
    "version": "0.5.16+commit.9c3226ce.Emscripten.clang"
  },
  "schemaVersion": "3.0.23",
  "updatedAt": "2020-02-19T03:47:12.130Z",
  "devdoc": {
    "details": "Responsible for holding the assets and issue minting instruction to Incognito Chain. Also, when presented with a burn proof created over at Incognito Chain, releases the tokens back to user",
    "methods": {
      "constructor": {
        "details": "Creates new Vault to hold assets for Incognito Chain",
        "params": {
          "_prevVault": ": previous version of the Vault to refer back if necessary After migrating all assets to a new Vault, we still need to refer back to previous Vault to make sure old withdrawals aren't being reused",
          "admin": ": authorized address to Pause and migrate contract",
          "incognitoProxyAddress": ": contract containing Incognito's committees"
        }
      },
      "deposit(string)": {
        "details": "Makes a ETH deposit to the vault to mint pETH over at Incognito Chain",
        "params": {
          "incognitoAddress": ": Incognito Address to receive pETH"
        }
      },
      "depositERC20(address,uint256,string)": {
        "details": "Makes a ERC20 deposit to the vault to mint pERC20 over at Incognito Chain",
        "params": {
          "amount": ": to deposit to the vault and mint on Incognito Chain",
          "incognitoAddress": ": Incognito Address to receive pERC20",
          "token": ": address of the ERC20 token"
        }
      },
      "execute(address,uint256,address,address,bytes,bytes32,bytes)": {
        "details": "execute is used when users want to trade their tokens to other tokens.",
        "params": {
          "callData": ": encoded with signature and params of trade function.",
          "exchangeAddress": ": exchange address that execute trade process.",
          "hash": ":",
          "recipientToken": ": received token address.",
          "signData": ":"
        }
      },
      "getDecimals(address)": {
        "details": "Get the decimals of an ERC20 token, return 0 if it isn't defined We check the returndatasize to covert both cases that the token has and doesn't have the function decimals()"
      },
      "isWithdrawed(bytes32)": {
        "details": "Checks if a burn proof has been used before",
        "params": {
          "hash": ": of the burn proof"
        },
        "return": "bool: whether the proof has been used or not"
      },
      "migrate(address)": {
        "details": "Saves the address of the new Vault to migrate assets to",
        "params": {
          "_newVault": ": address to save"
        }
      },
      "moveAssets(address[])": {
        "details": "Move some assets to newVault",
        "params": {
          "assets": ": address of the ERC20 tokens to move, 0x0 for ETH"
        }
      },
      "parseBurnInst(bytes)": {
        "details": "Parses a burn instruction and returns individual components",
        "params": {
          "inst": ": the full instruction, containing both metadata and body"
        },
        "return": "flag: meta: type of the instruction, 72 for burning instructionshard: ID of the Incognito shard containing the instruction, must be 1token: ETH address of the token contract (0x0 for ETH)to: ETH address of the receiver of the tokenamount: of tokens to return"
      },
      "requestWithdraw(string,address,uint256,bytes,bytes32)": {
        "details": "User requests withdraw token contains in withdrawRequests. WithdrawRequest event will be emitted to let incognito recognize and mint new p-tokens for the user.",
        "params": {
          "incognitoAddress": ": incognito's address that will receive minted p-tokens."
        }
      },
      "sigToAddress(bytes,bytes32)": {
        "details": "generate address from signature data and hash."
      },
      "submitBurnProof(bytes,uint256[2],bytes32[][2],bool[][2],bytes32[2],bytes32[2],uint256[][2],uint8[][2],bytes32[][2],bytes32[][2])": {
        "details": "Burnt Proof is submited to store burnt amount of p-token/p-ETH and receiver's address Receiver then can call withdrawRequest to withdraw these token to he/she incognito address.",
        "params": {
          "blkData": ": merkle has of the block body",
          "heights": ": the blocks containing the instruction",
          "inst": ": the decoded instruction as a list of bytes",
          "instPathIsLefts": ": whether each node on the path is the left or right child",
          "instPaths": ": merkle path of the instruction",
          "instRoots": ": root of the merkle tree contains all instructions",
          "sigIdxs": ": indices of the validators who signed this block",
          "sigRs": ": part of the signatures of the validators",
          "sigSs": ": part of the signatures of the validators",
          "sigVs": ": part of the signatures of the validators"
        }
      },
      "updateIncognitoProxy(address)": {
        "details": "Changes the IncognitoProxy to use",
        "params": {
          "newIncognitoProxy": ": address of the new contract"
        }
      },
      "withdraw(bytes,uint256[2],bytes32[][2],bool[][2],bytes32[2],bytes32[2],uint256[][2],uint8[][2],bytes32[][2],bytes32[][2])": {
        "details": "Withdraws pETH/pERC20 by providing a burn proof over at Incognito Chain",
        "params": {
          "blkData": ": merkle has of the block body",
          "heights": ": the blocks containing the instruction",
          "inst": ": the decoded instruction as a list of bytes",
          "instPathIsLefts": ": whether each node on the path is the left or right child",
          "instPaths": ": merkle path of the instruction",
          "instRoots": ": root of the merkle tree contains all instructions",
          "sigIdxs": ": indices of the validators who signed this block",
          "sigRs": ": part of the signatures of the validators",
          "sigSs": ": part of the signatures of the validators",
          "sigVs": ": part of the signatures of the validators"
        }
      }
    }
  },
  "userdoc": {
    "methods": {
      "deposit(string)": {
        "notice": "This only works when the contract is not PausedThe maximum amount to deposit is capped since Incognito balance is stored as uint64"
      },
      "depositERC20(address,uint256,string)": {
        "notice": "This only works when the contract is not PausedThe maximum amount to deposit is capped since Incognito balance is stored as uint64Before calling this function, enough ERC20 must be allowed to tranfer from msg.sender to this contract"
      },
      "isWithdrawed(bytes32)": {
        "notice": "First, we check inside the storage of this contract itself. If the hash has been used before, we return the result. Otherwise, we query previous vault recursively until the first Vault (prevVault address is 0x0)"
      },
      "migrate(address)": {
        "notice": "In case of emergency, Admin will Pause the contract, shutting down all incoming transactions. After a new contract with the fix is deployed, they will migrate assets to it and allow normal operations to resumeThis only works when the contract is PausedThis can only be called by Admin"
      },
      "moveAssets(address[])": {
        "notice": "This only works when the contract is PausedThis can only be called by Admin"
      },
      "setAmount(address,address,uint256)": {
        "notice": "NOTE: This function is used for testing purpose only, remove/comment this function after used."
      },
      "submitBurnProof(bytes,uint256[2],bytes32[][2],bool[][2],bytes32[2],bytes32[2],uint256[][2],uint8[][2],bytes32[][2],bytes32[][2])": {
        "notice": "This function takes a burn instruction on Incognito Chain, checks for its validity and returns the token back to ETH chainThis only works when the contract is not PausedAll params except inst are the list of 2 elements corresponding to the proof on beacon and bridge"
      },
      "updateIncognitoProxy(address)": {
        "notice": "If the IncognitoProxy contract malfunctioned, Admin could config the Vault to use a new fixed IncognitoProxy contractThis only works when the contract is PausedThis can only be called by Admin"
      },
      "withdraw(bytes,uint256[2],bytes32[][2],bool[][2],bytes32[2],bytes32[2],uint256[][2],uint8[][2],bytes32[][2],bytes32[][2])": {
        "notice": "This function takes a burn instruction on Incognito Chain, checks for its validity and returns the token back to ETH chainThis only works when the contract is not PausedAll params except inst are the list of 2 elements corresponding to the proof on beacon and bridge"
      }
    }
  }
}