{
  "contractName": "IncognitoProxy",
  "abi": [
    {
      "inputs": [
        {
          "internalType": "address",
          "name": "admin",
          "type": "address"
        },
        {
          "internalType": "address[]",
          "name": "beaconCommittee",
          "type": "address[]"
        },
        {
          "internalType": "address[]",
          "name": "bridgeCommittee",
          "type": "address[]"
        }
      ],
      "payable": false,
      "stateMutability": "nonpayable",
      "type": "constructor"
    },
    {
      "anonymous": false,
      "inputs": [
        {
          "indexed": false,
          "internalType": "uint256",
          "name": "id",
          "type": "uint256"
        },
        {
          "indexed": false,
          "internalType": "uint256",
          "name": "startHeight",
          "type": "uint256"
        }
      ],
      "name": "BeaconCommitteeSwapped",
      "type": "event"
    },
    {
      "anonymous": false,
      "inputs": [
        {
          "indexed": false,
          "internalType": "uint256",
          "name": "id",
          "type": "uint256"
        },
        {
          "indexed": false,
          "internalType": "uint256",
          "name": "startHeight",
          "type": "uint256"
        }
      ],
      "name": "BridgeCommitteeSwapped",
      "type": "event"
    },
    {
      "anonymous": false,
      "inputs": [
        {
          "indexed": false,
          "internalType": "address",
          "name": "claimer",
          "type": "address"
        }
      ],
      "name": "Claim",
      "type": "event"
    },
    {
      "anonymous": false,
      "inputs": [
        {
          "indexed": false,
          "internalType": "uint256",
          "name": "ndays",
          "type": "uint256"
        }
      ],
      "name": "Extend",
      "type": "event"
    },
    {
      "anonymous": false,
      "inputs": [
        {
          "indexed": false,
          "internalType": "address",
          "name": "pauser",
          "type": "address"
        }
      ],
      "name": "Paused",
      "type": "event"
    },
    {
      "anonymous": false,
      "inputs": [
        {
          "indexed": false,
          "internalType": "address",
          "name": "pauser",
          "type": "address"
        }
      ],
      "name": "Unpaused",
      "type": "event"
    },
    {
      "constant": true,
      "inputs": [],
      "name": "admin",
      "outputs": [
        {
          "internalType": "address",
          "name": "",
          "type": "address"
        }
      ],
      "payable": false,
      "stateMutability": "view",
      "type": "function"
    },
    {
      "constant": true,
      "inputs": [
        {
          "internalType": "uint256",
          "name": "",
          "type": "uint256"
        }
      ],
      "name": "beaconCommittees",
      "outputs": [
        {
          "internalType": "uint256",
          "name": "startBlock",
          "type": "uint256"
        }
      ],
      "payable": false,
      "stateMutability": "view",
      "type": "function"
    },
    {
      "constant": true,
      "inputs": [
        {
          "internalType": "uint256",
          "name": "",
          "type": "uint256"
        }
      ],
      "name": "bridgeCommittees",
      "outputs": [
        {
          "internalType": "uint256",
          "name": "startBlock",
          "type": "uint256"
        }
      ],
      "payable": false,
      "stateMutability": "view",
      "type": "function"
    },
    {
      "constant": false,
      "inputs": [],
      "name": "claim",
      "outputs": [],
      "payable": false,
      "stateMutability": "nonpayable",
      "type": "function"
    },
    {
      "constant": true,
      "inputs": [],
      "name": "expire",
      "outputs": [
        {
          "internalType": "uint256",
          "name": "",
          "type": "uint256"
        }
      ],
      "payable": false,
      "stateMutability": "view",
      "type": "function"
    },
    {
      "constant": false,
      "inputs": [
        {
          "internalType": "uint256",
          "name": "n",
          "type": "uint256"
        }
      ],
      "name": "extend",
      "outputs": [],
      "payable": false,
      "stateMutability": "nonpayable",
      "type": "function"
    },
    {
      "constant": false,
      "inputs": [],
      "name": "pause",
      "outputs": [],
      "payable": false,
      "stateMutability": "nonpayable",
      "type": "function"
    },
    {
      "constant": true,
      "inputs": [],
      "name": "paused",
      "outputs": [
        {
          "internalType": "bool",
          "name": "",
          "type": "bool"
        }
      ],
      "payable": false,
      "stateMutability": "view",
      "type": "function"
    },
    {
      "constant": false,
      "inputs": [
        {
          "internalType": "address",
          "name": "_successor",
          "type": "address"
        }
      ],
      "name": "retire",
      "outputs": [],
      "payable": false,
      "stateMutability": "nonpayable",
      "type": "function"
    },
    {
      "constant": true,
      "inputs": [],
      "name": "successor",
      "outputs": [
        {
          "internalType": "address",
          "name": "",
          "type": "address"
        }
      ],
      "payable": false,
      "stateMutability": "view",
      "type": "function"
    },
    {
      "constant": false,
      "inputs": [],
      "name": "unpause",
      "outputs": [],
      "payable": false,
      "stateMutability": "nonpayable",
      "type": "function"
    },
    {
      "constant": true,
      "inputs": [
        {
          "internalType": "uint256",
          "name": "i",
          "type": "uint256"
        }
      ],
      "name": "getBeaconCommittee",
      "outputs": [
        {
          "components": [
            {
              "internalType": "address[]",
              "name": "pubkeys",
              "type": "address[]"
            },
            {
              "internalType": "uint256",
              "name": "startBlock",
              "type": "uint256"
            }
          ],
          "internalType": "struct IncognitoProxy.Committee",
          "name": "",
          "type": "tuple"
        }
      ],
      "payable": false,
      "stateMutability": "view",
      "type": "function"
    },
    {
      "constant": true,
      "inputs": [
        {
          "internalType": "uint256",
          "name": "i",
          "type": "uint256"
        }
      ],
      "name": "getBridgeCommittee",
      "outputs": [
        {
          "components": [
            {
              "internalType": "address[]",
              "name": "pubkeys",
              "type": "address[]"
            },
            {
              "internalType": "uint256",
              "name": "startBlock",
              "type": "uint256"
            }
          ],
          "internalType": "struct IncognitoProxy.Committee",
          "name": "",
          "type": "tuple"
        }
      ],
      "payable": false,
      "stateMutability": "view",
      "type": "function"
    },
    {
      "constant": false,
      "inputs": [
        {
          "internalType": "bytes",
          "name": "inst",
          "type": "bytes"
        },
        {
          "internalType": "bytes32[][2]",
          "name": "instPaths",
          "type": "bytes32[][2]"
        },
        {
          "internalType": "bool[][2]",
          "name": "instPathIsLefts",
          "type": "bool[][2]"
        },
        {
          "internalType": "bytes32[2]",
          "name": "instRoots",
          "type": "bytes32[2]"
        },
        {
          "internalType": "bytes32[2]",
          "name": "blkData",
          "type": "bytes32[2]"
        },
        {
          "internalType": "uint256[][2]",
          "name": "sigIdxs",
          "type": "uint256[][2]"
        },
        {
          "internalType": "uint8[][2]",
          "name": "sigVs",
          "type": "uint8[][2]"
        },
        {
          "internalType": "bytes32[][2]",
          "name": "sigRs",
          "type": "bytes32[][2]"
        },
        {
          "internalType": "bytes32[][2]",
          "name": "sigSs",
          "type": "bytes32[][2]"
        }
      ],
      "name": "swapBridgeCommittee",
      "outputs": [],
      "payable": false,
      "stateMutability": "nonpayable",
      "type": "function"
    },
    {
      "constant": false,
      "inputs": [
        {
          "internalType": "bytes",
          "name": "inst",
          "type": "bytes"
        },
        {
          "internalType": "bytes32[]",
          "name": "instPath",
          "type": "bytes32[]"
        },
        {
          "internalType": "bool[]",
          "name": "instPathIsLeft",
          "type": "bool[]"
        },
        {
          "internalType": "bytes32",
          "name": "instRoot",
          "type": "bytes32"
        },
        {
          "internalType": "bytes32",
          "name": "blkData",
          "type": "bytes32"
        },
        {
          "internalType": "uint256[]",
          "name": "sigIdx",
          "type": "uint256[]"
        },
        {
          "internalType": "uint8[]",
          "name": "sigV",
          "type": "uint8[]"
        },
        {
          "internalType": "bytes32[]",
          "name": "sigR",
          "type": "bytes32[]"
        },
        {
          "internalType": "bytes32[]",
          "name": "sigS",
          "type": "bytes32[]"
        }
      ],
      "name": "swapBeaconCommittee",
      "outputs": [],
      "payable": false,
      "stateMutability": "nonpayable",
      "type": "function"
    },
    {
      "constant": true,
      "inputs": [
        {
          "internalType": "bool",
          "name": "isBeacon",
          "type": "bool"
        },
        {
          "internalType": "bytes32",
          "name": "instHash",
          "type": "bytes32"
        },
        {
          "internalType": "uint256",
          "name": "blkHeight",
          "type": "uint256"
        },
        {
          "internalType": "bytes32[]",
          "name": "instPath",
          "type": "bytes32[]"
        },
        {
          "internalType": "bool[]",
          "name": "instPathIsLeft",
          "type": "bool[]"
        },
        {
          "internalType": "bytes32",
          "name": "instRoot",
          "type": "bytes32"
        },
        {
          "internalType": "bytes32",
          "name": "blkData",
          "type": "bytes32"
        },
        {
          "internalType": "uint256[]",
          "name": "sigIdx",
          "type": "uint256[]"
        },
        {
          "internalType": "uint8[]",
          "name": "sigV",
          "type": "uint8[]"
        },
        {
          "internalType": "bytes32[]",
          "name": "sigR",
          "type": "bytes32[]"
        },
        {
          "internalType": "bytes32[]",
          "name": "sigS",
          "type": "bytes32[]"
        }
      ],
      "name": "instructionApproved",
      "outputs": [
        {
          "internalType": "bool",
          "name": "",
          "type": "bool"
        }
      ],
      "payable": false,
      "stateMutability": "view",
      "type": "function"
    },
    {
      "constant": true,
      "inputs": [
        {
          "internalType": "uint256",
          "name": "blkHeight",
          "type": "uint256"
        }
      ],
      "name": "findBeaconCommitteeFromHeight",
      "outputs": [
        {
          "internalType": "address[]",
          "name": "",
          "type": "address[]"
        },
        {
          "internalType": "uint256",
          "name": "",
          "type": "uint256"
        }
      ],
      "payable": false,
      "stateMutability": "view",
      "type": "function"
    },
    {
      "constant": true,
      "inputs": [
        {
          "internalType": "uint256",
          "name": "blkHeight",
          "type": "uint256"
        }
      ],
      "name": "findBridgeCommitteeFromHeight",
      "outputs": [
        {
          "internalType": "address[]",
          "name": "",
          "type": "address[]"
        },
        {
          "internalType": "uint256",
          "name": "",
          "type": "uint256"
        }
      ],
      "payable": false,
      "stateMutability": "view",
      "type": "function"
    },
    {
      "constant": true,
      "inputs": [
        {
          "internalType": "bytes32",
          "name": "leaf",
          "type": "bytes32"
        },
        {
          "internalType": "bytes32",
          "name": "root",
          "type": "bytes32"
        },
        {
          "internalType": "bytes32[]",
          "name": "path",
          "type": "bytes32[]"
        },
        {
          "internalType": "bool[]",
          "name": "left",
          "type": "bool[]"
        }
      ],
      "name": "instructionInMerkleTree",
      "outputs": [
        {
          "internalType": "bool",
          "name": "",
          "type": "bool"
        }
      ],
      "payable": false,
      "stateMutability": "pure",
      "type": "function"
    },
    {
      "constant": true,
      "inputs": [
        {
          "internalType": "bytes",
          "name": "inst",
          "type": "bytes"
        }
      ],
      "name": "extractMetaFromInstruction",
      "outputs": [
        {
          "internalType": "uint8",
          "name": "",
          "type": "uint8"
        },
        {
          "internalType": "uint8",
          "name": "",
          "type": "uint8"
        },
        {
          "internalType": "uint256",
          "name": "",
          "type": "uint256"
        },
        {
          "internalType": "uint256",
          "name": "",
          "type": "uint256"
        }
      ],
      "payable": false,
      "stateMutability": "pure",
      "type": "function"
    },
    {
      "constant": true,
      "inputs": [
        {
          "internalType": "bytes",
          "name": "inst",
          "type": "bytes"
        },
        {
          "internalType": "uint256",
          "name": "numVals",
          "type": "uint256"
        }
      ],
      "name": "extractCommitteeFromInstruction",
      "outputs": [
        {
          "internalType": "address[]",
          "name": "",
          "type": "address[]"
        }
      ],
      "payable": false,
      "stateMutability": "pure",
      "type": "function"
    },
    {
      "constant": true,
      "inputs": [
        {
          "internalType": "address[]",
          "name": "committee",
          "type": "address[]"
        },
        {
          "internalType": "bytes32",
          "name": "msgHash",
          "type": "bytes32"
        },
        {
          "internalType": "uint8[]",
          "name": "v",
          "type": "uint8[]"
        },
        {
          "internalType": "bytes32[]",
          "name": "r",
          "type": "bytes32[]"
        },
        {
          "internalType": "bytes32[]",
          "name": "s",
          "type": "bytes32[]"
        }
      ],
      "name": "verifySig",
      "outputs": [
        {
          "internalType": "bool",
          "name": "",
          "type": "bool"
        }
      ],
      "payable": false,
      "stateMutability": "pure",
      "type": "function"
    }
  ],
  "bytecode": "0x60806040523480156200001157600080fd5b506040516200385338038062003853833981810160405262000037919081019062000301565b82806000806101000a81548173ffffffffffffffffffffffffffffffffffffffff021916908373ffffffffffffffffffffffffffffffffffffffff1602179055506000600160146101000a81548160ff0219169083151502179055506301e133804201600281905550506003604051806040016040528084815260200160008152509080600181540180825580915050906001820390600052602060002090600202016000909192909190915060008201518160000190805190602001906200010292919062000188565b50602082015181600101555050506004604051806040016040528083815260200160008152509080600181540180825580915050906001820390600052602060002090600202016000909192909190915060008201518160000190805190602001906200017192919062000188565b50602082015181600101555050505050506200042e565b82805482825590600052602060002090810192821562000204579160200282015b82811115620002035782518260006101000a81548173ffffffffffffffffffffffffffffffffffffffff021916908373ffffffffffffffffffffffffffffffffffffffff16021790555091602001919060010190620001a9565b5b50905062000213919062000217565b5090565b6200025a91905b808211156200025657600081816101000a81549073ffffffffffffffffffffffffffffffffffffffff0219169055506001016200021e565b5090565b90565b6000815190506200026e8162000414565b92915050565b600082601f8301126200028657600080fd5b81516200029d6200029782620003b7565b62000389565b91508181835260208401935060208101905083856020840282011115620002c357600080fd5b60005b83811015620002f75781620002dc88826200025d565b845260208401935060208301925050600181019050620002c6565b5050505092915050565b6000806000606084860312156200031757600080fd5b600062000327868287016200025d565b935050602084015167ffffffffffffffff8111156200034557600080fd5b620003538682870162000274565b925050604084015167ffffffffffffffff8111156200037157600080fd5b6200037f8682870162000274565b9150509250925092565b6000604051905081810181811067ffffffffffffffff82111715620003ad57600080fd5b8060405250919050565b600067ffffffffffffffff821115620003cf57600080fd5b602082029050602081019050919050565b6000620003ed82620003f4565b9050919050565b600073ffffffffffffffffffffffffffffffffffffffff82169050919050565b6200041f81620003e0565b81146200042b57600080fd5b50565b613415806200043e6000396000f3fe608060405234801561001057600080fd5b50600436106101425760003560e01c806390500bae116100b8578063e41be7751161007c578063e41be77514610367578063f203a5ed14610383578063f5205fde146103b3578063f65d2116146103e4578063f851a44014610414578063faea31671461043257610142565b806390500bae1461029b5780639714378c146102ce5780639b30b637146102ea5780639e6371ba1461031a578063b600ffdb1461033657610142565b80635c975abb1161010a5780635c975abb146101d75780636ff968c3146101f557806379599f96146102135780638456cb59146102315780638ceb69c31461023b5780638eb600661461026b57610142565b8063262f7220146101475780633aacfdad146101635780633f4ba83a1461019357806347c4b3281461019d5780634e71d92d146101cd575b600080fd5b610161600480360361015c919081019061264e565b610462565b005b61017d60048036036101789190810190612323565b6107bb565b60405161018a9190612dd8565b60405180910390f35b61019b6108db565b005b6101b760048036036101b2919081019061257a565b610a0d565b6040516101c49190612dd8565b60405180910390f35b6101d5610b37565b005b6101df610cc7565b6040516101ec9190612dd8565b60405180910390f35b6101fd610cda565b60405161020a9190612d50565b60405180910390f35b61021b610d00565b6040516102289190612f3a565b60405180910390f35b610239610d06565b005b61025560048036036102509190810190612980565b610e7c565b6040516102629190612f18565b60405180910390f35b6102856004803603610280919081019061292c565b610f49565b6040516102929190612d86565b60405180910390f35b6102b560048036036102b0919081019061260d565b61100e565b6040516102c59493929190612f7e565b60405180910390f35b6102e860048036036102e39190810190612980565b611089565b005b61030460048036036102ff9190810190612980565b6111ea565b6040516103119190612f3a565b60405180910390f35b610334600480360361032f91908101906122fa565b611215565b005b610350600480360361034b9190810190612980565b61132c565b60405161035e929190612da8565b60405180910390f35b610381600480360361037c91908101906127be565b61145a565b005b61039d60048036036103989190810190612980565b611660565b6040516103aa9190612f3a565b60405180910390f35b6103cd60048036036103c89190810190612980565b61168b565b6040516103db929190612da8565b60405180910390f35b6103fe60048036036103f991908101906123fa565b6117b9565b60405161040b9190612dd8565b60405180910390f35b61041c6119c1565b6040516104299190612d50565b60405180910390f35b61044c60048036036104479190810190612980565b6119e6565b6040516104599190612f18565b60405180910390f35b600160149054906101000a900460ff16156104b2576040517f08c379a00000000000000000000000000000000000000000000000000000000081526004016104a990612ed8565b60405180910390fd5b6000898051906020012090506105806001826003600160038054905003815481106104d957fe5b9060005260206000209060020201600101548c6000600281106104f857fe5b60200201518c60006002811061050a57fe5b60200201518c60006002811061051c57fe5b60200201518c60006002811061052e57fe5b60200201518c60006002811061054057fe5b60200201518c60006002811061055257fe5b60200201518c60006002811061056457fe5b60200201518c60006002811061057657fe5b60200201516117b9565b61058957600080fd5b61064b6000826004600160048054905003815481106105a457fe5b9060005260206000209060020201600101548c6001600281106105c357fe5b60200201518c6001600281106105d557fe5b60200201518c6001600281106105e757fe5b60200201518c6001600281106105f957fe5b60200201518c60016002811061060b57fe5b60200201518c60016002811061061d57fe5b60200201518c60016002811061062f57fe5b60200201518c60016002811061064157fe5b60200201516117b9565b61065457600080fd5b6000806000806106638e61100e565b935093509350935060478460ff16148015610681575060018360ff16145b61068a57600080fd5b60046001600480549050038154811061069f57fe5b90600052602060002090600202016001015482116106f2576040517f08c379a00000000000000000000000000000000000000000000000000000000081526004016106e990612eb8565b60405180910390fd5b60606106fe8f83610f49565b9050600460405180604001604052808381526020018581525090806001815401808255809150509060018203906000526020600020906002020160009091929091909150600082015181600001908051906020019061075e929190611ab3565b50602082015181600101555050507ffd354f8fe3f6f03db5436879221c99b65c610515bb33434539060150d61f8a44600480549050846040516107a2929190612f55565b60405180910390a1505050505050505050505050505050565b600082518451146107cb57600080fd5b81518451146107d957600080fd5b60008090505b84518110156108cc578681815181106107f457fe5b602002602001015173ffffffffffffffffffffffffffffffffffffffff1660018787848151811061082157fe5b602002602001015187858151811061083557fe5b602002602001015187868151811061084957fe5b60200260200101516040516000815260200160405260405161086e9493929190612df3565b6020604051602081039080840390855afa158015610890573d6000803e3d6000fd5b5050506020604051035173ffffffffffffffffffffffffffffffffffffffff16146108bf5760009150506108d2565b80806001019150506107df565b50600190505b95945050505050565b6000809054906101000a900473ffffffffffffffffffffffffffffffffffffffff1673ffffffffffffffffffffffffffffffffffffffff163373ffffffffffffffffffffffffffffffffffffffff161461096a576040517f08c379a000000000000000000000000000000000000000000000000000000000815260040161096190612ef8565b60405180910390fd5b600160149054906101000a900460ff166109b9576040517f08c379a00000000000000000000000000000000000000000000000000000000081526004016109b090612e38565b60405180910390fd5b6000600160146101000a81548160ff0219169083151502179055507f5db9ee0a495bf2e6ff9c91a7834c1ba4fdd244a5e8aa4e537bd38aeae4b073aa33604051610a039190612d6b565b60405180910390a1565b60008251825114610a1d57600080fd5b600085905060008090505b8451811015610b2857838181518110610a3d57fe5b602002602001015115610a8d57848181518110610a5657fe5b602002602001015182604051602001610a70929190612d24565b604051602081830303815290604052805190602001209150610b1b565b6000801b858281518110610a9d57fe5b60200260200101511415610adb578182604051602001610abe929190612d24565b604051602081830303815290604052805190602001209150610b1a565b81858281518110610ae857fe5b6020026020010151604051602001610b01929190612d24565b6040516020818303038152906040528051906020012091505b5b8080600101915050610a28565b50848114915050949350505050565b6002544210610b7b576040517f08c379a0000000000000000000000000000000000000000000000000000000008152600401610b7290612e58565b60405180910390fd5b600160009054906101000a900473ffffffffffffffffffffffffffffffffffffffff1673ffffffffffffffffffffffffffffffffffffffff163373ffffffffffffffffffffffffffffffffffffffff1614610c0b576040517f08c379a0000000000000000000000000000000000000000000000000000000008152600401610c0290612e98565b60405180910390fd5b600160009054906101000a900473ffffffffffffffffffffffffffffffffffffffff166000806101000a81548173ffffffffffffffffffffffffffffffffffffffff021916908373ffffffffffffffffffffffffffffffffffffffff1602179055507f0c7ef932d3b91976772937f18d5ef9b39a9930bef486b576c374f047c4b512dc6000809054906101000a900473ffffffffffffffffffffffffffffffffffffffff16604051610cbd9190612d50565b60405180910390a1565b600160149054906101000a900460ff1681565b600160009054906101000a900473ffffffffffffffffffffffffffffffffffffffff1681565b60025481565b6000809054906101000a900473ffffffffffffffffffffffffffffffffffffffff1673ffffffffffffffffffffffffffffffffffffffff163373ffffffffffffffffffffffffffffffffffffffff1614610d95576040517f08c379a0000000000000000000000000000000000000000000000000000000008152600401610d8c90612ef8565b60405180910390fd5b600160149054906101000a900460ff1615610de5576040517f08c379a0000000000000000000000000000000000000000000000000000000008152600401610ddc90612ed8565b60405180910390fd5b6002544210610e29576040517f08c379a0000000000000000000000000000000000000000000000000000000008152600401610e2090612e58565b60405180910390fd5b60018060146101000a81548160ff0219169083151502179055507f62e78cea01bee320cd4e420270b5ea74000d11b0c9f74754ebdbfc544b05a25833604051610e729190612d6b565b60405180910390a1565b610e84611b3d565b60048281548110610e9157fe5b906000526020600020906002020160405180604001604052908160008201805480602002602001604051908101604052809291908181526020018280548015610f2f57602002820191906000526020600020905b8160009054906101000a900473ffffffffffffffffffffffffffffffffffffffff1673ffffffffffffffffffffffffffffffffffffffff1681526020019060010190808311610ee5575b505050505081526020016001820154815250509050919050565b606060208202604201835114610f5e57600080fd5b606082604051908082528060200260200182016040528015610f8f5781602001602082028038833980820191505090505b509050600080600090505b848110156110025760208102606287010151915081838281518110610fbb57fe5b602002602001019073ffffffffffffffffffffffffffffffffffffffff16908173ffffffffffffffffffffffffffffffffffffffff16815250508080600101915050610f9a565b50819250505092915050565b60008060008060428551101561102357600080fd5b60008560008151811061103257fe5b602001015160f81c60f81b60f81c905060008660018151811061105157fe5b602001015160f81c60f81b60f81c90506000806022890151915060428901519050838383839750975097509750505050509193509193565b6000809054906101000a900473ffffffffffffffffffffffffffffffffffffffff1673ffffffffffffffffffffffffffffffffffffffff163373ffffffffffffffffffffffffffffffffffffffff1614611118576040517f08c379a000000000000000000000000000000000000000000000000000000000815260040161110f90612ef8565b60405180910390fd5b600254421061115c576040517f08c379a000000000000000000000000000000000000000000000000000000000815260040161115390612e58565b60405180910390fd5b61016e81106111a0576040517f08c379a000000000000000000000000000000000000000000000000000000000815260040161119790612e78565b60405180910390fd5b620151808102600254016002819055507f02ef6561d311451dadc920679eb21192a61d96ee8ead94241b8ff073029ca6e8816040516111df9190612f3a565b60405180910390a150565b600481815481106111f757fe5b90600052602060002090600202016000915090508060010154905081565b6000809054906101000a900473ffffffffffffffffffffffffffffffffffffffff1673ffffffffffffffffffffffffffffffffffffffff163373ffffffffffffffffffffffffffffffffffffffff16146112a4576040517f08c379a000000000000000000000000000000000000000000000000000000000815260040161129b90612ef8565b60405180910390fd5b60025442106112e8576040517f08c379a00000000000000000000000000000000000000000000000000000000081526004016112df90612e58565b60405180910390fd5b80600160006101000a81548173ffffffffffffffffffffffffffffffffffffffff021916908373ffffffffffffffffffffffffffffffffffffffff16021790555050565b606060008060009050600060038054905090506000811161134c57600080fd5b6001810390505b8082146113a857600060026001838501018161136b57fe5b049050856003828154811061137c57fe5b9060005260206000209060020201600101541161139b578092506113a2565b6001810391505b50611353565b600382815481106113b557fe5b9060005260206000209060020201600001828180548060200260200160405190810160405280929190818152602001828054801561144857602002820191906000526020600020905b8160009054906101000a900473ffffffffffffffffffffffffffffffffffffffff1673ffffffffffffffffffffffffffffffffffffffff16815260200190600101908083116113fe575b50505050509150935093505050915091565b600160149054906101000a900460ff16156114aa576040517f08c379a00000000000000000000000000000000000000000000000000000000081526004016114a190612ed8565b60405180910390fd5b6000898051906020012090506114f06001826003600160038054905003815481106114d157fe5b9060005260206000209060020201600101548c8c8c8c8c8c8c8c6117b9565b6114f957600080fd5b6000806000806115088e61100e565b935093509350935060468460ff16148015611526575060018360ff16145b61152f57600080fd5b60036001600380549050038154811061154457fe5b9060005260206000209060020201600101548211611597576040517f08c379a000000000000000000000000000000000000000000000000000000000815260040161158e90612eb8565b60405180910390fd5b60606115a38f83610f49565b90506003604051806040016040528083815260200185815250908060018154018082558091505090600182039060005260206000209060020201600090919290919091506000820151816000019080519060200190611603929190611ab3565b50602082015181600101555050507fe15e1a9dec6ad906dd5985b062bfa5ee8bc5d5738e46e4deb8a2df2fbbbb59d160038054905084604051611647929190612f55565b60405180910390a1505050505050505050505050505050565b6003818154811061166d57fe5b90600052602060002090600202016000915090508060010154905081565b60606000806000905060006004805490509050600081116116ab57600080fd5b6001810390505b8082146117075760006002600183850101816116ca57fe5b04905085600482815481106116db57fe5b906000526020600020906002020160010154116116fa57809250611701565b6001810391505b506116b2565b6004828154811061171457fe5b906000526020600020906002020160000182818054806020026020016040519081016040528092919081815260200182805480156117a757602002820191906000526020600020905b8160009054906101000a900473ffffffffffffffffffffffffffffffffffffffff1673ffffffffffffffffffffffffffffffffffffffff168152602001906001019080831161175d575b50505050509150935093505050915091565b6000606060008d156117db576117ce8c61132c565b80925081935050506117ed565b6117e48c61168b565b80925081935050505b86518651146117fb57600080fd5b845186511461180957600080fd5b835186511461181757600080fd5b60008090505b87518110156119095760008111801561185f575087600182038151811061184057fe5b602002602001015188828151811061185457fe5b602002602001015111155b8061187e5750825188828151811061187357fe5b602002602001015110155b1561188f57600093505050506119b2565b8288828151811061189c57fe5b6020026020010151815181106118ae57fe5b60200260200101518382815181106118c257fe5b602002602001019073ffffffffffffffffffffffffffffffffffffffff16908173ffffffffffffffffffffffffffffffffffffffff1681525050808060010191505061181d565b506000888a60405160200161191f929190612d24565b604051602081830303815290604052805190602001206040516020016119459190612d09565b604051602081830303815290604052805190602001209050600360028451028161196b57fe5b0488511161197f57600093505050506119b2565b61198c83828989896107bb565b61199557600080fd5b6119a18e8b8e8e610a0d565b6119aa57600080fd5b600193505050505b9b9a5050505050505050505050565b6000809054906101000a900473ffffffffffffffffffffffffffffffffffffffff1681565b6119ee611b3d565b600382815481106119fb57fe5b906000526020600020906002020160405180604001604052908160008201805480602002602001604051908101604052809291908181526020018280548015611a9957602002820191906000526020600020905b8160009054906101000a900473ffffffffffffffffffffffffffffffffffffffff1673ffffffffffffffffffffffffffffffffffffffff1681526020019060010190808311611a4f575b505050505081526020016001820154815250509050919050565b828054828255906000526020600020908101928215611b2c579160200282015b82811115611b2b5782518260006101000a81548173ffffffffffffffffffffffffffffffffffffffff021916908373ffffffffffffffffffffffffffffffffffffffff16021790555091602001919060010190611ad3565b5b509050611b399190611b57565b5090565b604051806040016040528060608152602001600081525090565b611b9791905b80821115611b9357600081816101000a81549073ffffffffffffffffffffffffffffffffffffffff021916905550600101611b5d565b5090565b90565b600081359050611ba98161335f565b92915050565b600082601f830112611bc057600080fd5b8135611bd3611bce82612ff0565b612fc3565b91508181835260208401935060208101905083856020840282011115611bf857600080fd5b60005b83811015611c285781611c0e8882611b9a565b845260208401935060208301925050600181019050611bfb565b5050505092915050565b600082601f830112611c4357600080fd5b6002611c56611c5182613018565b612fc3565b9150818360005b83811015611c8d5781358601611c738882611dc6565b845260208401935060208301925050600181019050611c5d565b5050505092915050565b600082601f830112611ca857600080fd5b6002611cbb611cb68261303a565b612fc3565b9150818360005b83811015611cf25781358601611cd88882611f40565b845260208401935060208301925050600181019050611cc2565b5050505092915050565b600082601f830112611d0d57600080fd5b6002611d20611d1b8261305c565b612fc3565b9150818360005b83811015611d575781358601611d3d8882612046565b845260208401935060208301925050600181019050611d27565b5050505092915050565b600082601f830112611d7257600080fd5b6002611d85611d808261307e565b612fc3565b9150818360005b83811015611dbc5781358601611da2888261214c565b845260208401935060208301925050600181019050611d8c565b5050505092915050565b600082601f830112611dd757600080fd5b8135611dea611de5826130a0565b612fc3565b91508181835260208401935060208101905083856020840282011115611e0f57600080fd5b60005b83811015611e3f5781611e258882612252565b845260208401935060208301925050600181019050611e12565b5050505092915050565b600082601f830112611e5a57600080fd5b8135611e6d611e68826130c8565b612fc3565b91508181835260208401935060208101905083856020840282011115611e9257600080fd5b60005b83811015611ec25781611ea88882612252565b845260208401935060208301925050600181019050611e95565b5050505092915050565b600082601f830112611edd57600080fd5b6002611ef0611eeb826130f0565b612fc3565b91508183856020840282011115611f0657600080fd5b60005b83811015611f365781611f1c8882612267565b845260208401935060208301925050600181019050611f09565b5050505092915050565b600082601f830112611f5157600080fd5b8135611f64611f5f82613112565b612fc3565b91508181835260208401935060208101905083856020840282011115611f8957600080fd5b60005b83811015611fb95781611f9f8882612267565b845260208401935060208301925050600181019050611f8c565b5050505092915050565b600082601f830112611fd457600080fd5b8135611fe7611fe28261313a565b612fc3565b9150818183526020840193506020810190508385602084028201111561200c57600080fd5b60005b8381101561203c57816120228882612267565b84526020840193506020830192505060018101905061200f565b5050505092915050565b600082601f83011261205757600080fd5b813561206a61206582613162565b612fc3565b9150818183526020840193506020810190508385602084028201111561208f57600080fd5b60005b838110156120bf57816120a588826122d0565b845260208401935060208301925050600181019050612092565b5050505092915050565b600082601f8301126120da57600080fd5b81356120ed6120e88261318a565b612fc3565b9150818183526020840193506020810190508385602084028201111561211257600080fd5b60005b83811015612142578161212888826122d0565b845260208401935060208301925050600181019050612115565b5050505092915050565b600082601f83011261215d57600080fd5b813561217061216b826131b2565b612fc3565b9150818183526020840193506020810190508385602084028201111561219557600080fd5b60005b838110156121c557816121ab88826122e5565b845260208401935060208301925050600181019050612198565b5050505092915050565b600082601f8301126121e057600080fd5b81356121f36121ee826131da565b612fc3565b9150818183526020840193506020810190508385602084028201111561221857600080fd5b60005b83811015612248578161222e88826122e5565b84526020840193506020830192505060018101905061221b565b5050505092915050565b60008135905061226181613376565b92915050565b6000813590506122768161338d565b92915050565b600082601f83011261228d57600080fd5b81356122a061229b82613202565b612fc3565b915080825260208301602083018583830111156122bc57600080fd5b6122c7838284613346565b50505092915050565b6000813590506122df816133a4565b92915050565b6000813590506122f4816133bb565b92915050565b60006020828403121561230c57600080fd5b600061231a84828501611b9a565b91505092915050565b600080600080600060a0868803121561233b57600080fd5b600086013567ffffffffffffffff81111561235557600080fd5b61236188828901611baf565b955050602061237288828901612267565b945050604086013567ffffffffffffffff81111561238f57600080fd5b61239b888289016121cf565b935050606086013567ffffffffffffffff8111156123b857600080fd5b6123c488828901611fc3565b925050608086013567ffffffffffffffff8111156123e157600080fd5b6123ed88828901611fc3565b9150509295509295909350565b60008060008060008060008060008060006101608c8e03121561241c57600080fd5b600061242a8e828f01612252565b9b5050602061243b8e828f01612267565b9a5050604061244c8e828f016122d0565b99505060608c013567ffffffffffffffff81111561246957600080fd5b6124758e828f01611fc3565b98505060808c013567ffffffffffffffff81111561249257600080fd5b61249e8e828f01611e49565b97505060a06124af8e828f01612267565b96505060c06124c08e828f01612267565b95505060e08c013567ffffffffffffffff8111156124dd57600080fd5b6124e98e828f016120c9565b9450506101008c013567ffffffffffffffff81111561250757600080fd5b6125138e828f016121cf565b9350506101208c013567ffffffffffffffff81111561253157600080fd5b61253d8e828f01611fc3565b9250506101408c013567ffffffffffffffff81111561255b57600080fd5b6125678e828f01611fc3565b9150509295989b509295989b9093969950565b6000806000806080858703121561259057600080fd5b600061259e87828801612267565b94505060206125af87828801612267565b935050604085013567ffffffffffffffff8111156125cc57600080fd5b6125d887828801611fc3565b925050606085013567ffffffffffffffff8111156125f557600080fd5b61260187828801611e49565b91505092959194509250565b60006020828403121561261f57600080fd5b600082013567ffffffffffffffff81111561263957600080fd5b6126458482850161227c565b91505092915050565b60008060008060008060008060006101608a8c03121561266d57600080fd5b60008a013567ffffffffffffffff81111561268757600080fd5b6126938c828d0161227c565b99505060208a013567ffffffffffffffff8111156126b057600080fd5b6126bc8c828d01611c97565b98505060408a013567ffffffffffffffff8111156126d957600080fd5b6126e58c828d01611c32565b97505060606126f68c828d01611ecc565b96505060a06127078c828d01611ecc565b95505060e08a013567ffffffffffffffff81111561272457600080fd5b6127308c828d01611cfc565b9450506101008a013567ffffffffffffffff81111561274e57600080fd5b61275a8c828d01611d61565b9350506101208a013567ffffffffffffffff81111561277857600080fd5b6127848c828d01611c97565b9250506101408a013567ffffffffffffffff8111156127a257600080fd5b6127ae8c828d01611c97565b9150509295985092959850929598565b60008060008060008060008060006101208a8c0312156127dd57600080fd5b60008a013567ffffffffffffffff8111156127f757600080fd5b6128038c828d0161227c565b99505060208a013567ffffffffffffffff81111561282057600080fd5b61282c8c828d01611fc3565b98505060408a013567ffffffffffffffff81111561284957600080fd5b6128558c828d01611e49565b97505060606128668c828d01612267565b96505060806128778c828d01612267565b95505060a08a013567ffffffffffffffff81111561289457600080fd5b6128a08c828d016120c9565b94505060c08a013567ffffffffffffffff8111156128bd57600080fd5b6128c98c828d016121cf565b93505060e08a013567ffffffffffffffff8111156128e657600080fd5b6128f28c828d01611fc3565b9250506101008a013567ffffffffffffffff81111561291057600080fd5b61291c8c828d01611fc3565b9150509295985092959850929598565b6000806040838503121561293f57600080fd5b600083013567ffffffffffffffff81111561295957600080fd5b6129658582860161227c565b9250506020612976858286016122d0565b9150509250929050565b60006020828403121561299257600080fd5b60006129a0848285016122d0565b91505092915050565b60006129b583836129d0565b60208301905092915050565b6129ca81613310565b82525050565b6129d9816132b1565b82525050565b6129e8816132b1565b82525050565b60006129f982613259565b612a03818561328f565b9350612a0e8361323e565b8060005b83811015612a3f578151612a2688826129a9565b9750612a3183613271565b925050600181019050612a12565b5085935050505092915050565b6000612a578261324e565b612a61818561327e565b9350612a6c8361322e565b8060005b83811015612a9d578151612a8488826129a9565b9750612a8f83613264565b925050600181019050612a70565b5085935050505092915050565b612ab3816132c3565b82525050565b612ac2816132cf565b82525050565b612ad9612ad4826132cf565b613355565b82525050565b6000612aec6014836132a0565b91507f6e6f7420706175736564207269676874206e6f770000000000000000000000006000830152602082019050919050565b6000612b2c6007836132a0565b91507f65787069726564000000000000000000000000000000000000000000000000006000830152602082019050919050565b6000612b6c601a836132a0565b91507f63616e6e6f7420657874656e6420666f7220746f6f206c6f6e670000000000006000830152602082019050919050565b6000612bac600c836132a0565b91507f756e617574686f72697a656400000000000000000000000000000000000000006000830152602082019050919050565b6000612bec601b836132a0565b91507f63616e6e6f74206368616e6765206f6c6420636f6d6d697474656500000000006000830152602082019050919050565b6000612c2c6010836132a0565b91507f706175736564207269676874206e6f77000000000000000000000000000000006000830152602082019050919050565b6000612c6c6009836132a0565b91507f6e6f742061646d696e00000000000000000000000000000000000000000000006000830152602082019050919050565b60006040830160008301518482036000860152612cbc8282612a4c565b9150506020830151612cd16020860182612cdc565b508091505092915050565b612ce5816132f9565b82525050565b612cf4816132f9565b82525050565b612d0381613303565b82525050565b6000612d158284612ac8565b60208201915081905092915050565b6000612d308285612ac8565b602082019150612d408284612ac8565b6020820191508190509392505050565b6000602082019050612d6560008301846129df565b92915050565b6000602082019050612d8060008301846129c1565b92915050565b60006020820190508181036000830152612da081846129ee565b905092915050565b60006040820190508181036000830152612dc281856129ee565b9050612dd16020830184612ceb565b9392505050565b6000602082019050612ded6000830184612aaa565b92915050565b6000608082019050612e086000830187612ab9565b612e156020830186612cfa565b612e226040830185612ab9565b612e2f6060830184612ab9565b95945050505050565b60006020820190508181036000830152612e5181612adf565b9050919050565b60006020820190508181036000830152612e7181612b1f565b9050919050565b60006020820190508181036000830152612e9181612b5f565b9050919050565b60006020820190508181036000830152612eb181612b9f565b9050919050565b60006020820190508181036000830152612ed181612bdf565b9050919050565b60006020820190508181036000830152612ef181612c1f565b9050919050565b60006020820190508181036000830152612f1181612c5f565b9050919050565b60006020820190508181036000830152612f328184612c9f565b905092915050565b6000602082019050612f4f6000830184612ceb565b92915050565b6000604082019050612f6a6000830185612ceb565b612f776020830184612ceb565b9392505050565b6000608082019050612f936000830187612cfa565b612fa06020830186612cfa565b612fad6040830185612ceb565b612fba6060830184612ceb565b95945050505050565b6000604051905081810181811067ffffffffffffffff82111715612fe657600080fd5b8060405250919050565b600067ffffffffffffffff82111561300757600080fd5b602082029050602081019050919050565b600067ffffffffffffffff82111561302f57600080fd5b602082029050919050565b600067ffffffffffffffff82111561305157600080fd5b602082029050919050565b600067ffffffffffffffff82111561307357600080fd5b602082029050919050565b600067ffffffffffffffff82111561309557600080fd5b602082029050919050565b600067ffffffffffffffff8211156130b757600080fd5b602082029050602081019050919050565b600067ffffffffffffffff8211156130df57600080fd5b602082029050602081019050919050565b600067ffffffffffffffff82111561310757600080fd5b602082029050919050565b600067ffffffffffffffff82111561312957600080fd5b602082029050602081019050919050565b600067ffffffffffffffff82111561315157600080fd5b602082029050602081019050919050565b600067ffffffffffffffff82111561317957600080fd5b602082029050602081019050919050565b600067ffffffffffffffff8211156131a157600080fd5b602082029050602081019050919050565b600067ffffffffffffffff8211156131c957600080fd5b602082029050602081019050919050565b600067ffffffffffffffff8211156131f157600080fd5b602082029050602081019050919050565b600067ffffffffffffffff82111561321957600080fd5b601f19601f8301169050602081019050919050565b6000819050602082019050919050565b6000819050602082019050919050565b600081519050919050565b600081519050919050565b6000602082019050919050565b6000602082019050919050565b600082825260208201905092915050565b600082825260208201905092915050565b600082825260208201905092915050565b60006132bc826132d9565b9050919050565b60008115159050919050565b6000819050919050565b600073ffffffffffffffffffffffffffffffffffffffff82169050919050565b6000819050919050565b600060ff82169050919050565b600061331b82613322565b9050919050565b600061332d82613334565b9050919050565b600061333f826132d9565b9050919050565b82818337600083830152505050565b6000819050919050565b613368816132b1565b811461337357600080fd5b50565b61337f816132c3565b811461338a57600080fd5b50565b613396816132cf565b81146133a157600080fd5b50565b6133ad816132f9565b81146133b857600080fd5b50565b6133c481613303565b81146133cf57600080fd5b5056fea365627a7a72315820949fd572f471e5bf19e32b28b3e2b02cd003cd616ec6ca8dfa760d46683e47be6c6578706572696d656e74616cf564736f6c63430005100040",
  "source": "pragma solidity ^0.5.12;\npragma experimental ABIEncoderV2;\n\nimport \"./pause.sol\";\n\n/**\n * @dev Stores beacon and bridge committee members of Incognito Chain. Other\n * contracts can query this contract to check if an instruction is confimed on\n * Incognito\n */\ncontract IncognitoProxy is AdminPausable {\n    struct Committee {\n        address[] pubkeys; // ETH address of all members\n        uint startBlock; // The block that the committee starts to work on\n    }\n\n    Committee[] public beaconCommittees; // All beacon committees from genesis block\n    Committee[] public bridgeCommittees; // All bridge committees from genesis block\n\n    event BeaconCommitteeSwapped(uint id, uint startHeight);\n    event BridgeCommitteeSwapped(uint id, uint startHeight);\n\n    /**\n     * @dev Sets the genesis committees and the address of admin\n     * @notice Admin is the one responsible for the contract in case of emergency\n     * Here, they are authorized to Pause the contract, stopping new committees\n     * from being added to the contract\n     * Admin is authorized to Pause the contract at anytime for 1 year starting\n     * from the moment the contract is deployed\n     * Admin is also authorized to increase the expiration time if they need more\n     * time to implement a more decentralized failsafe mechanism\n     * @notice Admin can also be a smart contract implementing a DAO and making decisions through a voting system\n     * @param admin: ETH address\n     * @param beaconCommittee: genesis committee members of beacon chain\n     * @param bridgeCommittee: genesis committee members of bridge\n     */\n    constructor(\n        address admin,\n        address[] memory beaconCommittee,\n        address[] memory bridgeCommittee\n    ) public AdminPausable(admin) {\n        beaconCommittees.push(Committee({\n            pubkeys: beaconCommittee,\n            startBlock: 0\n        }));\n\n        bridgeCommittees.push(Committee({\n            pubkeys: bridgeCommittee,\n            startBlock: 0\n        }));\n    }\n\n    /**\n     * @dev Gets a beacon committee in the past\n     * @notice We need to implement this because the autogenerated getter returns only the startBlock\n     * @param i index of the committee to get\n     * @return the committee and their startBlock\n     */\n    function getBeaconCommittee(uint i) public view returns(Committee memory) {\n        return beaconCommittees[i];\n    }\n\n    /**\n     * @dev Gets a bridge committee in the past\n     * @notice the same as getBeaconCommittee but for bridge\n     */\n    function getBridgeCommittee(uint i) public view returns(Committee memory) {\n        return bridgeCommittees[i];\n    }\n\n    /**\n     * @dev Updates the latest committee of the bridge\n     * @notice This function takes a swap instruction on Incognito Chain, checks for its validity and stores the latest committee\n     * @notice This only works when the contract is not Paused\n     * @notice All params except inst are the list of 2 elements corresponding to the proof on beacon and bridge\n     * @param inst: the decoded instruction as a list of bytes\n     * @param instPaths: merkle path of the instruction\n     * @param instPathIsLefts: whether each node on the path is the left or right child\n     * @param instRoots: root of the merkle tree contains all instructions\n     * @param blkData: merkle has of the block body\n     * @param sigIdxs: indices of the validators who signed this block\n     * @param sigVs: part of the signatures of the validators\n     * @param sigRs: part of the signatures of the validators\n     * @param sigSs: part of the signatures of the validators\n     */\n    function swapBridgeCommittee(\n        bytes memory inst,\n        bytes32[][2] memory instPaths,\n        bool[][2] memory instPathIsLefts,\n        bytes32[2] memory instRoots,\n        bytes32[2] memory blkData,\n        uint[][2] memory sigIdxs,\n        uint8[][2] memory sigVs,\n        bytes32[][2] memory sigRs,\n        bytes32[][2] memory sigSs\n    ) public isNotPaused {\n        bytes32 instHash = keccak256(inst);\n\n        // Verify instruction on beacon\n        require(instructionApproved(\n            true,\n            instHash,\n            beaconCommittees[beaconCommittees.length-1].startBlock,\n            instPaths[0],\n            instPathIsLefts[0],\n            instRoots[0],\n            blkData[0],\n            sigIdxs[0],\n            sigVs[0],\n            sigRs[0],\n            sigSs[0]\n        ));\n\n        // Verify instruction on bridge\n        require(instructionApproved(\n            false,\n            instHash,\n            bridgeCommittees[bridgeCommittees.length-1].startBlock,\n            instPaths[1],\n            instPathIsLefts[1],\n            instRoots[1],\n            blkData[1],\n            sigIdxs[1],\n            sigVs[1],\n            sigRs[1],\n            sigSs[1]\n        ));\n\n        // Parse instruction and check metadata\n        (uint8 meta, uint8 shard, uint startHeight, uint numVals) = extractMetaFromInstruction(inst);\n        require(meta == 71 && shard == 1);\n\n        // Make sure 1 instruction can't be used twice (using startHeight)\n        require(startHeight > bridgeCommittees[bridgeCommittees.length-1].startBlock, \"cannot change old committee\");\n\n        // Swap committee\n        address[] memory pubkeys = extractCommitteeFromInstruction(inst, numVals);\n        bridgeCommittees.push(Committee({\n            pubkeys: pubkeys,\n            startBlock: startHeight\n        }));\n\n        emit BridgeCommitteeSwapped(bridgeCommittees.length, startHeight);\n    }\n\n    /**\n     * @dev Updates the latest committee of the beacon chain\n     * @notice This function takes a swap instruction on Incognito Chain, checks for its validity and stores the latest committee\n     * @notice This only works when the contract is not Paused\n     * @notice Swapping beacon committee doesn't require that the instruction is included in the bridge chain\n     * @notice All params are the same as swapBridgeCommittee\n     */\n    function swapBeaconCommittee(\n        bytes memory inst,\n        bytes32[] memory instPath,\n        bool[] memory instPathIsLeft,\n        bytes32 instRoot,\n        bytes32 blkData,\n        uint[] memory sigIdx,\n        uint8[] memory sigV,\n        bytes32[] memory sigR,\n        bytes32[] memory sigS\n    ) public isNotPaused {\n        bytes32 instHash = keccak256(inst);\n\n        // Verify instruction on beacon\n        require(instructionApproved(\n            true,\n            instHash,\n            beaconCommittees[beaconCommittees.length-1].startBlock,\n            instPath,\n            instPathIsLeft,\n            instRoot,\n            blkData,\n            sigIdx,\n            sigV,\n            sigR,\n            sigS\n        ));\n\n        // Parse instruction and check metadata and shardID\n        (uint8 meta, uint8 shard, uint startHeight, uint numVals) = extractMetaFromInstruction(inst);\n        require(meta == 70 && shard == 1);\n\n        // Make sure 1 instruction can't be used twice (using startHeight)\n        require(startHeight > beaconCommittees[beaconCommittees.length-1].startBlock, \"cannot change old committee\");\n\n        // Swap committee\n        address[] memory pubkeys = extractCommitteeFromInstruction(inst, numVals);\n        beaconCommittees.push(Committee({\n            pubkeys: pubkeys,\n            startBlock: startHeight\n        }));\n\n        emit BeaconCommitteeSwapped(beaconCommittees.length, startHeight);\n    }\n\n    /**\n     * @dev Checks if an instruction is confirmed on chain (beacon or bridge)\n     * @notice A confirmation means that the instruction is included in a block\n     * that has enough validators' signatures\n     * @param isBeacon: check on beacon or bridge\n     * @param instHash: keccak256 hash of the instruction's content\n     * @param blkHeight: height of the block containing the instruction\n     * @param instPath: merkle path of the instruction\n     * @param instPathIsLeft: whether each node on the path is the left or right child\n     * @param instRoot: root of the merkle tree contains all instructions\n     * @param blkData: merkle has of the block body\n     * @param sigIdx: indices of the validators who signed this block\n     * @param sigV: part of the signatures of the validators\n     * @param sigR: part of the signatures of the validators\n     * @param sigS: part of the signatures of the validators\n     * @return bool: whether the instruction is valid and confirmed\n     */\n    function instructionApproved(\n        bool isBeacon,\n        bytes32 instHash,\n        uint blkHeight,\n        bytes32[] memory instPath,\n        bool[] memory instPathIsLeft,\n        bytes32 instRoot,\n        bytes32 blkData,\n        uint[] memory sigIdx,\n        uint8[] memory sigV,\n        bytes32[] memory sigR,\n        bytes32[] memory sigS\n    ) public view returns (bool) {\n        // Find committee in charge of this block\n        address[] memory signers;\n        uint _;\n        if (isBeacon) {\n            (signers, _) = findBeaconCommitteeFromHeight(blkHeight);\n        } else {\n            (signers, _) = findBridgeCommitteeFromHeight(blkHeight);\n        }\n\n        // Extract signers that signed this block (require sigIdx to be strictly increasing)\n        require(sigV.length == sigIdx.length);\n        require(sigV.length == sigR.length);\n        require(sigV.length == sigS.length);\n        for (uint i = 0; i < sigIdx.length; i++) {\n            if ((i > 0 && sigIdx[i] <= sigIdx[i-1]) || sigIdx[i] >= signers.length) {\n                return false;\n            }\n            signers[i] = signers[sigIdx[i]];\n        }\n\n        // Get double block hash from instRoot and other data\n        bytes32 blk = keccak256(abi.encodePacked(keccak256(abi.encodePacked(blkData, instRoot))));\n\n        // Check if enough validators signed this block\n        if (sigIdx.length <= signers.length * 2 / 3) {\n            return false;\n        }\n\n        // Check that signature is correct\n        require(verifySig(signers, blk, sigV, sigR, sigS));\n\n        // Check that inst is in block\n        require(instructionInMerkleTree(\n            instHash,\n            instRoot,\n            instPath,\n            instPathIsLeft\n        ));\n\n        return true;\n    }\n\n    /**\n     * @dev Finds the beacon committee in charge of signing a block height\n     * @notice This functions does a binary search of all committees (since genesis block)\n     * @param blkHeight: to search for\n     * @return committee: address of the committee members\n     * @return id: index of the committee\n     */\n    function findBeaconCommitteeFromHeight(uint blkHeight) public view returns (address[] memory, uint) {\n        uint l = 0;\n        uint r = beaconCommittees.length;\n        require(r > 0);\n        r = r - 1;\n        while (l != r) {\n            uint m = (l + r + 1) / 2;\n            if (beaconCommittees[m].startBlock <= blkHeight) {\n                l = m;\n            } else {\n                r = m - 1;\n            }\n        }\n        return (beaconCommittees[l].pubkeys, l);\n    }\n\n    /**\n     * @dev Finds the bridge committee in charge of signing a block height\n     * @notice The same as findBeaconCommitteeFromHeight but for bridge chain\n     */\n    function findBridgeCommitteeFromHeight(uint blkHeight) public view returns (address[] memory, uint) {\n        uint l = 0;\n        uint r = bridgeCommittees.length;\n        require(r > 0);\n        r = r - 1;\n        while (l != r) {\n            uint m = (l + r + 1) / 2;\n            if (bridgeCommittees[m].startBlock <= blkHeight) {\n                l = m;\n            } else {\n                r = m - 1;\n            }\n        }\n        return (bridgeCommittees[l].pubkeys, l);\n    }\n\n    /**\n     * @dev Checks if a value is in a merkle tree\n     * @param leaf: the value to check\n     * @param root: of the merkle tree\n     * @param path: merkle path of the value to check\n     * @param left: whether each node on the path is the left or right child\n     * @return bool: whether the value is in the merkle tree\n     */\n    function instructionInMerkleTree(\n        bytes32 leaf,\n        bytes32 root,\n        bytes32[] memory path,\n        bool[] memory left\n    ) public pure returns (bool) {\n        require(left.length == path.length);\n        bytes32 hash = leaf;\n        for (uint i = 0; i < path.length; i++) {\n            if (left[i]) {\n                hash = keccak256(abi.encodePacked(path[i], hash));\n            } else if (path[i] == 0x0) {\n                hash = keccak256(abi.encodePacked(hash, hash));\n            } else {\n                hash = keccak256(abi.encodePacked(hash, path[i]));\n            }\n        }\n        return hash == root;\n    }\n\n    /**\n     * @dev Extracts the metadata of a swap instruction\n     * @param inst: the full instruction, containing both metadata and body\n     * @return meta: type of the instruction, 70 for swapping beacon and 71 for bridge\n     * @return shard: ID of the Incognito shard containing the instruction, must be 1\n     * @return height: the starting block that the committee is responsible for\n     * @return numVals: number of validators in the new committee\n     */\n    function extractMetaFromInstruction(bytes memory inst) public pure returns(uint8, uint8, uint, uint) {\n        require(inst.length >= 0x42); // 0x02 bytes for meta and shard, 0x20 each for height and numVals\n        uint8 meta = uint8(inst[0]);\n        uint8 shard = uint8(inst[1]);\n        uint height;\n        uint numVals;\n        assembly {\n            // skip first 0x20 bytes (stored length of inst)\n            height := mload(add(inst, 0x22)) // [2:34]\n            numVals := mload(add(inst, 0x42)) // [34:66]\n        }\n        return (meta, shard, height, numVals);\n    }\n\n    /**\n     * @dev Extracts the committee (body) from a swap instruction\n     * @param inst: the full instruction, containing both metadata and body\n     * @param numVals: number of validators in the new committee\n     * @return committee: address of the committee members\n     */\n    function extractCommitteeFromInstruction(bytes memory inst, uint numVals) public pure returns (address[] memory) {\n        require(inst.length == 0x42 + numVals * 0x20);\n        address[] memory addr = new address[](numVals);\n        address tmp;\n        for (uint i = 0; i < numVals; i++) {\n            assembly {\n                // skip first 0x20 bytes (stored length of inst)\n                // also, skip the next 0x42 bytes (stored metadata)\n                tmp := mload(add(add(inst, 0x62), mul(i, 0x20))) // 67+i*32\n            }\n            addr[i] = tmp;\n        }\n        return addr;\n    }\n\n    /**\n     * @dev Verifies that the signatures for a message are correct\n     * @param msgHash: the message to be verify\n     * @param v: part of the signatures\n     * @param r: part of the signatures\n     * @param s: part of the signatures\n     * @return bool: whether all signatures are correct\n     */\n    function verifySig(\n        address[] memory committee,\n        bytes32 msgHash,\n        uint8[] memory v,\n        bytes32[] memory r,\n        bytes32[] memory s\n    ) public pure returns (bool) {\n        require(v.length == r.length);\n        require(v.length == s.length);\n        for (uint i = 0; i < v.length; i++){\n            if (ecrecover(msgHash, v[i], r[i], s[i]) != committee[i]) {\n                return false;\n            }\n        }\n        return true;\n    }\n}\n",
  "sourcePath": "/Users/mac/coding/go/src/github.com/kien-incognito/0x-interaction/contracts/IncognitoProxy.sol",
  "compiler": {
    "name": "solc",
    "version": "0.5.16+commit.9c3226ce.Emscripten.clang"
  },
  "schemaVersion": "3.0.23",
  "updatedAt": "2020-02-27T06:07:50.466Z",
  "devdoc": {
    "details": "Stores beacon and bridge committee members of Incognito Chain. Other contracts can query this contract to check if an instruction is confimed on Incognito",
    "methods": {
      "constructor": {
        "details": "Sets the genesis committees and the address of admin",
        "params": {
          "admin": ": ETH address",
          "beaconCommittee": ": genesis committee members of beacon chain",
          "bridgeCommittee": ": genesis committee members of bridge"
        }
      },
      "extractCommitteeFromInstruction(bytes,uint256)": {
        "details": "Extracts the committee (body) from a swap instruction",
        "params": {
          "inst": ": the full instruction, containing both metadata and body",
          "numVals": ": number of validators in the new committee"
        },
        "return": "committee: address of the committee members"
      },
      "extractMetaFromInstruction(bytes)": {
        "details": "Extracts the metadata of a swap instruction",
        "params": {
          "inst": ": the full instruction, containing both metadata and body"
        },
        "return": "meta: type of the instruction, 70 for swapping beacon and 71 for bridgeshard: ID of the Incognito shard containing the instruction, must be 1height: the starting block that the committee is responsible fornumVals: number of validators in the new committee"
      },
      "findBeaconCommitteeFromHeight(uint256)": {
        "details": "Finds the beacon committee in charge of signing a block height",
        "params": {
          "blkHeight": ": to search for"
        },
        "return": "committee: address of the committee membersid: index of the committee"
      },
      "findBridgeCommitteeFromHeight(uint256)": {
        "details": "Finds the bridge committee in charge of signing a block height"
      },
      "getBeaconCommittee(uint256)": {
        "details": "Gets a beacon committee in the past",
        "params": {
          "i": "index of the committee to get"
        },
        "return": "the committee and their startBlock"
      },
      "getBridgeCommittee(uint256)": {
        "details": "Gets a bridge committee in the past"
      },
      "instructionApproved(bool,bytes32,uint256,bytes32[],bool[],bytes32,bytes32,uint256[],uint8[],bytes32[],bytes32[])": {
        "details": "Checks if an instruction is confirmed on chain (beacon or bridge)",
        "params": {
          "blkData": ": merkle has of the block body",
          "blkHeight": ": height of the block containing the instruction",
          "instHash": ": keccak256 hash of the instruction's content",
          "instPath": ": merkle path of the instruction",
          "instPathIsLeft": ": whether each node on the path is the left or right child",
          "instRoot": ": root of the merkle tree contains all instructions",
          "isBeacon": ": check on beacon or bridge",
          "sigIdx": ": indices of the validators who signed this block",
          "sigR": ": part of the signatures of the validators",
          "sigS": ": part of the signatures of the validators",
          "sigV": ": part of the signatures of the validators"
        },
        "return": "bool: whether the instruction is valid and confirmed"
      },
      "instructionInMerkleTree(bytes32,bytes32,bytes32[],bool[])": {
        "details": "Checks if a value is in a merkle tree",
        "params": {
          "leaf": ": the value to check",
          "left": ": whether each node on the path is the left or right child",
          "path": ": merkle path of the value to check",
          "root": ": of the merkle tree"
        },
        "return": "bool: whether the value is in the merkle tree"
      },
      "swapBeaconCommittee(bytes,bytes32[],bool[],bytes32,bytes32,uint256[],uint8[],bytes32[],bytes32[])": {
        "details": "Updates the latest committee of the beacon chain"
      },
      "swapBridgeCommittee(bytes,bytes32[][2],bool[][2],bytes32[2],bytes32[2],uint256[][2],uint8[][2],bytes32[][2],bytes32[][2])": {
        "details": "Updates the latest committee of the bridge",
        "params": {
          "blkData": ": merkle has of the block body",
          "inst": ": the decoded instruction as a list of bytes",
          "instPathIsLefts": ": whether each node on the path is the left or right child",
          "instPaths": ": merkle path of the instruction",
          "instRoots": ": root of the merkle tree contains all instructions",
          "sigIdxs": ": indices of the validators who signed this block",
          "sigRs": ": part of the signatures of the validators",
          "sigSs": ": part of the signatures of the validators",
          "sigVs": ": part of the signatures of the validators"
        }
      },
      "verifySig(address[],bytes32,uint8[],bytes32[],bytes32[])": {
        "details": "Verifies that the signatures for a message are correct",
        "params": {
          "msgHash": ": the message to be verify",
          "r": ": part of the signatures",
          "s": ": part of the signatures",
          "v": ": part of the signatures"
        },
        "return": "bool: whether all signatures are correct"
      }
    }
  },
  "userdoc": {
    "methods": {
      "constructor": "Admin is the one responsible for the contract in case of emergency Here, they are authorized to Pause the contract, stopping new committees from being added to the contract Admin is authorized to Pause the contract at anytime for 1 year starting from the moment the contract is deployed Admin is also authorized to increase the expiration time if they need more time to implement a more decentralized failsafe mechanismAdmin can also be a smart contract implementing a DAO and making decisions through a voting system",
      "findBeaconCommitteeFromHeight(uint256)": {
        "notice": "This functions does a binary search of all committees (since genesis block)"
      },
      "findBridgeCommitteeFromHeight(uint256)": {
        "notice": "The same as findBeaconCommitteeFromHeight but for bridge chain"
      },
      "getBeaconCommittee(uint256)": {
        "notice": "We need to implement this because the autogenerated getter returns only the startBlock"
      },
      "getBridgeCommittee(uint256)": {
        "notice": "the same as getBeaconCommittee but for bridge"
      },
      "instructionApproved(bool,bytes32,uint256,bytes32[],bool[],bytes32,bytes32,uint256[],uint8[],bytes32[],bytes32[])": {
        "notice": "A confirmation means that the instruction is included in a block that has enough validators' signatures"
      },
      "swapBeaconCommittee(bytes,bytes32[],bool[],bytes32,bytes32,uint256[],uint8[],bytes32[],bytes32[])": {
        "notice": "This function takes a swap instruction on Incognito Chain, checks for its validity and stores the latest committeeThis only works when the contract is not PausedSwapping beacon committee doesn't require that the instruction is included in the bridge chainAll params are the same as swapBridgeCommittee"
      },
      "swapBridgeCommittee(bytes,bytes32[][2],bool[][2],bytes32[2],bytes32[2],uint256[][2],uint8[][2],bytes32[][2],bytes32[][2])": {
        "notice": "This function takes a swap instruction on Incognito Chain, checks for its validity and stores the latest committeeThis only works when the contract is not PausedAll params except inst are the list of 2 elements corresponding to the proof on beacon and bridge"
      }
    }
  }
}