{
  "contractName": "KBNTrade",
  "abi": [
    {
      "inputs": [
        {
          "internalType": "contract KyberNetwork",
          "name": "_kyberNetworkProxyContract",
          "type": "address"
        },
        {
          "internalType": "address payable",
          "name": "_incognitoSmartContract",
          "type": "address"
        }
      ],
      "payable": false,
      "stateMutability": "nonpayable",
      "type": "constructor"
    },
    {
      "payable": true,
      "stateMutability": "payable",
      "type": "fallback"
    },
    {
      "constant": true,
      "inputs": [],
      "name": "ETH_CONTRACT_ADDRESS",
      "outputs": [
        {
          "internalType": "contract ERC20",
          "name": "",
          "type": "address"
        }
      ],
      "payable": false,
      "stateMutability": "view",
      "type": "function"
    },
    {
      "constant": true,
      "inputs": [],
      "name": "incognitoSmartContract",
      "outputs": [
        {
          "internalType": "address payable",
          "name": "",
          "type": "address"
        }
      ],
      "payable": false,
      "stateMutability": "view",
      "type": "function"
    },
    {
      "constant": true,
      "inputs": [],
      "name": "kyberNetworkProxyContract",
      "outputs": [
        {
          "internalType": "contract KyberNetwork",
          "name": "",
          "type": "address"
        }
      ],
      "payable": false,
      "stateMutability": "view",
      "type": "function"
    },
    {
      "constant": true,
      "inputs": [
        {
          "internalType": "contract ERC20",
          "name": "srcToken",
          "type": "address"
        },
        {
          "internalType": "uint256",
          "name": "srcQty",
          "type": "uint256"
        },
        {
          "internalType": "contract ERC20",
          "name": "destToken",
          "type": "address"
        }
      ],
      "name": "getConversionRates",
      "outputs": [
        {
          "internalType": "uint256",
          "name": "",
          "type": "uint256"
        },
        {
          "internalType": "uint256",
          "name": "",
          "type": "uint256"
        }
      ],
      "payable": false,
      "stateMutability": "view",
      "type": "function"
    },
    {
      "constant": false,
      "inputs": [
        {
          "internalType": "contract ERC20",
          "name": "srcToken",
          "type": "address"
        },
        {
          "internalType": "uint256",
          "name": "srcQty",
          "type": "uint256"
        },
        {
          "internalType": "contract ERC20",
          "name": "destToken",
          "type": "address"
        }
      ],
      "name": "trade",
      "outputs": [
        {
          "internalType": "address",
          "name": "",
          "type": "address"
        },
        {
          "internalType": "uint256",
          "name": "",
          "type": "uint256"
        }
      ],
      "payable": true,
      "stateMutability": "payable",
      "type": "function"
    }
  ],
  "bytecode": "0x608060405234801561001057600080fd5b506040516111ff3803806111ff8339818101604052604081101561003357600080fd5b81019080805190602001909291908051906020019092919050505081600160006101000a81548173ffffffffffffffffffffffffffffffffffffffff021916908373ffffffffffffffffffffffffffffffffffffffff160217905550806000806101000a81548173ffffffffffffffffffffffffffffffffffffffff021916908373ffffffffffffffffffffffffffffffffffffffff160217905550505061111f806100e06000396000f3fe60806040526004361061004a5760003560e01c80630aea81881461004c5780630e32db52146100e257806372e94bf614610197578063785250da146101ee578063b42a644b14610245575b005b34801561005857600080fd5b506100c56004803603606081101561006f57600080fd5b81019080803573ffffffffffffffffffffffffffffffffffffffff16906020019092919080359060200190929190803573ffffffffffffffffffffffffffffffffffffffff16906020019092919050505061029c565b604051808381526020018281526020019250505060405180910390f35b61014e600480360360608110156100f857600080fd5b81019080803573ffffffffffffffffffffffffffffffffffffffff16906020019092919080359060200190929190803573ffffffffffffffffffffffffffffffffffffffff1690602001909291905050506103ca565b604051808373ffffffffffffffffffffffffffffffffffffffff1673ffffffffffffffffffffffffffffffffffffffff1681526020018281526020019250505060405180910390f35b3480156101a357600080fd5b506101ac610581565b604051808273ffffffffffffffffffffffffffffffffffffffff1673ffffffffffffffffffffffffffffffffffffffff16815260200191505060405180910390f35b3480156101fa57600080fd5b50610203610586565b604051808273ffffffffffffffffffffffffffffffffffffffff1673ffffffffffffffffffffffffffffffffffffffff16815260200191505060405180910390f35b34801561025157600080fd5b5061025a6105ac565b604051808273ffffffffffffffffffffffffffffffffffffffff1673ffffffffffffffffffffffffffffffffffffffff16815260200191505060405180910390f35b600080600160009054906101000a900473ffffffffffffffffffffffffffffffffffffffff1673ffffffffffffffffffffffffffffffffffffffff1663809a9e558685876040518463ffffffff1660e01b8152600401808473ffffffffffffffffffffffffffffffffffffffff1673ffffffffffffffffffffffffffffffffffffffff1681526020018373ffffffffffffffffffffffffffffffffffffffff1673ffffffffffffffffffffffffffffffffffffffff1681526020018281526020019350505050604080518083038186803b15801561037957600080fd5b505afa15801561038d573d6000803e3d6000fd5b505050506040513d60408110156103a357600080fd5b81019080805190602001909291908051906020019092919050505091509150935093915050565b6000806000809054906101000a900473ffffffffffffffffffffffffffffffffffffffff1673ffffffffffffffffffffffffffffffffffffffff163373ffffffffffffffffffffffffffffffffffffffff161461042657600080fd5b83610430866105d1565b101561043b57600080fd5b8273ffffffffffffffffffffffffffffffffffffffff168573ffffffffffffffffffffffffffffffffffffffff16141561047457600080fd5b6000809050600073ffffffffffffffffffffffffffffffffffffffff168673ffffffffffffffffffffffffffffffffffffffff1614610546576104da86600160009054906101000a900473ffffffffffffffffffffffffffffffffffffffff16876106cf565b600073ffffffffffffffffffffffffffffffffffffffff168473ffffffffffffffffffffffffffffffffffffffff161461052a57600061051b8787876108a0565b1161052557600080fd5b610541565b60006105368787610aef565b1161054057600080fd5b5b61055d565b60006105528587610d1d565b1161055c57600080fd5b5b610566846105d1565b90506105728482610f52565b83819250925050935093915050565b600081565b600160009054906101000a900473ffffffffffffffffffffffffffffffffffffffff1681565b6000809054906101000a900473ffffffffffffffffffffffffffffffffffffffff1681565b60008073ffffffffffffffffffffffffffffffffffffffff168273ffffffffffffffffffffffffffffffffffffffff16141561060f574790506106ca565b8173ffffffffffffffffffffffffffffffffffffffff166370a08231306040518263ffffffff1660e01b8152600401808273ffffffffffffffffffffffffffffffffffffffff1673ffffffffffffffffffffffffffffffffffffffff16815260200191505060206040518083038186803b15801561068c57600080fd5b505afa1580156106a0573d6000803e3d6000fd5b505050506040513d60208110156106b657600080fd5b810190808051906020019092919050505090505b919050565b600073ffffffffffffffffffffffffffffffffffffffff168373ffffffffffffffffffffffffffffffffffffffff161461089b578273ffffffffffffffffffffffffffffffffffffffff1663095ea7b38360006040518363ffffffff1660e01b8152600401808373ffffffffffffffffffffffffffffffffffffffff1673ffffffffffffffffffffffffffffffffffffffff16815260200182815260200192505050602060405180830381600087803b15801561078b57600080fd5b505af115801561079f573d6000803e3d6000fd5b505050506040513d60208110156107b557600080fd5b81019080805190602001909291905050506107cf57600080fd5b8273ffffffffffffffffffffffffffffffffffffffff1663095ea7b383836040518363ffffffff1660e01b8152600401808373ffffffffffffffffffffffffffffffffffffffff1673ffffffffffffffffffffffffffffffffffffffff16815260200182815260200192505050602060405180830381600087803b15801561085657600080fd5b505af115801561086a573d6000803e3d6000fd5b505050506040513d602081101561088057600080fd5b810190808051906020019092919050505061089a57600080fd5b5b505050565b600080600160009054906101000a900473ffffffffffffffffffffffffffffffffffffffff1673ffffffffffffffffffffffffffffffffffffffff1663809a9e558685876040518463ffffffff1660e01b8152600401808473ffffffffffffffffffffffffffffffffffffffff1673ffffffffffffffffffffffffffffffffffffffff1681526020018373ffffffffffffffffffffffffffffffffffffffff1673ffffffffffffffffffffffffffffffffffffffff1681526020018281526020019350505050604080518083038186803b15801561097d57600080fd5b505afa158015610991573d6000803e3d6000fd5b505050506040513d60408110156109a757600080fd5b810190808051906020019092919080519060200190929190505050509050600160009054906101000a900473ffffffffffffffffffffffffffffffffffffffff1673ffffffffffffffffffffffffffffffffffffffff16637409e2eb868686856040518563ffffffff1660e01b8152600401808573ffffffffffffffffffffffffffffffffffffffff1673ffffffffffffffffffffffffffffffffffffffff1681526020018481526020018373ffffffffffffffffffffffffffffffffffffffff1673ffffffffffffffffffffffffffffffffffffffff168152602001828152602001945050505050602060405180830381600087803b158015610aaa57600080fd5b505af1158015610abe573d6000803e3d6000fd5b505050506040513d6020811015610ad457600080fd5b81019080805190602001909291905050509150509392505050565b600080600160009054906101000a900473ffffffffffffffffffffffffffffffffffffffff1673ffffffffffffffffffffffffffffffffffffffff1663809a9e558573eeeeeeeeeeeeeeeeeeeeeeeeeeeeeeeeeeeeeeee866040518463ffffffff1660e01b8152600401808473ffffffffffffffffffffffffffffffffffffffff1673ffffffffffffffffffffffffffffffffffffffff1681526020018373ffffffffffffffffffffffffffffffffffffffff1673ffffffffffffffffffffffffffffffffffffffff1681526020018281526020019350505050604080518083038186803b158015610be057600080fd5b505afa158015610bf4573d6000803e3d6000fd5b505050506040513d6040811015610c0a57600080fd5b810190808051906020019092919080519060200190929190505050509050600160009054906101000a900473ffffffffffffffffffffffffffffffffffffffff1673ffffffffffffffffffffffffffffffffffffffff16633bba21dc8585846040518463ffffffff1660e01b8152600401808473ffffffffffffffffffffffffffffffffffffffff1673ffffffffffffffffffffffffffffffffffffffff1681526020018381526020018281526020019350505050602060405180830381600087803b158015610cd957600080fd5b505af1158015610ced573d6000803e3d6000fd5b505050506040513d6020811015610d0357600080fd5b810190808051906020019092919050505091505092915050565b600081471015610d2c57600080fd5b6000600160009054906101000a900473ffffffffffffffffffffffffffffffffffffffff1673ffffffffffffffffffffffffffffffffffffffff1663809a9e5573eeeeeeeeeeeeeeeeeeeeeeeeeeeeeeeeeeeeeeee86346040518463ffffffff1660e01b8152600401808473ffffffffffffffffffffffffffffffffffffffff1673ffffffffffffffffffffffffffffffffffffffff1681526020018373ffffffffffffffffffffffffffffffffffffffff1673ffffffffffffffffffffffffffffffffffffffff1681526020018281526020019350505050604080518083038186803b158015610e1c57600080fd5b505afa158015610e30573d6000803e3d6000fd5b505050506040513d6040811015610e4657600080fd5b810190808051906020019092919080519060200190929190505050509050600160009054906101000a900473ffffffffffffffffffffffffffffffffffffffff1673ffffffffffffffffffffffffffffffffffffffff16637a2a04568486846040518463ffffffff1660e01b8152600401808373ffffffffffffffffffffffffffffffffffffffff1673ffffffffffffffffffffffffffffffffffffffff168152602001828152602001925050506020604051808303818588803b158015610f0d57600080fd5b505af1158015610f21573d6000803e3d6000fd5b50505050506040513d6020811015610f3857600080fd5b810190808051906020019092919050505091505092915050565b600073ffffffffffffffffffffffffffffffffffffffff168273ffffffffffffffffffffffffffffffffffffffff1614156110015780471015610f9457600080fd5b6000809054906101000a900473ffffffffffffffffffffffffffffffffffffffff1673ffffffffffffffffffffffffffffffffffffffff166108fc829081150290604051600060405180830381858888f19350505050158015610ffb573d6000803e3d6000fd5b506110e6565b8173ffffffffffffffffffffffffffffffffffffffff1663a9059cbb6000809054906101000a900473ffffffffffffffffffffffffffffffffffffffff16836040518363ffffffff1660e01b8152600401808373ffffffffffffffffffffffffffffffffffffffff1673ffffffffffffffffffffffffffffffffffffffff16815260200182815260200192505050602060405180830381600087803b1580156110a957600080fd5b505af11580156110bd573d6000803e3d6000fd5b505050506040513d60208110156110d357600080fd5b8101908080519060200190929190505050505b505056fea265627a7a72315820883ffc6fb4d121d8840df63fec4a1b94ed2fbe150c8818713a2fe2312993099b64736f6c63430005100032",
  "source": "pragma solidity ^0.5.12;\n\nimport './utils.sol';\nimport './IERC20.sol';\n\ncontract KyberNetwork {\n    function trade(ERC20 src, uint srcAmount, ERC20 dest, address destAddress, uint maxDestAmount, uint minConversionRate, address walletId) public payable returns(uint);\n    function swapTokenToToken(ERC20 src, uint srcAmount, ERC20 dest, uint minConversionRate) public returns(uint);\n    function swapEtherToToken(ERC20 token, uint minConversionRate) public payable returns(uint);\n    function swapTokenToEther(ERC20 token, uint srcAmount, uint minConversionRate) public returns(uint);\n    function getExpectedRate(ERC20 src, ERC20 dest, uint srcQty) public view returns(uint expectedRate, uint slippageRate);\n}\n\ncontract KBNTrade is TradeUtils {\n    // Variables\n    KyberNetwork public kyberNetworkProxyContract;\n    ERC20 constant KYBER_ETH_TOKEN_ADDRESS = ERC20(0xEeeeeEeeeEeEeeEeEeEeeEEEeeeeEeeeeeeeEEeE);\n\n    // Functions\n    /**\n     * @dev Contract constructor\n     * @param _kyberNetworkProxyContract KyberNetworkProxy contract address\n     */\n    constructor(KyberNetwork _kyberNetworkProxyContract, address payable _incognitoSmartContract) public {\n        kyberNetworkProxyContract = _kyberNetworkProxyContract;\n        incognitoSmartContract = _incognitoSmartContract;\n    }\n    \n    // fallback function which allows transfer eth.\n    function() external payable {}\n\n    /**\n     * @dev Gets the conversion rate for the destToken given the srcQty.\n     * @param srcToken source token contract address\n     * @param srcQty amount of source tokens\n     * @param destToken destination token contract address\n     */\n    function getConversionRates(ERC20 srcToken, uint srcQty, ERC20 destToken) public view returns (uint, uint) {\n        return kyberNetworkProxyContract.getExpectedRate(srcToken, destToken, srcQty);\n    }\n\n    function trade(ERC20 srcToken, uint srcQty, ERC20 destToken) public payable isIncognitoSmartContract returns (address, uint) {\n        require(balanceOf(srcToken) >= srcQty);\n        require(srcToken != destToken);\n        uint amount = 0;\n        if (srcToken != ETH_CONTRACT_ADDRESS) {\n            // approve\n            approve(srcToken, address(kyberNetworkProxyContract), srcQty);\n            if (destToken != ETH_CONTRACT_ADDRESS) { // token to token.\n                require(tokenToToken(srcToken, srcQty, destToken) > 0);\n            } else {\n                require(tokenToEth(srcToken, srcQty) > 0);\n            }\n        } else {\n            require(ethToToken(destToken, srcQty) > 0);\n        }\n        // transfer back to incognito smart contract\n        amount = balanceOf(destToken);\n        transfer(destToken, amount);\n        return (address(destToken), amount);\n    }\n    \n    function ethToToken(ERC20 token, uint srcQty) internal returns (uint) {\n        // Get the minimum conversion rate\n        require(address(this).balance >= srcQty);\n        (uint minConversionRate,) = kyberNetworkProxyContract.getExpectedRate(KYBER_ETH_TOKEN_ADDRESS, token, msg.value);\n        return kyberNetworkProxyContract.swapEtherToToken.value(srcQty)(token, minConversionRate);\n    }\n    \n    function tokenToEth(ERC20 token, uint amount) internal returns (uint) {\n        (uint minConversionRate,) = kyberNetworkProxyContract.getExpectedRate(token, KYBER_ETH_TOKEN_ADDRESS, amount);\n        return kyberNetworkProxyContract.swapTokenToEther(token, amount, minConversionRate);\n    }\n    \n    function tokenToToken(ERC20 srcToken, uint srcQty, ERC20 destToken) internal returns (uint) {\n        (uint minConversionRate,) = kyberNetworkProxyContract.getExpectedRate(srcToken, destToken, srcQty);\n        return kyberNetworkProxyContract.swapTokenToToken(srcToken, srcQty, destToken, minConversionRate);\n    }\n}\n",
  "sourcePath": "/Users/mac/coding/go/src/github.com/kien-incognito/0x-interaction/contracts/KBNTrade.sol",
  "compiler": {
    "name": "solc",
    "version": "0.5.16+commit.9c3226ce.Emscripten.clang"
  },
  "schemaVersion": "3.0.23",
  "updatedAt": "2020-02-28T07:02:20.974Z",
  "devdoc": {
    "methods": {
      "constructor": {
        "details": "Contract constructor",
        "params": {
          "_kyberNetworkProxyContract": "KyberNetworkProxy contract address"
        }
      },
      "getConversionRates(address,uint256,address)": {
        "details": "Gets the conversion rate for the destToken given the srcQty.",
        "params": {
          "destToken": "destination token contract address",
          "srcQty": "amount of source tokens",
          "srcToken": "source token contract address"
        }
      }
    }
  },
  "userdoc": {
    "methods": {}
  }
}