{
  "contractName": "TradeUtils",
  "abi": [
    {
      "payable": true,
      "stateMutability": "payable",
      "type": "fallback"
    },
    {
      "constant": true,
      "inputs": [],
      "name": "ETH_CONTRACT_ADDRESS",
      "outputs": [
        {
          "internalType": "contract ERC20",
          "name": "",
          "type": "address"
        }
      ],
      "payable": false,
      "stateMutability": "view",
      "type": "function"
    },
    {
      "constant": true,
      "inputs": [],
      "name": "incognitoSmartContract",
      "outputs": [
        {
          "internalType": "address payable",
          "name": "",
          "type": "address"
        }
      ],
      "payable": false,
      "stateMutability": "view",
      "type": "function"
    }
  ],
  "bytecode": "0x608060405234801561001057600080fd5b5061012f806100206000396000f3fe60806040526004361060265760003560e01c806372e94bf6146028578063b42a644b14607c575b005b348015603357600080fd5b50603a60d0565b604051808273ffffffffffffffffffffffffffffffffffffffff1673ffffffffffffffffffffffffffffffffffffffff16815260200191505060405180910390f35b348015608757600080fd5b50608e60d5565b604051808273ffffffffffffffffffffffffffffffffffffffff1673ffffffffffffffffffffffffffffffffffffffff16815260200191505060405180910390f35b600081565b6000809054906101000a900473ffffffffffffffffffffffffffffffffffffffff168156fea265627a7a72315820ea2e3cb0a42a459dd4c0c1b0b9da2683d0c65c01acbc8325eac8159af2497ed864736f6c63430005100032",
  "source": "pragma solidity >= 0.5.12;\n\nimport './IERC20.sol';\n\ncontract TradeUtils {\n\tERC20 constant public ETH_CONTRACT_ADDRESS = ERC20(0x0000000000000000000000000000000000000000);\n\taddress payable public incognitoSmartContract;\n\t\n\tmodifier isIncognitoSmartContract {\n\t    require(msg.sender == incognitoSmartContract);\n\t    _;\n\t}\n\t\n\t// fallback function is used to receive eth.\n\tfunction() external payable {}\n\t\n\tfunction balanceOf(ERC20 token) internal view returns (uint256) {\n\t\tif (token == ETH_CONTRACT_ADDRESS) {\n\t\t\treturn address(this).balance;\n\t\t}\n        return token.balanceOf(address(this));\n    }\n\n\tfunction transfer(ERC20 token, uint amount) internal {\n\t\tif (token == ETH_CONTRACT_ADDRESS) {\n\t\t\trequire(address(this).balance >= amount);\n\t\t\tincognitoSmartContract.transfer(amount);\n\t\t} else {\n\t\t\ttoken.transfer(incognitoSmartContract, amount);\n\t\t}\n\t}\n\n\tfunction approve(ERC20 token, address proxy, uint amount) internal {\n\t\tif (token != ETH_CONTRACT_ADDRESS) {\n\t\t\trequire(token.approve(proxy, 0));\n\t\t\trequire(token.approve(proxy, amount));\n\t\t}\n\t}\n}\n",
  "sourcePath": "/Users/mac/coding/go/src/github.com/kien-incognito/0x-interaction/contracts/utils.sol",
  "compiler": {
    "name": "solc",
    "version": "0.5.16+commit.9c3226ce.Emscripten.clang"
  },
  "schemaVersion": "3.0.23",
  "updatedAt": "2020-02-28T07:02:20.995Z",
  "devdoc": {
    "methods": {}
  },
  "userdoc": {
    "methods": {}
  }
}