{
  "contractName": "ZRXTrade",
  "abi": [
    {
      "inputs": [
        {
          "internalType": "address",
          "name": "_wETH",
          "type": "address"
        },
        {
          "internalType": "address",
          "name": "_zeroProxy",
          "type": "address"
        },
        {
          "internalType": "address payable",
          "name": "_incognitoSmartContract",
          "type": "address"
        }
      ],
      "payable": false,
      "stateMutability": "nonpayable",
      "type": "constructor"
    },
    {
      "payable": true,
      "stateMutability": "payable",
      "type": "fallback"
    },
    {
      "constant": true,
      "inputs": [],
      "name": "ETH_CONTRACT_ADDRESS",
      "outputs": [
        {
          "internalType": "contract ERC20",
          "name": "",
          "type": "address"
        }
      ],
      "payable": false,
      "stateMutability": "view",
      "type": "function"
    },
    {
      "constant": true,
      "inputs": [],
      "name": "incognitoSmartContract",
      "outputs": [
        {
          "internalType": "address payable",
          "name": "",
          "type": "address"
        }
      ],
      "payable": false,
      "stateMutability": "view",
      "type": "function"
    },
    {
      "constant": false,
      "inputs": [
        {
          "internalType": "contract ERC20",
          "name": "srcToken",
          "type": "address"
        },
        {
          "internalType": "uint256",
          "name": "amount",
          "type": "uint256"
        },
        {
          "internalType": "contract ERC20",
          "name": "destToken",
          "type": "address"
        },
        {
          "internalType": "bytes",
          "name": "callDataHex",
          "type": "bytes"
        },
        {
          "internalType": "address",
          "name": "_forwarder",
          "type": "address"
        }
      ],
      "name": "trade",
      "outputs": [
        {
          "internalType": "address",
          "name": "",
          "type": "address"
        },
        {
          "internalType": "uint256",
          "name": "",
          "type": "uint256"
        }
      ],
      "payable": true,
      "stateMutability": "payable",
      "type": "function"
    },
    {
      "constant": false,
      "inputs": [
        {
          "internalType": "uint256",
          "name": "amount",
          "type": "uint256"
        }
      ],
      "name": "withdrawWrapETH",
      "outputs": [],
      "payable": false,
      "stateMutability": "nonpayable",
      "type": "function"
    }
  ],
  "bytecode": "0x60806040523480156200001157600080fd5b5060405162000ed138038062000ed1833981810160405262000037919081019062000130565b81600160006101000a81548173ffffffffffffffffffffffffffffffffffffffff021916908373ffffffffffffffffffffffffffffffffffffffff160217905550806000806101000a81548173ffffffffffffffffffffffffffffffffffffffff021916908373ffffffffffffffffffffffffffffffffffffffff16021790555082600260006101000a81548173ffffffffffffffffffffffffffffffffffffffff021916908373ffffffffffffffffffffffffffffffffffffffff16021790555050505062000202565b6000815190506200011381620001ce565b92915050565b6000815190506200012a81620001e8565b92915050565b6000806000606084860312156200014657600080fd5b6000620001568682870162000102565b9350506020620001698682870162000102565b92505060406200017c8682870162000119565b9150509250925092565b60006200019382620001ae565b9050919050565b6000620001a782620001ae565b9050919050565b600073ffffffffffffffffffffffffffffffffffffffff82169050919050565b620001d98162000186565b8114620001e557600080fd5b50565b620001f3816200019a565b8114620001ff57600080fd5b50565b610cbf80620002126000396000f3fe60806040526004361061003f5760003560e01c80630e0569a61461004157806372e94bf61461006a57806398c3615214610095578063b42a644b146100c6575b005b34801561004d57600080fd5b50610068600480360361006391908101906108bc565b6100f1565b005b34801561007657600080fd5b5061007f610181565b60405161008c9190610a61565b60405180910390f35b6100af60048036036100aa919081019061082d565b610186565b6040516100bd929190610a38565b60405180910390f35b3480156100d257600080fd5b506100db610310565b6040516100e891906109cb565b60405180910390f35b600260009054906101000a900473ffffffffffffffffffffffffffffffffffffffff1673ffffffffffffffffffffffffffffffffffffffff16632e1a7d4d826040518263ffffffff1660e01b815260040161014c9190610a7c565b600060405180830381600087803b15801561016657600080fd5b505af115801561017a573d6000803e3d6000fd5b5050505050565b600081565b6000806000809054906101000a900473ffffffffffffffffffffffffffffffffffffffff1673ffffffffffffffffffffffffffffffffffffffff163373ffffffffffffffffffffffffffffffffffffffff16146101e257600080fd5b61020f87600160009054906101000a900473ffffffffffffffffffffffffffffffffffffffff1688610335565b600083905060008173ffffffffffffffffffffffffffffffffffffffff16348760405161023c9190610999565b60006040518083038185875af1925050503d8060008114610279576040519150601f19603f3d011682016040523d82523d6000602084013e61027e565b606091505b505090508061028c57600080fd5b60008073ffffffffffffffffffffffffffffffffffffffff168873ffffffffffffffffffffffffffffffffffffffff1614156102e7576102cc600061049c565b90506102d7816100f1565b6102e2600082610515565b6102fd565b6102f08861049c565b90506102fc8882610515565b5b8781945094505050509550959350505050565b6000809054906101000a900473ffffffffffffffffffffffffffffffffffffffff1681565b600073ffffffffffffffffffffffffffffffffffffffff168373ffffffffffffffffffffffffffffffffffffffff1614610497578273ffffffffffffffffffffffffffffffffffffffff1663095ea7b38360006040518363ffffffff1660e01b81526004016103a5929190610a0f565b602060405180830381600087803b1580156103bf57600080fd5b505af11580156103d3573d6000803e3d6000fd5b505050506040513d601f19601f820116820180604052506103f79190810190610804565b61040057600080fd5b8273ffffffffffffffffffffffffffffffffffffffff1663095ea7b383836040518363ffffffff1660e01b815260040161043b929190610a38565b602060405180830381600087803b15801561045557600080fd5b505af1158015610469573d6000803e3d6000fd5b505050506040513d601f19601f8201168201806040525061048d9190810190610804565b61049657600080fd5b5b505050565b60008073ffffffffffffffffffffffffffffffffffffffff168273ffffffffffffffffffffffffffffffffffffffff161415610504576104fd600260009054906101000a900473ffffffffffffffffffffffffffffffffffffffff16610678565b9050610510565b61050d82610678565b90505b919050565b600073ffffffffffffffffffffffffffffffffffffffff168273ffffffffffffffffffffffffffffffffffffffff1614156105c4578047101561055757600080fd5b6000809054906101000a900473ffffffffffffffffffffffffffffffffffffffff1673ffffffffffffffffffffffffffffffffffffffff166108fc829081150290604051600060405180830381858888f193505050501580156105be573d6000803e3d6000fd5b50610674565b8173ffffffffffffffffffffffffffffffffffffffff1663a9059cbb6000809054906101000a900473ffffffffffffffffffffffffffffffffffffffff16836040518363ffffffff1660e01b81526004016106209291906109e6565b602060405180830381600087803b15801561063a57600080fd5b505af115801561064e573d6000803e3d6000fd5b505050506040513d601f19601f820116820180604052506106729190810190610804565b505b5050565b60008073ffffffffffffffffffffffffffffffffffffffff168273ffffffffffffffffffffffffffffffffffffffff1614156106b657479050610742565b8173ffffffffffffffffffffffffffffffffffffffff166370a08231306040518263ffffffff1660e01b81526004016106ef91906109b0565b60206040518083038186803b15801561070757600080fd5b505afa15801561071b573d6000803e3d6000fd5b505050506040513d601f19601f8201168201806040525061073f91908101906108e5565b90505b919050565b60008135905061075681610c20565b92915050565b60008151905061076b81610c37565b92915050565b600082601f83011261078257600080fd5b813561079561079082610ac4565b610a97565b915080825260208301602083018583830111156107b157600080fd5b6107bc838284610bde565b50505092915050565b6000813590506107d481610c4e565b92915050565b6000813590506107e981610c65565b92915050565b6000815190506107fe81610c65565b92915050565b60006020828403121561081657600080fd5b60006108248482850161075c565b91505092915050565b600080600080600060a0868803121561084557600080fd5b6000610853888289016107c5565b9550506020610864888289016107da565b9450506040610875888289016107c5565b935050606086013567ffffffffffffffff81111561089257600080fd5b61089e88828901610771565b92505060806108af88828901610747565b9150509295509295909350565b6000602082840312156108ce57600080fd5b60006108dc848285016107da565b91505092915050565b6000602082840312156108f757600080fd5b6000610905848285016107ef565b91505092915050565b61091781610b72565b82525050565b61092681610b18565b82525050565b61093581610b06565b82525050565b600061094682610af0565b6109508185610afb565b9350610960818560208601610bed565b80840191505092915050565b61097581610b84565b82525050565b61098481610ba8565b82525050565b61099381610b68565b82525050565b60006109a5828461093b565b915081905092915050565b60006020820190506109c5600083018461090e565b92915050565b60006020820190506109e0600083018461091d565b92915050565b60006040820190506109fb600083018561090e565b610a08602083018461098a565b9392505050565b6000604082019050610a24600083018561092c565b610a31602083018461097b565b9392505050565b6000604082019050610a4d600083018561092c565b610a5a602083018461098a565b9392505050565b6000602082019050610a76600083018461096c565b92915050565b6000602082019050610a91600083018461098a565b92915050565b6000604051905081810181811067ffffffffffffffff82111715610aba57600080fd5b8060405250919050565b600067ffffffffffffffff821115610adb57600080fd5b601f19601f8301169050602081019050919050565b600081519050919050565b600081905092915050565b6000610b1182610b48565b9050919050565b6000610b2382610b48565b9050919050565b60008115159050919050565b6000610b4182610b06565b9050919050565b600073ffffffffffffffffffffffffffffffffffffffff82169050919050565b6000819050919050565b6000610b7d82610bba565b9050919050565b6000610b8f82610b96565b9050919050565b6000610ba182610b48565b9050919050565b6000610bb382610b68565b9050919050565b6000610bc582610bcc565b9050919050565b6000610bd782610b48565b9050919050565b82818337600083830152505050565b60005b83811015610c0b578082015181840152602081019050610bf0565b83811115610c1a576000848401525b50505050565b610c2981610b06565b8114610c3457600080fd5b50565b610c4081610b2a565b8114610c4b57600080fd5b50565b610c5781610b36565b8114610c6257600080fd5b50565b610c6e81610b68565b8114610c7957600080fd5b5056fea365627a7a72315820218a78796d0e093f85e9f37095f3ba265bce7eee2222fc80c719045495babd4a6c6578706572696d656e74616cf564736f6c63430005100040",
  "source": "pragma solidity ^0.5.12;\npragma experimental ABIEncoderV2;\n\nimport \"@0x/contracts-exchange-forwarder/contracts/src/interfaces/IForwarder.sol\";\nimport \"@0x/contracts-utils/contracts/src/LibBytes.sol\";\nimport \"./utils.sol\";\nimport \"./IERC20.sol\";\n\ncontract WETH {\n    function withdraw(uint wad) public;\n}\n\ncontract ZRXTrade is TradeUtils\n{\n    using LibBytes for bytes;\n\n    function() external payable {}\n\n    address zeroProxy;\n    address wETH;\n\n    constructor (address _wETH, address _zeroProxy, address payable _incognitoSmartContract)\n        public\n    {\n        zeroProxy = _zeroProxy;\n        incognitoSmartContract = _incognitoSmartContract;\n        wETH = _wETH;\n    }\n\n    function trade(ERC20 srcToken, uint amount, ERC20 destToken, bytes memory callDataHex, address _forwarder) public payable isIncognitoSmartContract returns (address, uint) {\n        // do approve if srcToken is not ETH\n        approve(srcToken, zeroProxy, amount);\n\n        // trigger 0x forwarder.\n        IForwarder forwarder = IForwarder(_forwarder);\n        (bool success, ) = address(forwarder).call.value(msg.value)(callDataHex);\n        require(success);\n\n        uint sentAmount;\n        // if destToken is ETH_CONTRACT_ADDRESS then unwrap WETH back to ETH\n        if (destToken == ETH_CONTRACT_ADDRESS) {\n            sentAmount = getBalance(ETH_CONTRACT_ADDRESS);\n            withdrawWrapETH(sentAmount);\n            transfer(ETH_CONTRACT_ADDRESS, sentAmount);\n        } else {\n            sentAmount = getBalance(destToken);\n            transfer(destToken, sentAmount);\n        }\n        return (address(destToken), sentAmount);\n    }\n\n    function getBalance(ERC20 token) internal view returns (uint) {\n        if (token == ETH_CONTRACT_ADDRESS) {\n            return balanceOf(ERC20(wETH));\n        }\n        return balanceOf(token);\n    }\n\n    function withdrawWrapETH(uint amount) public {\n        WETH(wETH).withdraw(amount);\n    }\n}\n",
  "sourcePath": "/Users/mac/coding/0x-interaction/contracts/ZRXTrade.sol",
  "compiler": {
    "name": "solc",
    "version": "0.5.16+commit.9c3226ce.Emscripten.clang"
  },
  "schemaVersion": "3.0.23",
  "updatedAt": "2020-02-19T03:47:12.203Z",
  "devdoc": {
    "methods": {}
  },
  "userdoc": {
    "methods": {}
  }
}